{
  "_format": "hh-sol-artifact-1",
  "contractName": "DomainRegistry",
  "sourceName": "contracts/DomainRegistry.sol",
  "abi": [
    {
      "inputs": [],
      "stateMutability": "nonpayable",
      "type": "constructor"
    },
    {
      "inputs": [
        {
          "internalType": "address",
          "name": "owner",
          "type": "address"
        }
      ],
      "name": "OwnableInvalidOwner",
      "type": "error"
    },
    {
      "inputs": [
        {
          "internalType": "address",
          "name": "account",
          "type": "address"
        }
      ],
      "name": "OwnableUnauthorizedAccount",
      "type": "error"
    },
    {
      "anonymous": false,
      "inputs": [
        {
          "indexed": true,
          "internalType": "bytes32",
          "name": "domainHash",
          "type": "bytes32"
        },
        {
          "indexed": false,
          "internalType": "string",
          "name": "metadata",
          "type": "string"
        },
        {
          "indexed": false,
          "internalType": "uint256",
          "name": "timestamp",
          "type": "uint256"
        }
      ],
      "name": "DomainMetadataUpdated",
      "type": "event"
    },
    {
      "anonymous": false,
      "inputs": [
        {
          "indexed": true,
          "internalType": "bytes32",
          "name": "domainHash",
          "type": "bytes32"
        },
        {
          "indexed": false,
          "internalType": "string",
          "name": "domainName",
          "type": "string"
        },
        {
          "indexed": true,
          "internalType": "address",
          "name": "owner",
          "type": "address"
        },
        {
          "indexed": false,
          "internalType": "uint256",
          "name": "chainId",
          "type": "uint256"
        },
        {
          "indexed": false,
          "internalType": "address",
          "name": "resolvedAddress",
          "type": "address"
        },
        {
          "indexed": false,
          "internalType": "uint256",
          "name": "expiresAt",
          "type": "uint256"
        },
        {
          "indexed": false,
          "internalType": "uint256",
          "name": "timestamp",
          "type": "uint256"
        }
      ],
      "name": "DomainRegistered",
      "type": "event"
    },
    {
      "anonymous": false,
      "inputs": [
        {
          "indexed": true,
          "internalType": "bytes32",
          "name": "domainHash",
          "type": "bytes32"
        },
        {
          "indexed": false,
          "internalType": "uint256",
          "name": "newExpiresAt",
          "type": "uint256"
        },
        {
          "indexed": false,
          "internalType": "uint256",
          "name": "timestamp",
          "type": "uint256"
        }
      ],
      "name": "DomainRenewed",
      "type": "event"
    },
    {
      "anonymous": false,
      "inputs": [
        {
          "indexed": true,
          "internalType": "bytes32",
          "name": "domainHash",
          "type": "bytes32"
        },
        {
          "indexed": false,
          "internalType": "uint256",
          "name": "chainId",
          "type": "uint256"
        },
        {
          "indexed": false,
          "internalType": "address",
          "name": "resolvedAddress",
          "type": "address"
        },
        {
          "indexed": false,
          "internalType": "uint256",
          "name": "timestamp",
          "type": "uint256"
        }
      ],
      "name": "DomainResolved",
      "type": "event"
    },
    {
      "anonymous": false,
      "inputs": [
        {
          "indexed": true,
          "internalType": "bytes32",
          "name": "domainHash",
          "type": "bytes32"
        },
        {
          "indexed": true,
          "internalType": "address",
          "name": "previousOwner",
          "type": "address"
        },
        {
          "indexed": true,
          "internalType": "address",
          "name": "newOwner",
          "type": "address"
        },
        {
          "indexed": false,
          "internalType": "uint256",
          "name": "timestamp",
          "type": "uint256"
        }
      ],
      "name": "DomainTransferred",
      "type": "event"
    },
    {
      "anonymous": false,
      "inputs": [
        {
          "indexed": true,
          "internalType": "address",
          "name": "previousOwner",
          "type": "address"
        },
        {
          "indexed": true,
          "internalType": "address",
          "name": "newOwner",
          "type": "address"
        }
      ],
      "name": "OwnershipTransferred",
      "type": "event"
    },
    {
      "inputs": [
        {
          "internalType": "string[]",
          "name": "domainNames",
          "type": "string[]"
        },
        {
          "internalType": "uint256[]",
          "name": "chainIds",
          "type": "uint256[]"
        },
        {
          "internalType": "address[]",
          "name": "resolvedAddresses",
          "type": "address[]"
        },
        {
          "internalType": "string[]",
          "name": "metadatas",
          "type": "string[]"
        }
      ],
      "name": "batchRegisterDomains",
      "outputs": [
        {
          "internalType": "bytes32[]",
          "name": "",
          "type": "bytes32[]"
        }
      ],
      "stateMutability": "payable",
      "type": "function"
    },
    {
      "inputs": [
        {
          "internalType": "string",
          "name": "domainName",
          "type": "string"
        }
      ],
      "name": "domainExists",
      "outputs": [
        {
          "internalType": "bool",
          "name": "",
          "type": "bool"
        }
      ],
      "stateMutability": "view",
      "type": "function"
    },
    {
      "inputs": [
        {
          "internalType": "bytes32",
          "name": "",
          "type": "bytes32"
        }
      ],
      "name": "domains",
      "outputs": [
        {
          "internalType": "string",
          "name": "name",
          "type": "string"
        },
        {
          "internalType": "address",
          "name": "owner",
          "type": "address"
        },
        {
          "internalType": "uint256",
          "name": "chainId",
          "type": "uint256"
        },
        {
          "internalType": "address",
          "name": "resolvedAddress",
          "type": "address"
        },
        {
          "internalType": "uint256",
          "name": "registeredAt",
          "type": "uint256"
        },
        {
          "internalType": "uint256",
          "name": "expiresAt",
          "type": "uint256"
        },
        {
          "internalType": "string",
          "name": "metadata",
          "type": "string"
        },
        {
          "internalType": "bool",
          "name": "active",
          "type": "bool"
        }
      ],
      "stateMutability": "view",
      "type": "function"
    },
    {
      "inputs": [],
      "name": "expirationPeriod",
      "outputs": [
        {
          "internalType": "uint256",
          "name": "",
          "type": "uint256"
        }
      ],
      "stateMutability": "view",
      "type": "function"
    },
    {
      "inputs": [
        {
          "internalType": "string",
          "name": "domainName",
          "type": "string"
        }
      ],
      "name": "getDomainDetails",
      "outputs": [
        {
          "components": [
            {
              "internalType": "string",
              "name": "name",
              "type": "string"
            },
            {
              "internalType": "address",
              "name": "owner",
              "type": "address"
            },
            {
              "internalType": "uint256",
              "name": "chainId",
              "type": "uint256"
            },
            {
              "internalType": "address",
              "name": "resolvedAddress",
              "type": "address"
            },
            {
              "internalType": "uint256",
              "name": "registeredAt",
              "type": "uint256"
            },
            {
              "internalType": "uint256",
              "name": "expiresAt",
              "type": "uint256"
            },
            {
              "internalType": "string",
              "name": "metadata",
              "type": "string"
            },
            {
              "internalType": "bool",
              "name": "active",
              "type": "bool"
            }
          ],
          "internalType": "struct DomainRegistry.Domain",
          "name": "",
          "type": "tuple"
        }
      ],
      "stateMutability": "view",
      "type": "function"
    },
    {
      "inputs": [
        {
          "internalType": "string",
          "name": "domainName",
          "type": "string"
        }
      ],
      "name": "getDomainHash",
      "outputs": [
        {
          "internalType": "bytes32",
          "name": "",
          "type": "bytes32"
        }
      ],
      "stateMutability": "pure",
      "type": "function"
    },
    {
      "inputs": [
        {
          "internalType": "address",
          "name": "owner",
          "type": "address"
        }
      ],
      "name": "getOwnedDomains",
      "outputs": [
        {
          "internalType": "bytes32[]",
          "name": "",
          "type": "bytes32[]"
        }
      ],
      "stateMutability": "view",
      "type": "function"
    },
    {
      "inputs": [
        {
          "internalType": "string",
          "name": "domainName",
          "type": "string"
        }
      ],
      "name": "isDomainAvailable",
      "outputs": [
        {
          "internalType": "bool",
          "name": "",
          "type": "bool"
        }
      ],
      "stateMutability": "view",
      "type": "function"
    },
    {
      "inputs": [],
      "name": "owner",
      "outputs": [
        {
          "internalType": "address",
          "name": "",
          "type": "address"
        }
      ],
      "stateMutability": "view",
      "type": "function"
    },
    {
      "inputs": [
        {
          "internalType": "string",
          "name": "domainName",
          "type": "string"
        },
        {
          "internalType": "uint256",
          "name": "chainId",
          "type": "uint256"
        },
        {
          "internalType": "address",
          "name": "resolvedAddress",
          "type": "address"
        },
        {
          "internalType": "string",
          "name": "metadata",
          "type": "string"
        }
      ],
      "name": "registerDomain",
      "outputs": [
        {
          "internalType": "bytes32",
          "name": "",
          "type": "bytes32"
        }
      ],
      "stateMutability": "payable",
      "type": "function"
    },
    {
      "inputs": [],
      "name": "registrationFee",
      "outputs": [
        {
          "internalType": "uint256",
          "name": "",
          "type": "uint256"
        }
      ],
      "stateMutability": "view",
      "type": "function"
    },
    {
      "inputs": [
        {
          "internalType": "string",
          "name": "domainName",
          "type": "string"
        }
      ],
      "name": "renewDomain",
      "outputs": [],
      "stateMutability": "payable",
      "type": "function"
    },
    {
      "inputs": [],
      "name": "renounceOwnership",
      "outputs": [],
      "stateMutability": "nonpayable",
      "type": "function"
    },
    {
      "inputs": [
        {
          "internalType": "string",
          "name": "domainName",
          "type": "string"
        }
      ],
      "name": "resolveDomain",
      "outputs": [
        {
          "internalType": "uint256",
          "name": "chainId",
          "type": "uint256"
        },
        {
          "internalType": "address",
          "name": "resolvedAddress",
          "type": "address"
        }
      ],
      "stateMutability": "view",
      "type": "function"
    },
    {
      "inputs": [
        {
          "internalType": "uint256",
          "name": "newPeriod",
          "type": "uint256"
        }
      ],
      "name": "setExpirationPeriod",
      "outputs": [],
      "stateMutability": "nonpayable",
      "type": "function"
    },
    {
      "inputs": [
        {
          "internalType": "uint256",
          "name": "newFee",
          "type": "uint256"
        }
      ],
      "name": "setRegistrationFee",
      "outputs": [],
      "stateMutability": "nonpayable",
      "type": "function"
    },
    {
      "inputs": [
        {
          "internalType": "string",
          "name": "domainName",
          "type": "string"
        },
        {
          "internalType": "address",
          "name": "newOwner",
          "type": "address"
        }
      ],
      "name": "transferDomain",
      "outputs": [],
      "stateMutability": "nonpayable",
      "type": "function"
    },
    {
      "inputs": [
        {
          "internalType": "address",
          "name": "newOwner",
          "type": "address"
        }
      ],
      "name": "transferOwnership",
      "outputs": [],
      "stateMutability": "nonpayable",
      "type": "function"
    },
    {
      "inputs": [
        {
          "internalType": "string",
          "name": "domainName",
          "type": "string"
        },
        {
          "internalType": "string",
          "name": "metadata",
          "type": "string"
        }
      ],
      "name": "updateDomainMetadata",
      "outputs": [],
      "stateMutability": "nonpayable",
      "type": "function"
    },
    {
      "inputs": [
        {
          "internalType": "string",
          "name": "domainName",
          "type": "string"
        },
        {
          "internalType": "uint256",
          "name": "newChainId",
          "type": "uint256"
        },
        {
          "internalType": "address",
          "name": "newAddress",
          "type": "address"
        }
      ],
      "name": "updateDomainResolution",
      "outputs": [],
      "stateMutability": "nonpayable",
      "type": "function"
    },
    {
      "inputs": [],
      "name": "withdrawFees",
      "outputs": [],
      "stateMutability": "nonpayable",
      "type": "function"
    }
  ],
  "bytecode": "0x608060405234801561001057600080fd5b50338061003757604051631e4fbdf760e01b81526000600482015260240160405180910390fd5b61004081610059565b50662386f26fc100006004556301e133806005556100a9565b600080546001600160a01b038381166001600160a01b0319831681178455604051919092169283917f8be0079c531659141344cd1fd0a4f28419497f9722a3daafe3b4186f6b6457e09190a35050565b612491806100b86000396000f3fe60806040526004361061012a5760003560e01c80638897cad3116100ab578063c722f1771161006f578063c722f1771461033c578063c755997414610370578063e9f36aef14610390578063f2fde38b146103a3578063f5fb9de3146103c3578063f6eea098146103d657600080fd5b80638897cad3146102915780638da5cb5b146102a7578063b0ccca13146102cf578063c320c727146102ef578063c38fb8361461030f57600080fd5b8063364460f3116100f2578063364460f3146101f7578063476343ee1461023457806363712a7914610249578063715018a614610269578063864dcbbf1461027e57600080fd5b806307b5c3851461012f57806314c44e091461016257806319fbe87e146101785780631a6c821b1461019a57806332752b09146101c7575b600080fd5b34801561013b57600080fd5b5061014f61014a366004611bcd565b6103f6565b6040519081526020015b60405180910390f35b34801561016e57600080fd5b5061014f60045481565b34801561018457600080fd5b50610198610193366004611c26565b610426565b005b3480156101a657600080fd5b506101ba6101b5366004611c74565b610663565b6040516101599190611c96565b3480156101d357600080fd5b506101e76101e2366004611bcd565b6106cf565b6040519015158152602001610159565b34801561020357600080fd5b50610217610212366004611bcd565b6108b9565b604080519283526001600160a01b03909116602083015201610159565b34801561024057600080fd5b50610198610b4d565b34801561025557600080fd5b50610198610264366004611cda565b610b92565b34801561027557600080fd5b50610198610ce4565b6101ba61028c366004611e47565b610cf8565b34801561029d57600080fd5b5061014f60055481565b3480156102b357600080fd5b506000546040516001600160a01b039091168152602001610159565b3480156102db57600080fd5b506101986102ea366004611f48565b611124565b3480156102fb57600080fd5b5061019861030a366004611fac565b611209565b34801561031b57600080fd5b5061032f61032a366004611bcd565b611216565b6040516101599190612015565b34801561034857600080fd5b5061035c610357366004611fac565b611463565b6040516101599897969594939291906120bb565b34801561037c57600080fd5b506101e761038b366004611bcd565b6115c9565b61014f61039e366004612127565b61160c565b3480156103af57600080fd5b506101986103be366004611c74565b611914565b6101986103d1366004611bcd565b61194f565b3480156103e257600080fd5b506101986103f1366004611fac565b611a8c565b6000816040516020016104099190612199565b604051602081830303815290604052805190602001209050919050565b6001600160a01b0381166104755760405162461bcd60e51b815260206004820152601160248201527024b73b30b634b2103732bb9037bbb732b960791b60448201526064015b60405180910390fd5b6000826040516020016104889190612199565b60408051601f1981840301815291815281516020928301206000818152600390935291205490915060ff166104cf5760405162461bcd60e51b815260040161046c906121b5565b6000818152600160208190526040909120908101546001600160a01b0316331461050b5760405162461bcd60e51b815260040161046c906121e4565b60018101546001600160a01b03166000818152600260205260408120905b81548110156105dd578482828154811061054557610545612212565b9060005260206000200154036105cb57815482906105659060019061223e565b8154811061057557610575612212565b906000526020600020015482828154811061059257610592612212565b9060005260206000200181905550818054806105b0576105b0612257565b600190038181906000526020600020016000905590556105dd565b806105d58161226d565b915050610529565b50600183810180546001600160a01b0319166001600160a01b038881169182179092556000818152600260209081526040808320805496870181558352918190209094018890555142815290929185169187917f1567ade92d177bae06be0dd30e662bb81d7bf5767358b750caf2735ba426b614910160405180910390a4505050505050565b6001600160a01b0381166000908152600260209081526040918290208054835181840281018401909452808452606093928301828280156106c357602002820191906000526020600020905b8154815260200190600101908083116106af575b50505050509050919050565b600080826040516020016106e39190612199565b60408051601f1981840301815291815281516020928301206000818152600390935291205490915060ff1661071b5750600192915050565b6000818152600160205260408082208151610100810190925280548290829061074390612286565b80601f016020809104026020016040519081016040528092919081815260200182805461076f90612286565b80156107bc5780601f10610791576101008083540402835291602001916107bc565b820191906000526020600020905b81548152906001019060200180831161079f57829003601f168201915b505050918352505060018201546001600160a01b03908116602083015260028301546040830152600383015416606082015260048201546080820152600582015460a082015260068201805460c09092019161081790612286565b80601f016020809104026020016040519081016040528092919081815260200182805461084390612286565b80156108905780601f1061086557610100808354040283529160200191610890565b820191906000526020600020905b81548152906001019060200180831161087357829003601f168201915b50505091835250506007919091015460ff16151560209091015260a00151421015949350505050565b6000806000836040516020016108cf9190612199565b60408051601f1981840301815291815281516020928301206000818152600390935291205490915060ff166109165760405162461bcd60e51b815260040161046c906121b5565b6000818152600160205260408082208151610100810190925280548290829061093e90612286565b80601f016020809104026020016040519081016040528092919081815260200182805461096a90612286565b80156109b75780601f1061098c576101008083540402835291602001916109b7565b820191906000526020600020905b81548152906001019060200180831161099a57829003601f168201915b505050918352505060018201546001600160a01b03908116602083015260028301546040830152600383015416606082015260048201546080820152600582015460a082015260068201805460c090920191610a1290612286565b80601f0160208091040260200160405190810160405280929190818152602001828054610a3e90612286565b8015610a8b5780601f10610a6057610100808354040283529160200191610a8b565b820191906000526020600020905b815481529060010190602001808311610a6e57829003601f168201915b50505091835250506007919091015460ff16151560209091015260e0810151909150610af05760405162461bcd60e51b8152602060048201526014602482015273446f6d61696e206973206e6f742061637469766560601b604482015260640161046c565b8060a001514210610b385760405162461bcd60e51b8152602060048201526012602482015271111bdb585a5b881a185cc8195e1c1a5c995960721b604482015260640161046c565b80604001518160600151935093505050915091565b610b55611a99565b600080546040516001600160a01b03909116914780156108fc02929091818181858888f19350505050158015610b8f573d6000803e3d6000fd5b50565b600083604051602001610ba59190612199565b60408051601f1981840301815291815281516020928301206000818152600390935291205490915060ff16610bec5760405162461bcd60e51b815260040161046c906121b5565b6000818152600160208190526040909120908101546001600160a01b03163314610c285760405162461bcd60e51b815260040161046c906121e4565b600781015460ff16610c735760405162461bcd60e51b8152602060048201526014602482015273446f6d61696e206973206e6f742061637469766560601b604482015260640161046c565b600281018490556003810180546001600160a01b0319166001600160a01b038516908117909155604080518681526020810192909252429082015282907f6d78f667f84d64aa723fb0f168bf4b56b063b9c4d7dc21d6c93aae27196897919060600160405180910390a25050505050565b610cec611a99565b610cf66000611ac6565b565b606083518551148015610d0c575082518451145b8015610d19575081518351145b610d5d5760405162461bcd60e51b8152602060048201526015602482015274082e4e4c2f240d8cadccee8d040dad2e6dac2e8c6d605b1b604482015260640161046c565b8451600454610d6c91906122c0565b341015610dbb5760405162461bcd60e51b815260206004820152601d60248201527f496e73756666696369656e7420726567697374726174696f6e20666565000000604482015260640161046c565b6000855167ffffffffffffffff811115610dd757610dd7611b16565b604051908082528060200260200182016040528015610e00578160200160208202803683370190505b50905060005b865181101561111a576000878281518110610e2357610e23612212565b6020026020010151604051602001610e3b9190612199565b60408051601f1981840301815291815281516020928301206000818152600390935291205490915060ff1615610eaf5760405162461bcd60e51b8152602060048201526019602482015278111bdb585a5b88185b1c9958591e481c9959da5cdd195c9959603a1b604482015260640161046c565b600060055442610ebf91906122d7565b90506040518061010001604052808a8581518110610edf57610edf612212565b60200260200101518152602001336001600160a01b03168152602001898581518110610f0d57610f0d612212565b60200260200101518152602001888581518110610f2c57610f2c612212565b60200260200101516001600160a01b03168152602001428152602001828152602001878581518110610f6057610f60612212565b6020908102919091018101518252600191810182905260008581529190526040902081518190610f909082612339565b5060208201516001820180546001600160a01b039283166001600160a01b0319918216179091556040840151600284015560608401516003840180549190931691161790556080820151600482015560a0820151600582015560c08201516006820190610ffd9082612339565b5060e091909101516007909101805491151560ff199283161790556000838152600360209081526040808320805490941660019081179094553383526002825282208054938401815582529020018290558351829085908590811061106457611064612212565b602002602001018181525050336001600160a01b0316827f27acfbad2d6c581dc3471cb9e4b617bda167a30aaafd71afe0c6408b08e067878b86815181106110ae576110ae612212565b60200260200101518b87815181106110c8576110c8612212565b60200260200101518b88815181106110e2576110e2612212565b602002602001015186426040516110fd9594939291906123f9565b60405180910390a3505080806111129061226d565b915050610e06565b5095945050505050565b6000826040516020016111379190612199565b60408051601f1981840301815291815281516020928301206000818152600390935291205490915060ff1661117e5760405162461bcd60e51b815260040161046c906121b5565b6000818152600160208190526040909120908101546001600160a01b031633146111ba5760405162461bcd60e51b815260040161046c906121e4565b600681016111c88482612339565b50817faf1c56c63101c0330380a771dd932b5296df0a6e4a63c993cb818159e3bb3b1f84426040516111fb929190612439565b60405180910390a250505050565b611211611a99565b600455565b6112726040518061010001604052806060815260200160006001600160a01b031681526020016000815260200160006001600160a01b031681526020016000815260200160008152602001606081526020016000151581525090565b6000826040516020016112859190612199565b60408051601f1981840301815291815281516020928301206000818152600390935291205490915060ff166112cc5760405162461bcd60e51b815260040161046c906121b5565b60008181526001602052604090819020815161010081019092528054829082906112f590612286565b80601f016020809104026020016040519081016040528092919081815260200182805461132190612286565b801561136e5780601f106113435761010080835404028352916020019161136e565b820191906000526020600020905b81548152906001019060200180831161135157829003601f168201915b505050918352505060018201546001600160a01b03908116602083015260028301546040830152600383015416606082015260048201546080820152600582015460a082015260068201805460c0909201916113c990612286565b80601f01602080910402602001604051908101604052809291908181526020018280546113f590612286565b80156114425780601f1061141757610100808354040283529160200191611442565b820191906000526020600020905b81548152906001019060200180831161142557829003601f168201915b50505091835250506007919091015460ff1615156020909101529392505050565b60016020526000908152604090208054819061147e90612286565b80601f01602080910402602001604051908101604052809291908181526020018280546114aa90612286565b80156114f75780601f106114cc576101008083540402835291602001916114f7565b820191906000526020600020905b8154815290600101906020018083116114da57829003601f168201915b5050506001840154600285015460038601546004870154600588015460068901805498996001600160a01b03968716999598509390951695509093909261153d90612286565b80601f016020809104026020016040519081016040528092919081815260200182805461156990612286565b80156115b65780601f1061158b576101008083540402835291602001916115b6565b820191906000526020600020905b81548152906001019060200180831161159957829003601f168201915b5050506007909301549192505060ff1688565b600080826040516020016115dd9190612199565b60408051601f1981840301815291815281516020928301206000908152600390925290205460ff169392505050565b60006004543410156116605760405162461bcd60e51b815260206004820152601d60248201527f496e73756666696369656e7420726567697374726174696f6e20666565000000604482015260640161046c565b60008551116116b15760405162461bcd60e51b815260206004820152601b60248201527f446f6d61696e206e616d652063616e6e6f7420626520656d7074790000000000604482015260640161046c565b6001600160a01b0383166117075760405162461bcd60e51b815260206004820152601860248201527f496e76616c6964207265736f6c76656420616464726573730000000000000000604482015260640161046c565b60008560405160200161171a9190612199565b60408051601f1981840301815291815281516020928301206000818152600390935291205490915060ff161561178e5760405162461bcd60e51b8152602060048201526019602482015278111bdb585a5b88185b1c9958591e481c9959da5cdd195c9959603a1b604482015260640161046c565b60006005544261179e91906122d7565b6040805161010081018252898152336020808301919091528183018a90526001600160a01b038916606083015242608083015260a0820184905260c08201889052600160e0830181905260008781529152919091208151929350909181906118069082612339565b5060208201516001820180546001600160a01b039283166001600160a01b0319918216179091556040840151600284015560608401516003840180549190931691161790556080820151600482015560a0820151600582015560c082015160068201906118739082612339565b5060e091909101516007909101805491151560ff199283161790556000838152600360209081526040808320805490941660019081179094553380845260028352818420805495860181558452919092209092018490555183907f27acfbad2d6c581dc3471cb9e4b617bda167a30aaafd71afe0c6408b08e0678790611902908b908b908b90889042906123f9565b60405180910390a35095945050505050565b61191c611a99565b6001600160a01b03811661194657604051631e4fbdf760e01b81526000600482015260240161046c565b610b8f81611ac6565b6004543410156119a15760405162461bcd60e51b815260206004820152601860248201527f496e73756666696369656e742072656e6577616c206665650000000000000000604482015260640161046c565b6000816040516020016119b49190612199565b60408051601f1981840301815291815281516020928301206000818152600390935291205490915060ff166119fb5760405162461bcd60e51b815260040161046c906121b5565b6000818152600160208190526040909120908101546001600160a01b03163314611a375760405162461bcd60e51b815260040161046c906121e4565b60006005548260050154611a4b91906122d7565b600583018190556040805182815242602082015291925084917ff088aa90d58b5ba224e0fad4d84b2d154d492bd69949d8b2a7cd1739984d679091016111fb565b611a94611a99565b600555565b6000546001600160a01b03163314610cf65760405163118cdaa760e01b815233600482015260240161046c565b600080546001600160a01b038381166001600160a01b0319831681178455604051919092169283917f8be0079c531659141344cd1fd0a4f28419497f9722a3daafe3b4186f6b6457e09190a35050565b634e487b7160e01b600052604160045260246000fd5b604051601f8201601f1916810167ffffffffffffffff81118282101715611b5557611b55611b16565b604052919050565b600082601f830112611b6e57600080fd5b813567ffffffffffffffff811115611b8857611b88611b16565b611b9b601f8201601f1916602001611b2c565b818152846020838601011115611bb057600080fd5b816020850160208301376000918101602001919091529392505050565b600060208284031215611bdf57600080fd5b813567ffffffffffffffff811115611bf657600080fd5b611c0284828501611b5d565b949350505050565b80356001600160a01b0381168114611c2157600080fd5b919050565b60008060408385031215611c3957600080fd5b823567ffffffffffffffff811115611c5057600080fd5b611c5c85828601611b5d565b925050611c6b60208401611c0a565b90509250929050565b600060208284031215611c8657600080fd5b611c8f82611c0a565b9392505050565b6020808252825182820181905260009190848201906040850190845b81811015611cce57835183529284019291840191600101611cb2565b50909695505050505050565b600080600060608486031215611cef57600080fd5b833567ffffffffffffffff811115611d0657600080fd5b611d1286828701611b5d565b93505060208401359150611d2860408501611c0a565b90509250925092565b600067ffffffffffffffff821115611d4b57611d4b611b16565b5060051b60200190565b600082601f830112611d6657600080fd5b81356020611d7b611d7683611d31565b611b2c565b82815260059290921b84018101918181019086841115611d9a57600080fd5b8286015b84811015611dda57803567ffffffffffffffff811115611dbe5760008081fd5b611dcc8986838b0101611b5d565b845250918301918301611d9e565b509695505050505050565b600082601f830112611df657600080fd5b81356020611e06611d7683611d31565b82815260059290921b84018101918181019086841115611e2557600080fd5b8286015b84811015611dda57611e3a81611c0a565b8352918301918301611e29565b60008060008060808587031215611e5d57600080fd5b843567ffffffffffffffff80821115611e7557600080fd5b611e8188838901611d55565b9550602091508187013581811115611e9857600080fd5b8701601f81018913611ea957600080fd5b8035611eb7611d7682611d31565b81815260059190911b8201840190848101908b831115611ed657600080fd5b928501925b82841015611ef457833582529285019290850190611edb565b97505050506040870135915080821115611f0d57600080fd5b611f1988838901611de5565b93506060870135915080821115611f2f57600080fd5b50611f3c87828801611d55565b91505092959194509250565b60008060408385031215611f5b57600080fd5b823567ffffffffffffffff80821115611f7357600080fd5b611f7f86838701611b5d565b93506020850135915080821115611f9557600080fd5b50611fa285828601611b5d565b9150509250929050565b600060208284031215611fbe57600080fd5b5035919050565b60005b83811015611fe0578181015183820152602001611fc8565b50506000910152565b60008151808452612001816020860160208601611fc5565b601f01601f19169290920160200192915050565b6020815260008251610100806020850152612034610120850183611fe9565b915060018060a01b03602086015116604085015260408501516060850152606085015161206c60808601826001600160a01b03169052565b50608085015160a085015260a085015160c085015260c0850151601f198584030160e086015261209c8382611fe9565b92505060e08501516120b18286018215159052565b5090949350505050565b60006101008083526120cf8184018c611fe9565b6001600160a01b038b81166020860152604085018b9052891660608501526080840188905260a0840187905283810360c0850152905061210f8186611fe9565b91505082151560e08301529998505050505050505050565b6000806000806080858703121561213d57600080fd5b843567ffffffffffffffff8082111561215557600080fd5b61216188838901611b5d565b95506020870135945061217660408801611c0a565b9350606087013591508082111561218c57600080fd5b50611f3c87828801611b5d565b600082516121ab818460208701611fc5565b9190910192915050565b602080825260159082015274111bdb585a5b88191bd95cc81b9bdd08195e1a5cdd605a1b604082015260600190565b6020808252601490820152732737ba103a3432903237b6b0b4b71037bbb732b960611b604082015260600190565b634e487b7160e01b600052603260045260246000fd5b634e487b7160e01b600052601160045260246000fd5b8181038181111561225157612251612228565b92915050565b634e487b7160e01b600052603160045260246000fd5b60006001820161227f5761227f612228565b5060010190565b600181811c9082168061229a57607f821691505b6020821081036122ba57634e487b7160e01b600052602260045260246000fd5b50919050565b808202811582820484141761225157612251612228565b8082018082111561225157612251612228565b601f82111561233457600081815260208120601f850160051c810160208610156123115750805b601f850160051c820191505b818110156123305782815560010161231d565b5050505b505050565b815167ffffffffffffffff81111561235357612353611b16565b612367816123618454612286565b846122ea565b602080601f83116001811461239c57600084156123845750858301515b600019600386901b1c1916600185901b178555612330565b600085815260208120601f198616915b828110156123cb578886015182559484019460019091019084016123ac565b50858210156123e95787850151600019600388901b60f8161c191681555b5050505050600190811b01905550565b60a08152600061240c60a0830188611fe9565b6020830196909652506001600160a01b039390931660408401526060830191909152608090910152919050565b60408152600061244c6040830185611fe9565b9050826020830152939250505056fea26469706673582212209cdafbde1dc987a010c0c8095ab1af64dbf47bcb57e3f8b16442a4b9c2900dd164736f6c63430008140033",
  "linkReferences": {},
  "deployedLinkReferences": {}
}