{"contracts/BatchTransactions.sol":{"BatchTransactions":{"abi":[{"inputs":[],"stateMutability":"nonpayable","type":"constructor"},{"inputs":[{"internalType":"address","name":"owner","type":"address"}],"name":"OwnableInvalidOwner","type":"error"},{"inputs":[{"internalType":"address","name":"account","type":"address"}],"name":"OwnableUnauthorizedAccount","type":"error"},{"inputs":[],"name":"ReentrancyGuardReentrantCall","type":"error"},{"anonymous":false,"inputs":[{"indexed":true,"internalType":"address","name":"executor","type":"address"},{"indexed":false,"internalType":"uint256","name":"operationsCount","type":"uint256"},{"indexed":false,"internalType":"bool","name":"success","type":"bool"}],"name":"BatchExecuted","type":"event"},{"anonymous":false,"inputs":[{"indexed":true,"internalType":"uint256","name":"operationIndex","type":"uint256"},{"indexed":false,"internalType":"bytes","name":"reason","type":"bytes"}],"name":"OperationFailed","type":"event"},{"anonymous":false,"inputs":[{"indexed":true,"internalType":"address","name":"previousOwner","type":"address"},{"indexed":true,"internalType":"address","name":"newOwner","type":"address"}],"name":"OwnershipTransferred","type":"event"},{"inputs":[{"components":[{"internalType":"address","name":"target","type":"address"},{"internalType":"uint256","name":"value","type":"uint256"},{"internalType":"bytes","name":"data","type":"bytes"},{"internalType":"bool","name":"allowFailure","type":"bool"}],"internalType":"struct BatchTransactions.Operation[]","name":"operations","type":"tuple[]"}],"name":"estimateGas","outputs":[{"internalType":"uint256","name":"estimatedGas","type":"uint256"}],"stateMutability":"view","type":"function"},{"inputs":[{"components":[{"internalType":"address","name":"target","type":"address"},{"internalType":"uint256","name":"value","type":"uint256"},{"internalType":"bytes","name":"data","type":"bytes"},{"internalType":"bool","name":"allowFailure","type":"bool"}],"internalType":"struct BatchTransactions.Operation[]","name":"operations","type":"tuple[]"},{"internalType":"bool","name":"requireAllSuccess","type":"bool"}],"name":"executeBatch","outputs":[{"components":[{"internalType":"bool","name":"success","type":"bool"},{"internalType":"bytes[]","name":"results","type":"bytes[]"},{"internalType":"uint256","name":"failedCount","type":"uint256"}],"internalType":"struct BatchTransactions.BatchResult","name":"result","type":"tuple"}],"stateMutability":"payable","type":"function"},{"inputs":[{"internalType":"address[]","name":"targets","type":"address[]"},{"internalType":"uint256[]","name":"values","type":"uint256[]"},{"internalType":"bytes[]","name":"datas","type":"bytes[]"}],"name":"executeBatchSimple","outputs":[{"internalType":"bool","name":"success","type":"bool"}],"stateMutability":"payable","type":"function"},{"inputs":[{"internalType":"address","name":"user","type":"address"}],"name":"getUserStats","outputs":[{"internalType":"uint256","name":"count","type":"uint256"}],"stateMutability":"view","type":"function"},{"inputs":[],"name":"owner","outputs":[{"internalType":"address","name":"","type":"address"}],"stateMutability":"view","type":"function"},{"inputs":[],"name":"renounceOwnership","outputs":[],"stateMutability":"nonpayable","type":"function"},{"inputs":[],"name":"totalBatchesExecuted","outputs":[{"internalType":"uint256","name":"","type":"uint256"}],"stateMutability":"view","type":"function"},{"inputs":[{"internalType":"address","name":"newOwner","type":"address"}],"name":"transferOwnership","outputs":[],"stateMutability":"nonpayable","type":"function"},{"inputs":[{"internalType":"address","name":"","type":"address"}],"name":"userBatchCount","outputs":[{"internalType":"uint256","name":"","type":"uint256"}],"stateMutability":"view","type":"function"},{"inputs":[],"name":"withdrawETH","outputs":[],"stateMutability":"nonpayable","type":"function"},{"stateMutability":"payable","type":"receive"}],"evm":{"bytecode":{"linkReferences":{},"object":"608060405234801561001057600080fd5b50338061003757604051631e4fbdf760e01b81526000600482015260240160405180910390fd5b6100408161004a565b506001805561009a565b600080546001600160a01b038381166001600160a01b0319831681178455604051919092169283917f8be0079c531659141344cd1fd0a4f28419497f9722a3daafe3b4186f6b6457e09190a35050565b611192806100a96000396000f3fe6080604052600436106100955760003560e01c80638da5cb5b116100595780638da5cb5b1461015a578063b091e25314610182578063e086e5ec146101a2578063f2fde38b146101b7578063fdb2e681146101d757600080fd5b80632251a53a146100a15780634e43603a146100d457806353db9baa1461010a57806363b434941461012d578063715018a61461014357600080fd5b3661009c57005b600080fd5b3480156100ad57600080fd5b506100c16100bc366004610de7565b610204565b6040519081526020015b60405180910390f35b3480156100e057600080fd5b506100c16100ef366004610e29565b6001600160a01b031660009081526003602052604090205490565b61011d610118366004610e52565b6102c1565b60405190151581526020016100cb565b34801561013957600080fd5b506100c160025481565b34801561014f57600080fd5b50610158610768565b005b34801561016657600080fd5b506000546040516001600160a01b0390911681526020016100cb565b610195610190366004610f01565b61077c565b6040516100cb9190610f9b565b3480156101ae57600080fd5b50610158610c17565b3480156101c357600080fd5b506101586101d2366004610e29565b610cb9565b3480156101e357600080fd5b506100c16101f2366004610e29565b60036020526000908152604090205481565b61520860005b828110156102b95761021e61753083611035565b9150600084848381811061023457610234611048565b9050602002810190610246919061105e565b61025490604081019061107e565b905011156102a75783838281811061026e5761026e611048565b9050602002810190610280919061105e565b61028e90604081019061107e565b61029a915060106110c5565b6102a49083611035565b91505b806102b1816110dc565b91505061020a565b505b92915050565b60006102cb610cf4565b85841480156102d957508382145b6103225760405162461bcd60e51b8152602060048201526015602482015274082e4e4c2f240d8cadccee8d040dad2e6dac2e8c6d605b1b60448201526064015b60405180910390fd5b856103685760405162461bcd60e51b8152602060048201526016602482015275139bc81bdc195c985d1a5bdb9cc81c1c9bdd9a59195960521b6044820152606401610319565b60328611156103b95760405162461bcd60e51b815260206004820152601c60248201527f546f6f206d616e79206f7065726174696f6e7320286d617820353029000000006044820152606401610319565b60008667ffffffffffffffff8111156103d4576103d46110f5565b60405190808252806020026020018201604052801561040757816020015b60608152602001906001900390816103f25790505b5090506000600192506000805b898110156104545788888281811061042e5761042e611048565b90506020020135826104409190611035565b91508061044c816110dc565b915050610414565b508034101561049d5760405162461bcd60e51b8152602060048201526015602482015274125b9cdd59999a58da595b9d08115512081cd95b9d605a1b6044820152606401610319565b60005b89811015610647576000808c8c848181106104bd576104bd611048565b90506020020160208101906104d29190610e29565b6001600160a01b03168b8b858181106104ed576104ed611048565b905060200201358a8a8681811061050657610506611048565b9050602002810190610518919061107e565b60405161052692919061110b565b60006040518083038185875af1925050503d8060008114610563576040519150601f19603f3d011682016040523d82523d6000602084013e610568565b606091505b509150915081610614578461057c816110dc565b9550508086848151811061059257610592611048565b6020026020010181905250827f056772279e3e927b0c0a816f15f5c6995556c9a872aaa97fd48ff80a27811fef826040516105cd919061111b565b60405180910390a260405162461bcd60e51b815260206004820152601060248201526f13dc195c985d1a5bdb8819985a5b195960821b604482015260009750606401610319565b8086848151811061062757610627611048565b60200260200101819052505050808061063f906110dc565b9150506104a0565b5060028054906000610658836110dc565b9091555050336000908152600360205260408120805491610678836110dc565b91905055508034111561071657600033610692833461112e565b604051600081818185875af1925050503d80600081146106ce576040519150601f19603f3d011682016040523d82523d6000602084013e6106d3565b606091505b50509050806107145760405162461bcd60e51b815260206004820152600d60248201526c1499599d5b990819985a5b1959609a1b6044820152606401610319565b505b604080518a8152851515602082015233917fd9774237cf939b608de5425a7d921b83ed370cd9d259bcac847d76664a3e6c1b910160405180910390a250505061075e60018055565b9695505050505050565b610770610d1e565b61077a6000610d4b565b565b6107a2604051806060016040528060001515815260200160608152602001600081525090565b6107aa610cf4565b826107f05760405162461bcd60e51b8152602060048201526016602482015275139bc81bdc195c985d1a5bdb9cc81c1c9bdd9a59195960521b6044820152606401610319565b60328311156108415760405162461bcd60e51b815260206004820152601c60248201527f546f6f206d616e79206f7065726174696f6e7320286d617820353029000000006044820152606401610319565b8267ffffffffffffffff81111561085a5761085a6110f5565b60405190808252806020026020018201604052801561088d57816020015b60608152602001906001900390816108785790505b50602082015260006040820181905260018252805b848110156108f0578585828181106108bc576108bc611048565b90506020028101906108ce919061105e565b6108dc906020013583611035565b9150806108e8816110dc565b9150506108a2565b50803410156109395760405162461bcd60e51b8152602060048201526015602482015274125b9cdd59999a58da595b9d08115512081cd95b9d605a1b6044820152606401610319565b60005b84811015610af9573686868381811061095757610957611048565b9050602002810190610969919061105e565b905060008061097b6020840184610e29565b6001600160a01b03166020840135610996604086018661107e565b6040516109a492919061110b565b60006040518083038185875af1925050503d80600081146109e1576040519150601f19603f3d011682016040523d82523d6000602084013e6109e6565b606091505b509150915081610ac05760408601805190610a00826110dc565b815250508086602001518581518110610a1b57610a1b611048565b6020026020010181905250837f056772279e3e927b0c0a816f15f5c6995556c9a872aaa97fd48ff80a27811fef82604051610a56919061111b565b60405180910390a28680610a775750610a756080840160608501611141565b155b15610ab75760405162461bcd60e51b815260206004820152601060248201526f13dc195c985d1a5bdb8819985a5b195960821b6044820152606401610319565b60008652610ae3565b8086602001518581518110610ad757610ad7611048565b60200260200101819052505b5050508080610af1906110dc565b91505061093c565b5060028054906000610b0a836110dc565b9091555050336000908152600360205260408120805491610b2a836110dc565b919050555080341115610bc857600033610b44833461112e565b604051600081818185875af1925050503d8060008114610b80576040519150601f19603f3d011682016040523d82523d6000602084013e610b85565b606091505b5050905080610bc65760405162461bcd60e51b815260206004820152600d60248201526c1499599d5b990819985a5b1959609a1b6044820152606401610319565b505b815160408051868152911515602083015233917fd9774237cf939b608de5425a7d921b83ed370cd9d259bcac847d76664a3e6c1b910160405180910390a250610c1060018055565b9392505050565b610c1f610d1e565b600080546040516001600160a01b039091169047908381818185875af1925050503d8060008114610c6c576040519150601f19603f3d011682016040523d82523d6000602084013e610c71565b606091505b5050905080610cb65760405162461bcd60e51b815260206004820152601160248201527015da5d1a191c985dd85b0819985a5b1959607a1b6044820152606401610319565b50565b610cc1610d1e565b6001600160a01b038116610ceb57604051631e4fbdf760e01b815260006004820152602401610319565b610cb681610d4b565b600260015403610d1757604051633ee5aeb560e01b815260040160405180910390fd5b6002600155565b6000546001600160a01b0316331461077a5760405163118cdaa760e01b8152336004820152602401610319565b600080546001600160a01b038381166001600160a01b0319831681178455604051919092169283917f8be0079c531659141344cd1fd0a4f28419497f9722a3daafe3b4186f6b6457e09190a35050565b60008083601f840112610dad57600080fd5b50813567ffffffffffffffff811115610dc557600080fd5b6020830191508360208260051b8501011115610de057600080fd5b9250929050565b60008060208385031215610dfa57600080fd5b823567ffffffffffffffff811115610e1157600080fd5b610e1d85828601610d9b565b90969095509350505050565b600060208284031215610e3b57600080fd5b81356001600160a01b0381168114610c1057600080fd5b60008060008060008060608789031215610e6b57600080fd5b863567ffffffffffffffff80821115610e8357600080fd5b610e8f8a838b01610d9b565b90985096506020890135915080821115610ea857600080fd5b610eb48a838b01610d9b565b90965094506040890135915080821115610ecd57600080fd5b50610eda89828a01610d9b565b979a9699509497509295939492505050565b80358015158114610efc57600080fd5b919050565b600080600060408486031215610f1657600080fd5b833567ffffffffffffffff811115610f2d57600080fd5b610f3986828701610d9b565b9094509250610f4c905060208501610eec565b90509250925092565b6000815180845260005b81811015610f7b57602081850181015186830182015201610f5f565b506000602082860101526020601f19601f83011685010191505092915050565b60006020808352608083018451151582850152818501516060604086015281815180845260a08701915060a08160051b8801019350848301925060005b8181101561100657609f19888603018352610ff4858551610f55565b94509285019291850191600101610fd8565b5050505060408501516060850152809250505092915050565b634e487b7160e01b600052601160045260246000fd5b808201808211156102bb576102bb61101f565b634e487b7160e01b600052603260045260246000fd5b60008235607e1983360301811261107457600080fd5b9190910192915050565b6000808335601e1984360301811261109557600080fd5b83018035915067ffffffffffffffff8211156110b057600080fd5b602001915036819003821315610de057600080fd5b80820281158282048414176102bb576102bb61101f565b6000600182016110ee576110ee61101f565b5060010190565b634e487b7160e01b600052604160045260246000fd5b8183823760009101908152919050565b602081526000610c106020830184610f55565b818103818111156102bb576102bb61101f565b60006020828403121561115357600080fd5b610c1082610eec56fea2646970667358221220993a616bcad72c53969e37fdee580959f4dda79d09276d759a23ddd77cadea8564736f6c63430008140033","opcodes":"PUSH1 0x80 PUSH1 0x40 MSTORE CALLVALUE DUP1 ISZERO PUSH2 0x10 JUMPI PUSH1 0x0 DUP1 REVERT JUMPDEST POP CALLER DUP1 PUSH2 0x37 JUMPI PUSH1 0x40 MLOAD PUSH4 0x1E4FBDF7 PUSH1 0xE0 SHL DUP2 MSTORE PUSH1 0x0 PUSH1 0x4 DUP3 ADD MSTORE PUSH1 0x24 ADD PUSH1 0x40 MLOAD DUP1 SWAP2 SUB SWAP1 REVERT JUMPDEST PUSH2 0x40 DUP2 PUSH2 0x4A JUMP JUMPDEST POP PUSH1 0x1 DUP1 SSTORE PUSH2 0x9A JUMP JUMPDEST PUSH1 0x0 DUP1 SLOAD PUSH1 0x1 PUSH1 0x1 PUSH1 0xA0 SHL SUB DUP4 DUP2 AND PUSH1 0x1 PUSH1 0x1 PUSH1 0xA0 SHL SUB NOT DUP4 AND DUP2 OR DUP5 SSTORE PUSH1 0x40 MLOAD SWAP2 SWAP1 SWAP3 AND SWAP3 DUP4 SWAP2 PUSH32 0x8BE0079C531659141344CD1FD0A4F28419497F9722A3DAAFE3B4186F6B6457E0 SWAP2 SWAP1 LOG3 POP POP JUMP JUMPDEST PUSH2 0x1192 DUP1 PUSH2 0xA9 PUSH1 0x0 CODECOPY PUSH1 0x0 RETURN INVALID PUSH1 0x80 PUSH1 0x40 MSTORE PUSH1 0x4 CALLDATASIZE LT PUSH2 0x95 JUMPI PUSH1 0x0 CALLDATALOAD PUSH1 0xE0 SHR DUP1 PUSH4 0x8DA5CB5B GT PUSH2 0x59 JUMPI DUP1 PUSH4 0x8DA5CB5B EQ PUSH2 0x15A JUMPI DUP1 PUSH4 0xB091E253 EQ PUSH2 0x182 JUMPI DUP1 PUSH4 0xE086E5EC EQ PUSH2 0x1A2 JUMPI DUP1 PUSH4 0xF2FDE38B EQ PUSH2 0x1B7 JUMPI DUP1 PUSH4 0xFDB2E681 EQ PUSH2 0x1D7 JUMPI PUSH1 0x0 DUP1 REVERT JUMPDEST DUP1 PUSH4 0x2251A53A EQ PUSH2 0xA1 JUMPI DUP1 PUSH4 0x4E43603A EQ PUSH2 0xD4 JUMPI DUP1 PUSH4 0x53DB9BAA EQ PUSH2 0x10A JUMPI DUP1 PUSH4 0x63B43494 EQ PUSH2 0x12D JUMPI DUP1 PUSH4 0x715018A6 EQ PUSH2 0x143 JUMPI PUSH1 0x0 DUP1 REVERT JUMPDEST CALLDATASIZE PUSH2 0x9C JUMPI STOP JUMPDEST PUSH1 0x0 DUP1 REVERT JUMPDEST CALLVALUE DUP1 ISZERO PUSH2 0xAD JUMPI PUSH1 0x0 DUP1 REVERT JUMPDEST POP PUSH2 0xC1 PUSH2 0xBC CALLDATASIZE PUSH1 0x4 PUSH2 0xDE7 JUMP JUMPDEST PUSH2 0x204 JUMP JUMPDEST PUSH1 0x40 MLOAD SWAP1 DUP2 MSTORE PUSH1 0x20 ADD JUMPDEST PUSH1 0x40 MLOAD DUP1 SWAP2 SUB SWAP1 RETURN JUMPDEST CALLVALUE DUP1 ISZERO PUSH2 0xE0 JUMPI PUSH1 0x0 DUP1 REVERT JUMPDEST POP PUSH2 0xC1 PUSH2 0xEF CALLDATASIZE PUSH1 0x4 PUSH2 0xE29 JUMP JUMPDEST PUSH1 0x1 PUSH1 0x1 PUSH1 0xA0 SHL SUB AND PUSH1 0x0 SWAP1 DUP2 MSTORE PUSH1 0x3 PUSH1 0x20 MSTORE PUSH1 0x40 SWAP1 KECCAK256 SLOAD SWAP1 JUMP JUMPDEST PUSH2 0x11D PUSH2 0x118 CALLDATASIZE PUSH1 0x4 PUSH2 0xE52 JUMP JUMPDEST PUSH2 0x2C1 JUMP JUMPDEST PUSH1 0x40 MLOAD SWAP1 ISZERO ISZERO DUP2 MSTORE PUSH1 0x20 ADD PUSH2 0xCB JUMP JUMPDEST CALLVALUE DUP1 ISZERO PUSH2 0x139 JUMPI PUSH1 0x0 DUP1 REVERT JUMPDEST POP PUSH2 0xC1 PUSH1 0x2 SLOAD DUP2 JUMP JUMPDEST CALLVALUE DUP1 ISZERO PUSH2 0x14F JUMPI PUSH1 0x0 DUP1 REVERT JUMPDEST POP PUSH2 0x158 PUSH2 0x768 JUMP JUMPDEST STOP JUMPDEST CALLVALUE DUP1 ISZERO PUSH2 0x166 JUMPI PUSH1 0x0 DUP1 REVERT JUMPDEST POP PUSH1 0x0 SLOAD PUSH1 0x40 MLOAD PUSH1 0x1 PUSH1 0x1 PUSH1 0xA0 SHL SUB SWAP1 SWAP2 AND DUP2 MSTORE PUSH1 0x20 ADD PUSH2 0xCB JUMP JUMPDEST PUSH2 0x195 PUSH2 0x190 CALLDATASIZE PUSH1 0x4 PUSH2 0xF01 JUMP JUMPDEST PUSH2 0x77C JUMP JUMPDEST PUSH1 0x40 MLOAD PUSH2 0xCB SWAP2 SWAP1 PUSH2 0xF9B JUMP JUMPDEST CALLVALUE DUP1 ISZERO PUSH2 0x1AE JUMPI PUSH1 0x0 DUP1 REVERT JUMPDEST POP PUSH2 0x158 PUSH2 0xC17 JUMP JUMPDEST CALLVALUE DUP1 ISZERO PUSH2 0x1C3 JUMPI PUSH1 0x0 DUP1 REVERT JUMPDEST POP PUSH2 0x158 PUSH2 0x1D2 CALLDATASIZE PUSH1 0x4 PUSH2 0xE29 JUMP JUMPDEST PUSH2 0xCB9 JUMP JUMPDEST CALLVALUE DUP1 ISZERO PUSH2 0x1E3 JUMPI PUSH1 0x0 DUP1 REVERT JUMPDEST POP PUSH2 0xC1 PUSH2 0x1F2 CALLDATASIZE PUSH1 0x4 PUSH2 0xE29 JUMP JUMPDEST PUSH1 0x3 PUSH1 0x20 MSTORE PUSH1 0x0 SWAP1 DUP2 MSTORE PUSH1 0x40 SWAP1 KECCAK256 SLOAD DUP2 JUMP JUMPDEST PUSH2 0x5208 PUSH1 0x0 JUMPDEST DUP3 DUP2 LT ISZERO PUSH2 0x2B9 JUMPI PUSH2 0x21E PUSH2 0x7530 DUP4 PUSH2 0x1035 JUMP JUMPDEST SWAP2 POP PUSH1 0x0 DUP5 DUP5 DUP4 DUP2 DUP2 LT PUSH2 0x234 JUMPI PUSH2 0x234 PUSH2 0x1048 JUMP JUMPDEST SWAP1 POP PUSH1 0x20 MUL DUP2 ADD SWAP1 PUSH2 0x246 SWAP2 SWAP1 PUSH2 0x105E JUMP JUMPDEST PUSH2 0x254 SWAP1 PUSH1 0x40 DUP2 ADD SWAP1 PUSH2 0x107E JUMP JUMPDEST SWAP1 POP GT ISZERO PUSH2 0x2A7 JUMPI DUP4 DUP4 DUP3 DUP2 DUP2 LT PUSH2 0x26E JUMPI PUSH2 0x26E PUSH2 0x1048 JUMP JUMPDEST SWAP1 POP PUSH1 0x20 MUL DUP2 ADD SWAP1 PUSH2 0x280 SWAP2 SWAP1 PUSH2 0x105E JUMP JUMPDEST PUSH2 0x28E SWAP1 PUSH1 0x40 DUP2 ADD SWAP1 PUSH2 0x107E JUMP JUMPDEST PUSH2 0x29A SWAP2 POP PUSH1 0x10 PUSH2 0x10C5 JUMP JUMPDEST PUSH2 0x2A4 SWAP1 DUP4 PUSH2 0x1035 JUMP JUMPDEST SWAP2 POP JUMPDEST DUP1 PUSH2 0x2B1 DUP2 PUSH2 0x10DC JUMP JUMPDEST SWAP2 POP POP PUSH2 0x20A JUMP JUMPDEST POP JUMPDEST SWAP3 SWAP2 POP POP JUMP JUMPDEST PUSH1 0x0 PUSH2 0x2CB PUSH2 0xCF4 JUMP JUMPDEST DUP6 DUP5 EQ DUP1 ISZERO PUSH2 0x2D9 JUMPI POP DUP4 DUP3 EQ JUMPDEST PUSH2 0x322 JUMPI PUSH1 0x40 MLOAD PUSH3 0x461BCD PUSH1 0xE5 SHL DUP2 MSTORE PUSH1 0x20 PUSH1 0x4 DUP3 ADD MSTORE PUSH1 0x15 PUSH1 0x24 DUP3 ADD MSTORE PUSH21 0x82E4E4C2F240D8CADCCEE8D040DAD2E6DAC2E8C6D PUSH1 0x5B SHL PUSH1 0x44 DUP3 ADD MSTORE PUSH1 0x64 ADD JUMPDEST PUSH1 0x40 MLOAD DUP1 SWAP2 SUB SWAP1 REVERT JUMPDEST DUP6 PUSH2 0x368 JUMPI PUSH1 0x40 MLOAD PUSH3 0x461BCD PUSH1 0xE5 SHL DUP2 MSTORE PUSH1 0x20 PUSH1 0x4 DUP3 ADD MSTORE PUSH1 0x16 PUSH1 0x24 DUP3 ADD MSTORE PUSH22 0x139BC81BDC195C985D1A5BDB9CC81C1C9BDD9A591959 PUSH1 0x52 SHL PUSH1 0x44 DUP3 ADD MSTORE PUSH1 0x64 ADD PUSH2 0x319 JUMP JUMPDEST PUSH1 0x32 DUP7 GT ISZERO PUSH2 0x3B9 JUMPI PUSH1 0x40 MLOAD PUSH3 0x461BCD PUSH1 0xE5 SHL DUP2 MSTORE PUSH1 0x20 PUSH1 0x4 DUP3 ADD MSTORE PUSH1 0x1C PUSH1 0x24 DUP3 ADD MSTORE PUSH32 0x546F6F206D616E79206F7065726174696F6E7320286D61782035302900000000 PUSH1 0x44 DUP3 ADD MSTORE PUSH1 0x64 ADD PUSH2 0x319 JUMP JUMPDEST PUSH1 0x0 DUP7 PUSH8 0xFFFFFFFFFFFFFFFF DUP2 GT ISZERO PUSH2 0x3D4 JUMPI PUSH2 0x3D4 PUSH2 0x10F5 JUMP JUMPDEST PUSH1 0x40 MLOAD SWAP1 DUP1 DUP3 MSTORE DUP1 PUSH1 0x20 MUL PUSH1 0x20 ADD DUP3 ADD PUSH1 0x40 MSTORE DUP1 ISZERO PUSH2 0x407 JUMPI DUP2 PUSH1 0x20 ADD JUMPDEST PUSH1 0x60 DUP2 MSTORE PUSH1 0x20 ADD SWAP1 PUSH1 0x1 SWAP1 SUB SWAP1 DUP2 PUSH2 0x3F2 JUMPI SWAP1 POP JUMPDEST POP SWAP1 POP PUSH1 0x0 PUSH1 0x1 SWAP3 POP PUSH1 0x0 DUP1 JUMPDEST DUP10 DUP2 LT ISZERO PUSH2 0x454 JUMPI DUP9 DUP9 DUP3 DUP2 DUP2 LT PUSH2 0x42E JUMPI PUSH2 0x42E PUSH2 0x1048 JUMP JUMPDEST SWAP1 POP PUSH1 0x20 MUL ADD CALLDATALOAD DUP3 PUSH2 0x440 SWAP2 SWAP1 PUSH2 0x1035 JUMP JUMPDEST SWAP2 POP DUP1 PUSH2 0x44C DUP2 PUSH2 0x10DC JUMP JUMPDEST SWAP2 POP POP PUSH2 0x414 JUMP JUMPDEST POP DUP1 CALLVALUE LT ISZERO PUSH2 0x49D JUMPI PUSH1 0x40 MLOAD PUSH3 0x461BCD PUSH1 0xE5 SHL DUP2 MSTORE PUSH1 0x20 PUSH1 0x4 DUP3 ADD MSTORE PUSH1 0x15 PUSH1 0x24 DUP3 ADD MSTORE PUSH21 0x125B9CDD59999A58DA595B9D08115512081CD95B9D PUSH1 0x5A SHL PUSH1 0x44 DUP3 ADD MSTORE PUSH1 0x64 ADD PUSH2 0x319 JUMP JUMPDEST PUSH1 0x0 JUMPDEST DUP10 DUP2 LT ISZERO PUSH2 0x647 JUMPI PUSH1 0x0 DUP1 DUP13 DUP13 DUP5 DUP2 DUP2 LT PUSH2 0x4BD JUMPI PUSH2 0x4BD PUSH2 0x1048 JUMP JUMPDEST SWAP1 POP PUSH1 0x20 MUL ADD PUSH1 0x20 DUP2 ADD SWAP1 PUSH2 0x4D2 SWAP2 SWAP1 PUSH2 0xE29 JUMP JUMPDEST PUSH1 0x1 PUSH1 0x1 PUSH1 0xA0 SHL SUB AND DUP12 DUP12 DUP6 DUP2 DUP2 LT PUSH2 0x4ED JUMPI PUSH2 0x4ED PUSH2 0x1048 JUMP JUMPDEST SWAP1 POP PUSH1 0x20 MUL ADD CALLDATALOAD DUP11 DUP11 DUP7 DUP2 DUP2 LT PUSH2 0x506 JUMPI PUSH2 0x506 PUSH2 0x1048 JUMP JUMPDEST SWAP1 POP PUSH1 0x20 MUL DUP2 ADD SWAP1 PUSH2 0x518 SWAP2 SWAP1 PUSH2 0x107E JUMP JUMPDEST PUSH1 0x40 MLOAD PUSH2 0x526 SWAP3 SWAP2 SWAP1 PUSH2 0x110B JUMP JUMPDEST PUSH1 0x0 PUSH1 0x40 MLOAD DUP1 DUP4 SUB DUP2 DUP6 DUP8 GAS CALL SWAP3 POP POP POP RETURNDATASIZE DUP1 PUSH1 0x0 DUP2 EQ PUSH2 0x563 JUMPI PUSH1 0x40 MLOAD SWAP2 POP PUSH1 0x1F NOT PUSH1 0x3F RETURNDATASIZE ADD AND DUP3 ADD PUSH1 0x40 MSTORE RETURNDATASIZE DUP3 MSTORE RETURNDATASIZE PUSH1 0x0 PUSH1 0x20 DUP5 ADD RETURNDATACOPY PUSH2 0x568 JUMP JUMPDEST PUSH1 0x60 SWAP2 POP JUMPDEST POP SWAP2 POP SWAP2 POP DUP2 PUSH2 0x614 JUMPI DUP5 PUSH2 0x57C DUP2 PUSH2 0x10DC JUMP JUMPDEST SWAP6 POP POP DUP1 DUP7 DUP5 DUP2 MLOAD DUP2 LT PUSH2 0x592 JUMPI PUSH2 0x592 PUSH2 0x1048 JUMP JUMPDEST PUSH1 0x20 MUL PUSH1 0x20 ADD ADD DUP2 SWAP1 MSTORE POP DUP3 PUSH32 0x56772279E3E927B0C0A816F15F5C6995556C9A872AAA97FD48FF80A27811FEF DUP3 PUSH1 0x40 MLOAD PUSH2 0x5CD SWAP2 SWAP1 PUSH2 0x111B JUMP JUMPDEST PUSH1 0x40 MLOAD DUP1 SWAP2 SUB SWAP1 LOG2 PUSH1 0x40 MLOAD PUSH3 0x461BCD PUSH1 0xE5 SHL DUP2 MSTORE PUSH1 0x20 PUSH1 0x4 DUP3 ADD MSTORE PUSH1 0x10 PUSH1 0x24 DUP3 ADD MSTORE PUSH16 0x13DC195C985D1A5BDB8819985A5B1959 PUSH1 0x82 SHL PUSH1 0x44 DUP3 ADD MSTORE PUSH1 0x0 SWAP8 POP PUSH1 0x64 ADD PUSH2 0x319 JUMP JUMPDEST DUP1 DUP7 DUP5 DUP2 MLOAD DUP2 LT PUSH2 0x627 JUMPI PUSH2 0x627 PUSH2 0x1048 JUMP JUMPDEST PUSH1 0x20 MUL PUSH1 0x20 ADD ADD DUP2 SWAP1 MSTORE POP POP POP DUP1 DUP1 PUSH2 0x63F SWAP1 PUSH2 0x10DC JUMP JUMPDEST SWAP2 POP POP PUSH2 0x4A0 JUMP JUMPDEST POP PUSH1 0x2 DUP1 SLOAD SWAP1 PUSH1 0x0 PUSH2 0x658 DUP4 PUSH2 0x10DC JUMP JUMPDEST SWAP1 SWAP2 SSTORE POP POP CALLER PUSH1 0x0 SWAP1 DUP2 MSTORE PUSH1 0x3 PUSH1 0x20 MSTORE PUSH1 0x40 DUP2 KECCAK256 DUP1 SLOAD SWAP2 PUSH2 0x678 DUP4 PUSH2 0x10DC JUMP JUMPDEST SWAP2 SWAP1 POP SSTORE POP DUP1 CALLVALUE GT ISZERO PUSH2 0x716 JUMPI PUSH1 0x0 CALLER PUSH2 0x692 DUP4 CALLVALUE PUSH2 0x112E JUMP JUMPDEST PUSH1 0x40 MLOAD PUSH1 0x0 DUP2 DUP2 DUP2 DUP6 DUP8 GAS CALL SWAP3 POP POP POP RETURNDATASIZE DUP1 PUSH1 0x0 DUP2 EQ PUSH2 0x6CE JUMPI PUSH1 0x40 MLOAD SWAP2 POP PUSH1 0x1F NOT PUSH1 0x3F RETURNDATASIZE ADD AND DUP3 ADD PUSH1 0x40 MSTORE RETURNDATASIZE DUP3 MSTORE RETURNDATASIZE PUSH1 0x0 PUSH1 0x20 DUP5 ADD RETURNDATACOPY PUSH2 0x6D3 JUMP JUMPDEST PUSH1 0x60 SWAP2 POP JUMPDEST POP POP SWAP1 POP DUP1 PUSH2 0x714 JUMPI PUSH1 0x40 MLOAD PUSH3 0x461BCD PUSH1 0xE5 SHL DUP2 MSTORE PUSH1 0x20 PUSH1 0x4 DUP3 ADD MSTORE PUSH1 0xD PUSH1 0x24 DUP3 ADD MSTORE PUSH13 0x1499599D5B990819985A5B1959 PUSH1 0x9A SHL PUSH1 0x44 DUP3 ADD MSTORE PUSH1 0x64 ADD PUSH2 0x319 JUMP JUMPDEST POP JUMPDEST PUSH1 0x40 DUP1 MLOAD DUP11 DUP2 MSTORE DUP6 ISZERO ISZERO PUSH1 0x20 DUP3 ADD MSTORE CALLER SWAP2 PUSH32 0xD9774237CF939B608DE5425A7D921B83ED370CD9D259BCAC847D76664A3E6C1B SWAP2 ADD PUSH1 0x40 MLOAD DUP1 SWAP2 SUB SWAP1 LOG2 POP POP POP PUSH2 0x75E PUSH1 0x1 DUP1 SSTORE JUMP JUMPDEST SWAP7 SWAP6 POP POP POP POP POP POP JUMP JUMPDEST PUSH2 0x770 PUSH2 0xD1E JUMP JUMPDEST PUSH2 0x77A PUSH1 0x0 PUSH2 0xD4B JUMP JUMPDEST JUMP JUMPDEST PUSH2 0x7A2 PUSH1 0x40 MLOAD DUP1 PUSH1 0x60 ADD PUSH1 0x40 MSTORE DUP1 PUSH1 0x0 ISZERO ISZERO DUP2 MSTORE PUSH1 0x20 ADD PUSH1 0x60 DUP2 MSTORE PUSH1 0x20 ADD PUSH1 0x0 DUP2 MSTORE POP SWAP1 JUMP JUMPDEST PUSH2 0x7AA PUSH2 0xCF4 JUMP JUMPDEST DUP3 PUSH2 0x7F0 JUMPI PUSH1 0x40 MLOAD PUSH3 0x461BCD PUSH1 0xE5 SHL DUP2 MSTORE PUSH1 0x20 PUSH1 0x4 DUP3 ADD MSTORE PUSH1 0x16 PUSH1 0x24 DUP3 ADD MSTORE PUSH22 0x139BC81BDC195C985D1A5BDB9CC81C1C9BDD9A591959 PUSH1 0x52 SHL PUSH1 0x44 DUP3 ADD MSTORE PUSH1 0x64 ADD PUSH2 0x319 JUMP JUMPDEST PUSH1 0x32 DUP4 GT ISZERO PUSH2 0x841 JUMPI PUSH1 0x40 MLOAD PUSH3 0x461BCD PUSH1 0xE5 SHL DUP2 MSTORE PUSH1 0x20 PUSH1 0x4 DUP3 ADD MSTORE PUSH1 0x1C PUSH1 0x24 DUP3 ADD MSTORE PUSH32 0x546F6F206D616E79206F7065726174696F6E7320286D61782035302900000000 PUSH1 0x44 DUP3 ADD MSTORE PUSH1 0x64 ADD PUSH2 0x319 JUMP JUMPDEST DUP3 PUSH8 0xFFFFFFFFFFFFFFFF DUP2 GT ISZERO PUSH2 0x85A JUMPI PUSH2 0x85A PUSH2 0x10F5 JUMP JUMPDEST PUSH1 0x40 MLOAD SWAP1 DUP1 DUP3 MSTORE DUP1 PUSH1 0x20 MUL PUSH1 0x20 ADD DUP3 ADD PUSH1 0x40 MSTORE DUP1 ISZERO PUSH2 0x88D JUMPI DUP2 PUSH1 0x20 ADD JUMPDEST PUSH1 0x60 DUP2 MSTORE PUSH1 0x20 ADD SWAP1 PUSH1 0x1 SWAP1 SUB SWAP1 DUP2 PUSH2 0x878 JUMPI SWAP1 POP JUMPDEST POP PUSH1 0x20 DUP3 ADD MSTORE PUSH1 0x0 PUSH1 0x40 DUP3 ADD DUP2 SWAP1 MSTORE PUSH1 0x1 DUP3 MSTORE DUP1 JUMPDEST DUP5 DUP2 LT ISZERO PUSH2 0x8F0 JUMPI DUP6 DUP6 DUP3 DUP2 DUP2 LT PUSH2 0x8BC JUMPI PUSH2 0x8BC PUSH2 0x1048 JUMP JUMPDEST SWAP1 POP PUSH1 0x20 MUL DUP2 ADD SWAP1 PUSH2 0x8CE SWAP2 SWAP1 PUSH2 0x105E JUMP JUMPDEST PUSH2 0x8DC SWAP1 PUSH1 0x20 ADD CALLDATALOAD DUP4 PUSH2 0x1035 JUMP JUMPDEST SWAP2 POP DUP1 PUSH2 0x8E8 DUP2 PUSH2 0x10DC JUMP JUMPDEST SWAP2 POP POP PUSH2 0x8A2 JUMP JUMPDEST POP DUP1 CALLVALUE LT ISZERO PUSH2 0x939 JUMPI PUSH1 0x40 MLOAD PUSH3 0x461BCD PUSH1 0xE5 SHL DUP2 MSTORE PUSH1 0x20 PUSH1 0x4 DUP3 ADD MSTORE PUSH1 0x15 PUSH1 0x24 DUP3 ADD MSTORE PUSH21 0x125B9CDD59999A58DA595B9D08115512081CD95B9D PUSH1 0x5A SHL PUSH1 0x44 DUP3 ADD MSTORE PUSH1 0x64 ADD PUSH2 0x319 JUMP JUMPDEST PUSH1 0x0 JUMPDEST DUP5 DUP2 LT ISZERO PUSH2 0xAF9 JUMPI CALLDATASIZE DUP7 DUP7 DUP4 DUP2 DUP2 LT PUSH2 0x957 JUMPI PUSH2 0x957 PUSH2 0x1048 JUMP JUMPDEST SWAP1 POP PUSH1 0x20 MUL DUP2 ADD SWAP1 PUSH2 0x969 SWAP2 SWAP1 PUSH2 0x105E JUMP JUMPDEST SWAP1 POP PUSH1 0x0 DUP1 PUSH2 0x97B PUSH1 0x20 DUP5 ADD DUP5 PUSH2 0xE29 JUMP JUMPDEST PUSH1 0x1 PUSH1 0x1 PUSH1 0xA0 SHL SUB AND PUSH1 0x20 DUP5 ADD CALLDATALOAD PUSH2 0x996 PUSH1 0x40 DUP7 ADD DUP7 PUSH2 0x107E JUMP JUMPDEST PUSH1 0x40 MLOAD PUSH2 0x9A4 SWAP3 SWAP2 SWAP1 PUSH2 0x110B JUMP JUMPDEST PUSH1 0x0 PUSH1 0x40 MLOAD DUP1 DUP4 SUB DUP2 DUP6 DUP8 GAS CALL SWAP3 POP POP POP RETURNDATASIZE DUP1 PUSH1 0x0 DUP2 EQ PUSH2 0x9E1 JUMPI PUSH1 0x40 MLOAD SWAP2 POP PUSH1 0x1F NOT PUSH1 0x3F RETURNDATASIZE ADD AND DUP3 ADD PUSH1 0x40 MSTORE RETURNDATASIZE DUP3 MSTORE RETURNDATASIZE PUSH1 0x0 PUSH1 0x20 DUP5 ADD RETURNDATACOPY PUSH2 0x9E6 JUMP JUMPDEST PUSH1 0x60 SWAP2 POP JUMPDEST POP SWAP2 POP SWAP2 POP DUP2 PUSH2 0xAC0 JUMPI PUSH1 0x40 DUP7 ADD DUP1 MLOAD SWAP1 PUSH2 0xA00 DUP3 PUSH2 0x10DC JUMP JUMPDEST DUP2 MSTORE POP POP DUP1 DUP7 PUSH1 0x20 ADD MLOAD DUP6 DUP2 MLOAD DUP2 LT PUSH2 0xA1B JUMPI PUSH2 0xA1B PUSH2 0x1048 JUMP JUMPDEST PUSH1 0x20 MUL PUSH1 0x20 ADD ADD DUP2 SWAP1 MSTORE POP DUP4 PUSH32 0x56772279E3E927B0C0A816F15F5C6995556C9A872AAA97FD48FF80A27811FEF DUP3 PUSH1 0x40 MLOAD PUSH2 0xA56 SWAP2 SWAP1 PUSH2 0x111B JUMP JUMPDEST PUSH1 0x40 MLOAD DUP1 SWAP2 SUB SWAP1 LOG2 DUP7 DUP1 PUSH2 0xA77 JUMPI POP PUSH2 0xA75 PUSH1 0x80 DUP5 ADD PUSH1 0x60 DUP6 ADD PUSH2 0x1141 JUMP JUMPDEST ISZERO JUMPDEST ISZERO PUSH2 0xAB7 JUMPI PUSH1 0x40 MLOAD PUSH3 0x461BCD PUSH1 0xE5 SHL DUP2 MSTORE PUSH1 0x20 PUSH1 0x4 DUP3 ADD MSTORE PUSH1 0x10 PUSH1 0x24 DUP3 ADD MSTORE PUSH16 0x13DC195C985D1A5BDB8819985A5B1959 PUSH1 0x82 SHL PUSH1 0x44 DUP3 ADD MSTORE PUSH1 0x64 ADD PUSH2 0x319 JUMP JUMPDEST PUSH1 0x0 DUP7 MSTORE PUSH2 0xAE3 JUMP JUMPDEST DUP1 DUP7 PUSH1 0x20 ADD MLOAD DUP6 DUP2 MLOAD DUP2 LT PUSH2 0xAD7 JUMPI PUSH2 0xAD7 PUSH2 0x1048 JUMP JUMPDEST PUSH1 0x20 MUL PUSH1 0x20 ADD ADD DUP2 SWAP1 MSTORE POP JUMPDEST POP POP POP DUP1 DUP1 PUSH2 0xAF1 SWAP1 PUSH2 0x10DC JUMP JUMPDEST SWAP2 POP POP PUSH2 0x93C JUMP JUMPDEST POP PUSH1 0x2 DUP1 SLOAD SWAP1 PUSH1 0x0 PUSH2 0xB0A DUP4 PUSH2 0x10DC JUMP JUMPDEST SWAP1 SWAP2 SSTORE POP POP CALLER PUSH1 0x0 SWAP1 DUP2 MSTORE PUSH1 0x3 PUSH1 0x20 MSTORE PUSH1 0x40 DUP2 KECCAK256 DUP1 SLOAD SWAP2 PUSH2 0xB2A DUP4 PUSH2 0x10DC JUMP JUMPDEST SWAP2 SWAP1 POP SSTORE POP DUP1 CALLVALUE GT ISZERO PUSH2 0xBC8 JUMPI PUSH1 0x0 CALLER PUSH2 0xB44 DUP4 CALLVALUE PUSH2 0x112E JUMP JUMPDEST PUSH1 0x40 MLOAD PUSH1 0x0 DUP2 DUP2 DUP2 DUP6 DUP8 GAS CALL SWAP3 POP POP POP RETURNDATASIZE DUP1 PUSH1 0x0 DUP2 EQ PUSH2 0xB80 JUMPI PUSH1 0x40 MLOAD SWAP2 POP PUSH1 0x1F NOT PUSH1 0x3F RETURNDATASIZE ADD AND DUP3 ADD PUSH1 0x40 MSTORE RETURNDATASIZE DUP3 MSTORE RETURNDATASIZE PUSH1 0x0 PUSH1 0x20 DUP5 ADD RETURNDATACOPY PUSH2 0xB85 JUMP JUMPDEST PUSH1 0x60 SWAP2 POP JUMPDEST POP POP SWAP1 POP DUP1 PUSH2 0xBC6 JUMPI PUSH1 0x40 MLOAD PUSH3 0x461BCD PUSH1 0xE5 SHL DUP2 MSTORE PUSH1 0x20 PUSH1 0x4 DUP3 ADD MSTORE PUSH1 0xD PUSH1 0x24 DUP3 ADD MSTORE PUSH13 0x1499599D5B990819985A5B1959 PUSH1 0x9A SHL PUSH1 0x44 DUP3 ADD MSTORE PUSH1 0x64 ADD PUSH2 0x319 JUMP JUMPDEST POP JUMPDEST DUP2 MLOAD PUSH1 0x40 DUP1 MLOAD DUP7 DUP2 MSTORE SWAP2 ISZERO ISZERO PUSH1 0x20 DUP4 ADD MSTORE CALLER SWAP2 PUSH32 0xD9774237CF939B608DE5425A7D921B83ED370CD9D259BCAC847D76664A3E6C1B SWAP2 ADD PUSH1 0x40 MLOAD DUP1 SWAP2 SUB SWAP1 LOG2 POP PUSH2 0xC10 PUSH1 0x1 DUP1 SSTORE JUMP JUMPDEST SWAP4 SWAP3 POP POP POP JUMP JUMPDEST PUSH2 0xC1F PUSH2 0xD1E JUMP JUMPDEST PUSH1 0x0 DUP1 SLOAD PUSH1 0x40 MLOAD PUSH1 0x1 PUSH1 0x1 PUSH1 0xA0 SHL SUB SWAP1 SWAP2 AND SWAP1 SELFBALANCE SWAP1 DUP4 DUP2 DUP2 DUP2 DUP6 DUP8 GAS CALL SWAP3 POP POP POP RETURNDATASIZE DUP1 PUSH1 0x0 DUP2 EQ PUSH2 0xC6C JUMPI PUSH1 0x40 MLOAD SWAP2 POP PUSH1 0x1F NOT PUSH1 0x3F RETURNDATASIZE ADD AND DUP3 ADD PUSH1 0x40 MSTORE RETURNDATASIZE DUP3 MSTORE RETURNDATASIZE PUSH1 0x0 PUSH1 0x20 DUP5 ADD RETURNDATACOPY PUSH2 0xC71 JUMP JUMPDEST PUSH1 0x60 SWAP2 POP JUMPDEST POP POP SWAP1 POP DUP1 PUSH2 0xCB6 JUMPI PUSH1 0x40 MLOAD PUSH3 0x461BCD PUSH1 0xE5 SHL DUP2 MSTORE PUSH1 0x20 PUSH1 0x4 DUP3 ADD MSTORE PUSH1 0x11 PUSH1 0x24 DUP3 ADD MSTORE PUSH17 0x15DA5D1A191C985DD85B0819985A5B1959 PUSH1 0x7A SHL PUSH1 0x44 DUP3 ADD MSTORE PUSH1 0x64 ADD PUSH2 0x319 JUMP JUMPDEST POP JUMP JUMPDEST PUSH2 0xCC1 PUSH2 0xD1E JUMP JUMPDEST PUSH1 0x1 PUSH1 0x1 PUSH1 0xA0 SHL SUB DUP2 AND PUSH2 0xCEB JUMPI PUSH1 0x40 MLOAD PUSH4 0x1E4FBDF7 PUSH1 0xE0 SHL DUP2 MSTORE PUSH1 0x0 PUSH1 0x4 DUP3 ADD MSTORE PUSH1 0x24 ADD PUSH2 0x319 JUMP JUMPDEST PUSH2 0xCB6 DUP2 PUSH2 0xD4B JUMP JUMPDEST PUSH1 0x2 PUSH1 0x1 SLOAD SUB PUSH2 0xD17 JUMPI PUSH1 0x40 MLOAD PUSH4 0x3EE5AEB5 PUSH1 0xE0 SHL DUP2 MSTORE PUSH1 0x4 ADD PUSH1 0x40 MLOAD DUP1 SWAP2 SUB SWAP1 REVERT JUMPDEST PUSH1 0x2 PUSH1 0x1 SSTORE JUMP JUMPDEST PUSH1 0x0 SLOAD PUSH1 0x1 PUSH1 0x1 PUSH1 0xA0 SHL SUB AND CALLER EQ PUSH2 0x77A JUMPI PUSH1 0x40 MLOAD PUSH4 0x118CDAA7 PUSH1 0xE0 SHL DUP2 MSTORE CALLER PUSH1 0x4 DUP3 ADD MSTORE PUSH1 0x24 ADD PUSH2 0x319 JUMP JUMPDEST PUSH1 0x0 DUP1 SLOAD PUSH1 0x1 PUSH1 0x1 PUSH1 0xA0 SHL SUB DUP4 DUP2 AND PUSH1 0x1 PUSH1 0x1 PUSH1 0xA0 SHL SUB NOT DUP4 AND DUP2 OR DUP5 SSTORE PUSH1 0x40 MLOAD SWAP2 SWAP1 SWAP3 AND SWAP3 DUP4 SWAP2 PUSH32 0x8BE0079C531659141344CD1FD0A4F28419497F9722A3DAAFE3B4186F6B6457E0 SWAP2 SWAP1 LOG3 POP POP JUMP JUMPDEST PUSH1 0x0 DUP1 DUP4 PUSH1 0x1F DUP5 ADD SLT PUSH2 0xDAD JUMPI PUSH1 0x0 DUP1 REVERT JUMPDEST POP DUP2 CALLDATALOAD PUSH8 0xFFFFFFFFFFFFFFFF DUP2 GT ISZERO PUSH2 0xDC5 JUMPI PUSH1 0x0 DUP1 REVERT JUMPDEST PUSH1 0x20 DUP4 ADD SWAP2 POP DUP4 PUSH1 0x20 DUP3 PUSH1 0x5 SHL DUP6 ADD ADD GT ISZERO PUSH2 0xDE0 JUMPI PUSH1 0x0 DUP1 REVERT JUMPDEST SWAP3 POP SWAP3 SWAP1 POP JUMP JUMPDEST PUSH1 0x0 DUP1 PUSH1 0x20 DUP4 DUP6 SUB SLT ISZERO PUSH2 0xDFA JUMPI PUSH1 0x0 DUP1 REVERT JUMPDEST DUP3 CALLDATALOAD PUSH8 0xFFFFFFFFFFFFFFFF DUP2 GT ISZERO PUSH2 0xE11 JUMPI PUSH1 0x0 DUP1 REVERT JUMPDEST PUSH2 0xE1D DUP6 DUP3 DUP7 ADD PUSH2 0xD9B JUMP JUMPDEST SWAP1 SWAP7 SWAP1 SWAP6 POP SWAP4 POP POP POP POP JUMP JUMPDEST PUSH1 0x0 PUSH1 0x20 DUP3 DUP5 SUB SLT ISZERO PUSH2 0xE3B JUMPI PUSH1 0x0 DUP1 REVERT JUMPDEST DUP2 CALLDATALOAD PUSH1 0x1 PUSH1 0x1 PUSH1 0xA0 SHL SUB DUP2 AND DUP2 EQ PUSH2 0xC10 JUMPI PUSH1 0x0 DUP1 REVERT JUMPDEST PUSH1 0x0 DUP1 PUSH1 0x0 DUP1 PUSH1 0x0 DUP1 PUSH1 0x60 DUP8 DUP10 SUB SLT ISZERO PUSH2 0xE6B JUMPI PUSH1 0x0 DUP1 REVERT JUMPDEST DUP7 CALLDATALOAD PUSH8 0xFFFFFFFFFFFFFFFF DUP1 DUP3 GT ISZERO PUSH2 0xE83 JUMPI PUSH1 0x0 DUP1 REVERT JUMPDEST PUSH2 0xE8F DUP11 DUP4 DUP12 ADD PUSH2 0xD9B JUMP JUMPDEST SWAP1 SWAP9 POP SWAP7 POP PUSH1 0x20 DUP10 ADD CALLDATALOAD SWAP2 POP DUP1 DUP3 GT ISZERO PUSH2 0xEA8 JUMPI PUSH1 0x0 DUP1 REVERT JUMPDEST PUSH2 0xEB4 DUP11 DUP4 DUP12 ADD PUSH2 0xD9B JUMP JUMPDEST SWAP1 SWAP7 POP SWAP5 POP PUSH1 0x40 DUP10 ADD CALLDATALOAD SWAP2 POP DUP1 DUP3 GT ISZERO PUSH2 0xECD JUMPI PUSH1 0x0 DUP1 REVERT JUMPDEST POP PUSH2 0xEDA DUP10 DUP3 DUP11 ADD PUSH2 0xD9B JUMP JUMPDEST SWAP8 SWAP11 SWAP7 SWAP10 POP SWAP5 SWAP8 POP SWAP3 SWAP6 SWAP4 SWAP5 SWAP3 POP POP POP JUMP JUMPDEST DUP1 CALLDATALOAD DUP1 ISZERO ISZERO DUP2 EQ PUSH2 0xEFC JUMPI PUSH1 0x0 DUP1 REVERT JUMPDEST SWAP2 SWAP1 POP JUMP JUMPDEST PUSH1 0x0 DUP1 PUSH1 0x0 PUSH1 0x40 DUP5 DUP7 SUB SLT ISZERO PUSH2 0xF16 JUMPI PUSH1 0x0 DUP1 REVERT JUMPDEST DUP4 CALLDATALOAD PUSH8 0xFFFFFFFFFFFFFFFF DUP2 GT ISZERO PUSH2 0xF2D JUMPI PUSH1 0x0 DUP1 REVERT JUMPDEST PUSH2 0xF39 DUP7 DUP3 DUP8 ADD PUSH2 0xD9B JUMP JUMPDEST SWAP1 SWAP5 POP SWAP3 POP PUSH2 0xF4C SWAP1 POP PUSH1 0x20 DUP6 ADD PUSH2 0xEEC JUMP JUMPDEST SWAP1 POP SWAP3 POP SWAP3 POP SWAP3 JUMP JUMPDEST PUSH1 0x0 DUP2 MLOAD DUP1 DUP5 MSTORE PUSH1 0x0 JUMPDEST DUP2 DUP2 LT ISZERO PUSH2 0xF7B JUMPI PUSH1 0x20 DUP2 DUP6 ADD DUP2 ADD MLOAD DUP7 DUP4 ADD DUP3 ADD MSTORE ADD PUSH2 0xF5F JUMP JUMPDEST POP PUSH1 0x0 PUSH1 0x20 DUP3 DUP7 ADD ADD MSTORE PUSH1 0x20 PUSH1 0x1F NOT PUSH1 0x1F DUP4 ADD AND DUP6 ADD ADD SWAP2 POP POP SWAP3 SWAP2 POP POP JUMP JUMPDEST PUSH1 0x0 PUSH1 0x20 DUP1 DUP4 MSTORE PUSH1 0x80 DUP4 ADD DUP5 MLOAD ISZERO ISZERO DUP3 DUP6 ADD MSTORE DUP2 DUP6 ADD MLOAD PUSH1 0x60 PUSH1 0x40 DUP7 ADD MSTORE DUP2 DUP2 MLOAD DUP1 DUP5 MSTORE PUSH1 0xA0 DUP8 ADD SWAP2 POP PUSH1 0xA0 DUP2 PUSH1 0x5 SHL DUP9 ADD ADD SWAP4 POP DUP5 DUP4 ADD SWAP3 POP PUSH1 0x0 JUMPDEST DUP2 DUP2 LT ISZERO PUSH2 0x1006 JUMPI PUSH1 0x9F NOT DUP9 DUP7 SUB ADD DUP4 MSTORE PUSH2 0xFF4 DUP6 DUP6 MLOAD PUSH2 0xF55 JUMP JUMPDEST SWAP5 POP SWAP3 DUP6 ADD SWAP3 SWAP2 DUP6 ADD SWAP2 PUSH1 0x1 ADD PUSH2 0xFD8 JUMP JUMPDEST POP POP POP POP PUSH1 0x40 DUP6 ADD MLOAD PUSH1 0x60 DUP6 ADD MSTORE DUP1 SWAP3 POP POP POP SWAP3 SWAP2 POP POP JUMP JUMPDEST PUSH4 0x4E487B71 PUSH1 0xE0 SHL PUSH1 0x0 MSTORE PUSH1 0x11 PUSH1 0x4 MSTORE PUSH1 0x24 PUSH1 0x0 REVERT JUMPDEST DUP1 DUP3 ADD DUP1 DUP3 GT ISZERO PUSH2 0x2BB JUMPI PUSH2 0x2BB PUSH2 0x101F JUMP JUMPDEST PUSH4 0x4E487B71 PUSH1 0xE0 SHL PUSH1 0x0 MSTORE PUSH1 0x32 PUSH1 0x4 MSTORE PUSH1 0x24 PUSH1 0x0 REVERT JUMPDEST PUSH1 0x0 DUP3 CALLDATALOAD PUSH1 0x7E NOT DUP4 CALLDATASIZE SUB ADD DUP2 SLT PUSH2 0x1074 JUMPI PUSH1 0x0 DUP1 REVERT JUMPDEST SWAP2 SWAP1 SWAP2 ADD SWAP3 SWAP2 POP POP JUMP JUMPDEST PUSH1 0x0 DUP1 DUP4 CALLDATALOAD PUSH1 0x1E NOT DUP5 CALLDATASIZE SUB ADD DUP2 SLT PUSH2 0x1095 JUMPI PUSH1 0x0 DUP1 REVERT JUMPDEST DUP4 ADD DUP1 CALLDATALOAD SWAP2 POP PUSH8 0xFFFFFFFFFFFFFFFF DUP3 GT ISZERO PUSH2 0x10B0 JUMPI PUSH1 0x0 DUP1 REVERT JUMPDEST PUSH1 0x20 ADD SWAP2 POP CALLDATASIZE DUP2 SWAP1 SUB DUP3 SGT ISZERO PUSH2 0xDE0 JUMPI PUSH1 0x0 DUP1 REVERT JUMPDEST DUP1 DUP3 MUL DUP2 ISZERO DUP3 DUP3 DIV DUP5 EQ OR PUSH2 0x2BB JUMPI PUSH2 0x2BB PUSH2 0x101F JUMP JUMPDEST PUSH1 0x0 PUSH1 0x1 DUP3 ADD PUSH2 0x10EE JUMPI PUSH2 0x10EE PUSH2 0x101F JUMP JUMPDEST POP PUSH1 0x1 ADD SWAP1 JUMP JUMPDEST PUSH4 0x4E487B71 PUSH1 0xE0 SHL PUSH1 0x0 MSTORE PUSH1 0x41 PUSH1 0x4 MSTORE PUSH1 0x24 PUSH1 0x0 REVERT JUMPDEST DUP2 DUP4 DUP3 CALLDATACOPY PUSH1 0x0 SWAP2 ADD SWAP1 DUP2 MSTORE SWAP2 SWAP1 POP JUMP JUMPDEST PUSH1 0x20 DUP2 MSTORE PUSH1 0x0 PUSH2 0xC10 PUSH1 0x20 DUP4 ADD DUP5 PUSH2 0xF55 JUMP JUMPDEST DUP2 DUP2 SUB DUP2 DUP2 GT ISZERO PUSH2 0x2BB JUMPI PUSH2 0x2BB PUSH2 0x101F JUMP JUMPDEST PUSH1 0x0 PUSH1 0x20 DUP3 DUP5 SUB SLT ISZERO PUSH2 0x1153 JUMPI PUSH1 0x0 DUP1 REVERT JUMPDEST PUSH2 0xC10 DUP3 PUSH2 0xEEC JUMP INVALID LOG2 PUSH5 0x6970667358 0x22 SLT KECCAK256 SWAP10 GASPRICE PUSH2 0x6BCA 0xD7 0x2C MSTORE8 SWAP7 SWAP15 CALLDATACOPY REVERT 0xEE PC MULMOD MSIZE DELEGATECALL 0xDD 0xA7 SWAP14 MULMOD 0x27 PUSH14 0x759A23DDD77CADEA8564736F6C63 NUMBER STOP ADDMOD EQ STOP CALLER "},"methodIdentifiers":{"estimateGas((address,uint256,bytes,bool)[])":"2251a53a","executeBatch((address,uint256,bytes,bool)[],bool)":"b091e253","executeBatchSimple(address[],uint256[],bytes[])":"53db9baa","getUserStats(address)":"4e43603a","owner()":"8da5cb5b","renounceOwnership()":"715018a6","totalBatchesExecuted()":"63b43494","transferOwnership(address)":"f2fde38b","userBatchCount(address)":"fdb2e681","withdrawETH()":"e086e5ec"}}}}}