{"contracts/ScheduledTransactions.sol":{"ScheduledTransactions":{"abi":[{"inputs":[],"stateMutability":"nonpayable","type":"constructor"},{"inputs":[{"internalType":"address","name":"owner","type":"address"}],"name":"OwnableInvalidOwner","type":"error"},{"inputs":[{"internalType":"address","name":"account","type":"address"}],"name":"OwnableUnauthorizedAccount","type":"error"},{"inputs":[],"name":"ReentrancyGuardReentrantCall","type":"error"},{"anonymous":false,"inputs":[{"indexed":true,"internalType":"address","name":"previousOwner","type":"address"},{"indexed":true,"internalType":"address","name":"newOwner","type":"address"}],"name":"OwnershipTransferred","type":"event"},{"anonymous":false,"inputs":[{"indexed":true,"internalType":"uint256","name":"scheduleId","type":"uint256"}],"name":"TransactionCancelled","type":"event"},{"anonymous":false,"inputs":[{"indexed":true,"internalType":"uint256","name":"scheduleId","type":"uint256"},{"indexed":false,"internalType":"bool","name":"success","type":"bool"}],"name":"TransactionExecuted","type":"event"},{"anonymous":false,"inputs":[{"indexed":true,"internalType":"uint256","name":"scheduleId","type":"uint256"},{"indexed":false,"internalType":"bytes","name":"reason","type":"bytes"}],"name":"TransactionFailed","type":"event"},{"anonymous":false,"inputs":[{"indexed":true,"internalType":"uint256","name":"scheduleId","type":"uint256"},{"indexed":true,"internalType":"address","name":"creator","type":"address"},{"indexed":false,"internalType":"address","name":"target","type":"address"},{"indexed":false,"internalType":"uint256","name":"executeAfter","type":"uint256"},{"indexed":false,"internalType":"string","name":"description","type":"string"}],"name":"TransactionScheduled","type":"event"},{"inputs":[{"internalType":"uint256","name":"scheduleId","type":"uint256"}],"name":"cancelScheduledTransaction","outputs":[],"stateMutability":"nonpayable","type":"function"},{"inputs":[],"name":"defaultWindow","outputs":[{"internalType":"uint256","name":"","type":"uint256"}],"stateMutability":"view","type":"function"},{"inputs":[{"internalType":"uint256","name":"scheduleId","type":"uint256"}],"name":"executeScheduledTransaction","outputs":[{"internalType":"bool","name":"success","type":"bool"}],"stateMutability":"nonpayable","type":"function"},{"inputs":[{"internalType":"address","name":"user","type":"address"}],"name":"getPendingSchedulesCount","outputs":[{"internalType":"uint256","name":"count","type":"uint256"}],"stateMutability":"view","type":"function"},{"inputs":[{"internalType":"uint256","name":"scheduleId","type":"uint256"}],"name":"getSchedule","outputs":[{"components":[{"internalType":"uint256","name":"id","type":"uint256"},{"internalType":"address","name":"creator","type":"address"},{"internalType":"address","name":"target","type":"address"},{"internalType":"uint256","name":"value","type":"uint256"},{"internalType":"bytes","name":"data","type":"bytes"},{"internalType":"uint256","name":"executeAfter","type":"uint256"},{"internalType":"uint256","name":"executeWindow","type":"uint256"},{"internalType":"enum ScheduledTransactions.ScheduleStatus","name":"status","type":"uint8"},{"internalType":"string","name":"description","type":"string"},{"internalType":"uint256","name":"createdAt","type":"uint256"},{"internalType":"uint256","name":"executedAt","type":"uint256"}],"internalType":"struct ScheduledTransactions.ScheduledTx","name":"schedule","type":"tuple"}],"stateMutability":"view","type":"function"},{"inputs":[{"internalType":"address","name":"user","type":"address"}],"name":"getUserSchedules","outputs":[{"internalType":"uint256[]","name":"scheduleIds","type":"uint256[]"}],"stateMutability":"view","type":"function"},{"inputs":[{"internalType":"uint256","name":"scheduleId","type":"uint256"}],"name":"isReadyToExecute","outputs":[{"internalType":"bool","name":"ready","type":"bool"}],"stateMutability":"view","type":"function"},{"inputs":[],"name":"maxDelay","outputs":[{"internalType":"uint256","name":"","type":"uint256"}],"stateMutability":"view","type":"function"},{"inputs":[],"name":"minDelay","outputs":[{"internalType":"uint256","name":"","type":"uint256"}],"stateMutability":"view","type":"function"},{"inputs":[],"name":"nextScheduleId","outputs":[{"internalType":"uint256","name":"","type":"uint256"}],"stateMutability":"view","type":"function"},{"inputs":[],"name":"owner","outputs":[{"internalType":"address","name":"","type":"address"}],"stateMutability":"view","type":"function"},{"inputs":[],"name":"renounceOwnership","outputs":[],"stateMutability":"nonpayable","type":"function"},{"inputs":[{"internalType":"address","name":"target","type":"address"},{"internalType":"uint256","name":"value","type":"uint256"},{"internalType":"bytes","name":"data","type":"bytes"},{"internalType":"uint256","name":"executeAfter","type":"uint256"},{"internalType":"uint256","name":"executeWindow","type":"uint256"},{"internalType":"string","name":"description","type":"string"}],"name":"scheduleTransaction","outputs":[{"internalType":"uint256","name":"scheduleId","type":"uint256"}],"stateMutability":"payable","type":"function"},{"inputs":[{"internalType":"address payable","name":"recipient","type":"address"},{"internalType":"uint256","name":"amount","type":"uint256"},{"internalType":"uint256","name":"executeAfter","type":"uint256"},{"internalType":"string","name":"description","type":"string"}],"name":"scheduleTransfer","outputs":[{"internalType":"uint256","name":"scheduleId","type":"uint256"}],"stateMutability":"payable","type":"function"},{"inputs":[{"internalType":"uint256","name":"","type":"uint256"}],"name":"scheduledTransactions","outputs":[{"internalType":"uint256","name":"id","type":"uint256"},{"internalType":"address","name":"creator","type":"address"},{"internalType":"address","name":"target","type":"address"},{"internalType":"uint256","name":"value","type":"uint256"},{"internalType":"bytes","name":"data","type":"bytes"},{"internalType":"uint256","name":"executeAfter","type":"uint256"},{"internalType":"uint256","name":"executeWindow","type":"uint256"},{"internalType":"enum ScheduledTransactions.ScheduleStatus","name":"status","type":"uint8"},{"internalType":"string","name":"description","type":"string"},{"internalType":"uint256","name":"createdAt","type":"uint256"},{"internalType":"uint256","name":"executedAt","type":"uint256"}],"stateMutability":"view","type":"function"},{"inputs":[{"internalType":"uint256","name":"newMaxDelay","type":"uint256"}],"name":"setMaxDelay","outputs":[],"stateMutability":"nonpayable","type":"function"},{"inputs":[{"internalType":"uint256","name":"newMinDelay","type":"uint256"}],"name":"setMinDelay","outputs":[],"stateMutability":"nonpayable","type":"function"},{"inputs":[{"internalType":"address","name":"newOwner","type":"address"}],"name":"transferOwnership","outputs":[],"stateMutability":"nonpayable","type":"function"},{"inputs":[{"internalType":"address","name":"","type":"address"},{"internalType":"uint256","name":"","type":"uint256"}],"name":"userSchedules","outputs":[{"internalType":"uint256","name":"","type":"uint256"}],"stateMutability":"view","type":"function"},{"inputs":[],"name":"withdrawETH","outputs":[],"stateMutability":"nonpayable","type":"function"},{"stateMutability":"payable","type":"receive"}],"evm":{"bytecode":{"linkReferences":{},"object":"60806040526001600255603c6003556301e1338060045562093a8060055534801561002957600080fd5b50338061005057604051631e4fbdf760e01b81526000600482015260240160405180910390fd5b61005981610063565b50600180556100b3565b600080546001600160a01b038381166001600160a01b0319831681178455604051919092169283917f8be0079c531659141344cd1fd0a4f28419497f9722a3daafe3b4186f6b6457e09190a35050565b61206b806100c26000396000f3fe6080604052600436106101235760003560e01c806390a85d8d116100a0578063c5ca93a711610064578063c5ca93a714610327578063c63c4e9b14610354578063e086e5ec1461036a578063ed49d2f81461037f578063f2fde38b1461039557600080fd5b806390a85d8d1461027a5780639e3f8e901461029a578063b40b223d146102ba578063ba29482f146102e7578063c11b15ca1461030757600080fd5b80634f2f9c32116100e75780634f2f9c32146101dd578063715018a6146101f057806378ee44fd14610205578063830009791461021b5780638da5cb5b1461025257600080fd5b80630f038d411461012f578063106ca3c3146101585780632774ad8e1461017a57806328dfa6151461019a5780632ab4ab3e146101ca57600080fd5b3661012a57005b600080fd5b34801561013b57600080fd5b5061014560025481565b6040519081526020015b60405180910390f35b34801561016457600080fd5b506101786101733660046119b2565b6103b5565b005b34801561018657600080fd5b506101786101953660046119b2565b610408565b3480156101a657600080fd5b506101ba6101b53660046119b2565b6105e4565b604051901515815260200161014f565b6101456101d8366004611a29565b610824565b6101456101eb366004611a93565b610bd3565b3480156101fc57600080fd5b50610178610f9b565b34801561021157600080fd5b5061014560055481565b34801561022757600080fd5b5061023b6102363660046119b2565b610faf565b60405161014f9b9a99989796959493929190611bb0565b34801561025e57600080fd5b506000546040516001600160a01b03909116815260200161014f565b34801561028657600080fd5b50610145610295366004611c35565b61112a565b3480156102a657600080fd5b506101456102b5366004611c59565b611214565b3480156102c657600080fd5b506102da6102d5366004611c35565b611245565b60405161014f9190611c85565b3480156102f357600080fd5b506101786103023660046119b2565b6112b1565b34801561031357600080fd5b506101ba6103223660046119b2565b6112fe565b34801561033357600080fd5b506103476103423660046119b2565b6115cc565b60405161014f9190611cc9565b34801561036057600080fd5b5061014560035481565b34801561037657600080fd5b506101786117b1565b34801561038b57600080fd5b5061014560045481565b3480156103a157600080fd5b506101786103b0366004611c35565b611853565b6103bd61188e565b60035481116104035760405162461bcd60e51b815260206004820152600d60248201526c496e76616c69642064656c617960981b60448201526064015b60405180910390fd5b600455565b600081815260066020526040812080549091036104615760405162461bcd60e51b815260206004820152601760248201527614d8da19591d5b1948191bd95cc81b9bdd08195e1a5cdd604a1b60448201526064016103fa565b60018101546001600160a01b031633146104ab5760405162461bcd60e51b815260206004820152600b60248201526a2737ba1031b932b0ba37b960a91b60448201526064016103fa565b6000600782015460ff1660038111156104c6576104c6611b78565b146105015760405162461bcd60e51b815260206004820152600b60248201526a4e6f742070656e64696e6760a81b60448201526064016103fa565b60078101805460ff191660021790556003810154156105b557600181015460038201546040516000926001600160a01b031691908381818185875af1925050503d806000811461056d576040519150601f19603f3d011682016040523d82523d6000602084013e610572565b606091505b50509050806105b35760405162461bcd60e51b815260206004820152600d60248201526c1499599d5b990819985a5b1959609a1b60448201526064016103fa565b505b60405182907f956fb32199d8b882b2039a14e1be35ab14f7a80b9089fc223f14b43937173e6090600090a25050565b60008181526006602090815260408083208151610160810183528154815260018201546001600160a01b03908116948201949094526002820154909316918301919091526003810154606083015260048101805484939291608084019161064a90611d94565b80601f016020809104026020016040519081016040528092919081815260200182805461067690611d94565b80156106c35780601f10610698576101008083540402835291602001916106c3565b820191906000526020600020905b8154815290600101906020018083116106a657829003601f168201915b50505091835250506005820154602082015260068201546040820152600782015460609091019060ff1660038111156106fe576106fe611b78565b600381111561070f5761070f611b78565b815260200160088201805461072390611d94565b80601f016020809104026020016040519081016040528092919081815260200182805461074f90611d94565b801561079c5780601f106107715761010080835404028352916020019161079c565b820191906000526020600020905b81548152906001019060200180831161077f57829003601f168201915b505050918352505060098201546020820152600a90910154604090910152905060008160e0015160038111156107d4576107d4611b78565b146107e25750600092915050565b8060a001514210156107f75750600092915050565b8060c001518160a0015161080b9190611de4565b42111561081b5750600092915050565b50600192915050565b60006001600160a01b0386166108705760405162461bcd60e51b8152602060048201526011602482015270125b9d985b1a59081c9958da5c1a595b9d607a1b60448201526064016103fa565b4284116108bf5760405162461bcd60e51b815260206004820181905260248201527f457865637574696f6e2074696d65206d75737420626520696e2066757475726560448201526064016103fa565b6004546108cc9042611de4565b84111561091b5760405162461bcd60e51b815260206004820181905260248201527f457865637574696f6e2074696d6520746f6f2066617220696e2066757475726560448201526064016103fa565b6003546109289042611de4565b8410156109715760405162461bcd60e51b815260206004820152601760248201527622bc32b1baba34b7b7103a34b6b2903a37b79039b7b7b760491b60448201526064016103fa565b843410156109b95760405162461bcd60e51b8152602060048201526015602482015274125b9cdd59999a58da595b9d08115512081cd95b9d605a1b60448201526064016103fa565b600280549060006109c983611dfd565b919050559050604051806101600160405280828152602001336001600160a01b03168152602001876001600160a01b0316815260200186815260200160405180604001604052806002815260200161060f60f31b8152508152602001858152602001600554815260200160006003811115610a4657610a46611b78565b815260200184848080601f01602080910402602001604051908101604052809392919081815260200183838082843760009201829052509385525050426020808501919091526040938401839052858352600681529183902084518155918401516001830180546001600160a01b03199081166001600160a01b0393841617909155938501516002840180549095169116179092556060830151600382015560808301519091506004820190610afc9082611e7b565b5060a0820151600582015560c0820151600682015560e082015160078201805460ff19166001836003811115610b3457610b34611b78565b02179055506101008201516008820190610b4e9082611e7b565b50610120820151600982015561014090910151600a90910155336000818152600760209081526040808320805460018101825590845291909220018390555182907fb413e7cac6032066462e33958e038afdee9e43aac1fb628e8053de24f9165e4590610bc2908a90899089908990611f64565b60405180910390a395945050505050565b60006001600160a01b038916610c1c5760405162461bcd60e51b815260206004820152600e60248201526d125b9d985b1a59081d185c99d95d60921b60448201526064016103fa565b428511610c6b5760405162461bcd60e51b815260206004820181905260248201527f457865637574696f6e2074696d65206d75737420626520696e2066757475726560448201526064016103fa565b600454610c789042611de4565b851115610cc75760405162461bcd60e51b815260206004820181905260248201527f457865637574696f6e2074696d6520746f6f2066617220696e2066757475726560448201526064016103fa565b600354610cd49042611de4565b851015610d1d5760405162461bcd60e51b815260206004820152601760248201527622bc32b1baba34b7b7103a34b6b2903a37b79039b7b7b760491b60448201526064016103fa565b87341015610d655760405162461bcd60e51b8152602060048201526015602482015274125b9cdd59999a58da595b9d08115512081cd95b9d605a1b60448201526064016103fa565b83600003610d735760055493505b60028054906000610d8383611dfd565b919050559050604051806101600160405280828152602001336001600160a01b031681526020018a6001600160a01b0316815260200189815260200188888080601f01602080910402602001604051908101604052809392919081815260200183838082843760009201829052509385525050506020820188905260408201879052606090910190815260200184848080601f01602080910402602001604051908101604052809392919081815260200183838082843760009201829052509385525050426020808501919091526040938401839052858352600681529183902084518155918401516001830180546001600160a01b03199081166001600160a01b0393841617909155938501516002840180549095169116179092556060830151600382015560808301519091506004820190610ec19082611e7b565b5060a0820151600582015560c0820151600682015560e082015160078201805460ff19166001836003811115610ef957610ef9611b78565b02179055506101008201516008820190610f139082611e7b565b50610120820151600982015561014090910151600a90910155336000818152600760209081526040808320805460018101825590845291909220018390555182907fb413e7cac6032066462e33958e038afdee9e43aac1fb628e8053de24f9165e4590610f87908d908a9089908990611f64565b60405180910390a398975050505050505050565b610fa361188e565b610fad60006118bb565b565b6006602052600090815260409020805460018201546002830154600384015460048501805494956001600160a01b039485169593909416939192610ff290611d94565b80601f016020809104026020016040519081016040528092919081815260200182805461101e90611d94565b801561106b5780601f106110405761010080835404028352916020019161106b565b820191906000526020600020905b81548152906001019060200180831161104e57829003601f168201915b5050506005840154600685015460078601546008870180549697939692955060ff90911693509061109b90611d94565b80601f01602080910402602001604051908101604052809291908181526020018280546110c790611d94565b80156111145780601f106110e957610100808354040283529160200191611114565b820191906000526020600020905b8154815290600101906020018083116110f757829003601f168201915b50505050509080600901549080600a015490508b565b6001600160a01b03811660009081526007602090815260408083208054825181850281018501909352808352849383018282801561118757602002820191906000526020600020905b815481526020019060010190808311611173575b505050505090506000915060005b815181101561120d576000600660008484815181106111b6576111b6611f96565b60209081029190910181015182528101919091526040016000206007015460ff1660038111156111e8576111e8611b78565b036111fb57826111f781611dfd565b9350505b8061120581611dfd565b915050611195565b5050919050565b6007602052816000526040600020818154811061123057600080fd5b90600052602060002001600091509150505481565b6001600160a01b0381166000908152600760209081526040918290208054835181840281018401909452808452606093928301828280156112a557602002820191906000526020600020905b815481526020019060010190808311611291575b50505050509050919050565b6112b961188e565b600081116112f95760405162461bcd60e51b815260206004820152600d60248201526c496e76616c69642064656c617960981b60448201526064016103fa565b600355565b600061130861190b565b600082815260066020526040812080549091036113615760405162461bcd60e51b815260206004820152601760248201527614d8da19591d5b1948191bd95cc81b9bdd08195e1a5cdd604a1b60448201526064016103fa565b6000600782015460ff16600381111561137c5761137c611b78565b146113b75760405162461bcd60e51b815260206004820152600b60248201526a4e6f742070656e64696e6760a81b60448201526064016103fa565b80600501544210156114025760405162461bcd60e51b8152602060048201526014602482015273546f6f206561726c7920746f206578656375746560601b60448201526064016103fa565b806006015481600501546114169190611de4565b4211156114655760405162461bcd60e51b815260206004820152601860248201527f457865637574696f6e2077696e646f772065787069726564000000000000000060448201526064016103fa565b6002810154600382015460405160009283926001600160a01b0390911691611491906004870190611fac565b60006040518083038185875af1925050503d80600081146114ce576040519150601f19603f3d011682016040523d82523d6000602084013e6114d3565b606091505b509150915081156115375760078301805460ff1916600190811790915542600a85015560405190815285907faa0c40ff472fe25c104aa5abc146463d2406b1776171d7da7c274285b98c9fee9060200160405180910390a2600193505050506115be565b60078301805460ff1916600317905560405185907f03848b1d8886a93abc8f3f123989d960af7aea344d7f871ca7708ac63aa4e52290611578908490612022565b60405180910390a26040516000815285907faa0c40ff472fe25c104aa5abc146463d2406b1776171d7da7c274285b98c9fee9060200160405180910390a2600093505050505b6115c760018055565b919050565b6115d4611935565b6000828152600660209081526040918290208251610160810184528154815260018201546001600160a01b03908116938201939093526002820154909216928201929092526003820154606082015260048201805491929160808401919061163b90611d94565b80601f016020809104026020016040519081016040528092919081815260200182805461166790611d94565b80156116b45780601f10611689576101008083540402835291602001916116b4565b820191906000526020600020905b81548152906001019060200180831161169757829003601f168201915b50505091835250506005820154602082015260068201546040820152600782015460609091019060ff1660038111156116ef576116ef611b78565b600381111561170057611700611b78565b815260200160088201805461171490611d94565b80601f016020809104026020016040519081016040528092919081815260200182805461174090611d94565b801561178d5780601f106117625761010080835404028352916020019161178d565b820191906000526020600020905b81548152906001019060200180831161177057829003601f168201915b5050505050815260200160098201548152602001600a820154815250509050919050565b6117b961188e565b600080546040516001600160a01b039091169047908381818185875af1925050503d8060008114611806576040519150601f19603f3d011682016040523d82523d6000602084013e61180b565b606091505b50509050806118505760405162461bcd60e51b815260206004820152601160248201527015da5d1a191c985dd85b0819985a5b1959607a1b60448201526064016103fa565b50565b61185b61188e565b6001600160a01b03811661188557604051631e4fbdf760e01b8152600060048201526024016103fa565b611850816118bb565b6000546001600160a01b03163314610fad5760405163118cdaa760e01b81523360048201526024016103fa565b600080546001600160a01b038381166001600160a01b0319831681178455604051919092169283917f8be0079c531659141344cd1fd0a4f28419497f9722a3daafe3b4186f6b6457e09190a35050565b60026001540361192e57604051633ee5aeb560e01b815260040160405180910390fd5b6002600155565b6040518061016001604052806000815260200160006001600160a01b0316815260200160006001600160a01b03168152602001600081526020016060815260200160008152602001600081526020016000600381111561199757611997611b78565b81526020016060815260200160008152602001600081525090565b6000602082840312156119c457600080fd5b5035919050565b6001600160a01b038116811461185057600080fd5b60008083601f8401126119f257600080fd5b50813567ffffffffffffffff811115611a0a57600080fd5b602083019150836020828501011115611a2257600080fd5b9250929050565b600080600080600060808688031215611a4157600080fd5b8535611a4c816119cb565b94506020860135935060408601359250606086013567ffffffffffffffff811115611a7657600080fd5b611a82888289016119e0565b969995985093965092949392505050565b60008060008060008060008060c0898b031215611aaf57600080fd5b8835611aba816119cb565b975060208901359650604089013567ffffffffffffffff80821115611ade57600080fd5b611aea8c838d016119e0565b909850965060608b0135955060808b0135945060a08b0135915080821115611b1157600080fd5b50611b1e8b828c016119e0565b999c989b5096995094979396929594505050565b6000815180845260005b81811015611b5857602081850181015186830182015201611b3c565b506000602082860101526020601f19601f83011685010191505092915050565b634e487b7160e01b600052602160045260246000fd5b60048110611bac57634e487b7160e01b600052602160045260246000fd5b9052565b8b81526001600160a01b038b811660208301528a1660408201526060810189905261016060808201819052600090611bea8382018b611b32565b90508860a08401528760c0840152611c0560e0840188611b8e565b828103610100840152611c188187611b32565b610120840195909552505061014001529998505050505050505050565b600060208284031215611c4757600080fd5b8135611c52816119cb565b9392505050565b60008060408385031215611c6c57600080fd5b8235611c77816119cb565b946020939093013593505050565b6020808252825182820181905260009190848201906040850190845b81811015611cbd57835183529284019291840191600101611ca1565b50909695505050505050565b602081528151602082015260006020830151611cf060408401826001600160a01b03169052565b5060408301516001600160a01b0381166060840152506060830151608083015260808301516101608060a0850152611d2c610180850183611b32565b915060a085015160c085015260c085015160e085015260e0850151610100611d5681870183611b8e565b80870151915050610120601f198685030181870152611d758483611b32565b9087015161014087810191909152909601519190940152509192915050565b600181811c90821680611da857607f821691505b602082108103611dc857634e487b7160e01b600052602260045260246000fd5b50919050565b634e487b7160e01b600052601160045260246000fd5b80820180821115611df757611df7611dce565b92915050565b600060018201611e0f57611e0f611dce565b5060010190565b634e487b7160e01b600052604160045260246000fd5b601f821115611e7657600081815260208120601f850160051c81016020861015611e535750805b601f850160051c820191505b81811015611e7257828155600101611e5f565b5050505b505050565b815167ffffffffffffffff811115611e9557611e95611e16565b611ea981611ea38454611d94565b84611e2c565b602080601f831160018114611ede5760008415611ec65750858301515b600019600386901b1c1916600185901b178555611e72565b600085815260208120601f198616915b82811015611f0d57888601518255948401946001909101908401611eee565b5085821015611f2b5787850151600019600388901b60f8161c191681555b5050505050600190811b01905550565b81835281816020850137506000828201602090810191909152601f909101601f19169091010190565b60018060a01b0385168152836020820152606060408201526000611f8c606083018486611f3b565b9695505050505050565b634e487b7160e01b600052603260045260246000fd5b6000808354611fba81611d94565b60018281168015611fd25760018114611fe757612016565b60ff1984168752821515830287019450612016565b8760005260208060002060005b8581101561200d5781548a820152908401908201611ff4565b50505082870194505b50929695505050505050565b602081526000611c526020830184611b3256fea264697066735822122034bebd48d50dcbe29fe2076a8ceeccf0e6cb1addc8a9ab80f83bc5d9dfd15a2e64736f6c63430008140033","opcodes":"PUSH1 0x80 PUSH1 0x40 MSTORE PUSH1 0x1 PUSH1 0x2 SSTORE PUSH1 0x3C PUSH1 0x3 SSTORE PUSH4 0x1E13380 PUSH1 0x4 SSTORE PUSH3 0x93A80 PUSH1 0x5 SSTORE CALLVALUE DUP1 ISZERO PUSH2 0x29 JUMPI PUSH1 0x0 DUP1 REVERT JUMPDEST POP CALLER DUP1 PUSH2 0x50 JUMPI PUSH1 0x40 MLOAD PUSH4 0x1E4FBDF7 PUSH1 0xE0 SHL DUP2 MSTORE PUSH1 0x0 PUSH1 0x4 DUP3 ADD MSTORE PUSH1 0x24 ADD PUSH1 0x40 MLOAD DUP1 SWAP2 SUB SWAP1 REVERT JUMPDEST PUSH2 0x59 DUP2 PUSH2 0x63 JUMP JUMPDEST POP PUSH1 0x1 DUP1 SSTORE PUSH2 0xB3 JUMP JUMPDEST PUSH1 0x0 DUP1 SLOAD PUSH1 0x1 PUSH1 0x1 PUSH1 0xA0 SHL SUB DUP4 DUP2 AND PUSH1 0x1 PUSH1 0x1 PUSH1 0xA0 SHL SUB NOT DUP4 AND DUP2 OR DUP5 SSTORE PUSH1 0x40 MLOAD SWAP2 SWAP1 SWAP3 AND SWAP3 DUP4 SWAP2 PUSH32 0x8BE0079C531659141344CD1FD0A4F28419497F9722A3DAAFE3B4186F6B6457E0 SWAP2 SWAP1 LOG3 POP POP JUMP JUMPDEST PUSH2 0x206B DUP1 PUSH2 0xC2 PUSH1 0x0 CODECOPY PUSH1 0x0 RETURN INVALID PUSH1 0x80 PUSH1 0x40 MSTORE PUSH1 0x4 CALLDATASIZE LT PUSH2 0x123 JUMPI PUSH1 0x0 CALLDATALOAD PUSH1 0xE0 SHR DUP1 PUSH4 0x90A85D8D GT PUSH2 0xA0 JUMPI DUP1 PUSH4 0xC5CA93A7 GT PUSH2 0x64 JUMPI DUP1 PUSH4 0xC5CA93A7 EQ PUSH2 0x327 JUMPI DUP1 PUSH4 0xC63C4E9B EQ PUSH2 0x354 JUMPI DUP1 PUSH4 0xE086E5EC EQ PUSH2 0x36A JUMPI DUP1 PUSH4 0xED49D2F8 EQ PUSH2 0x37F JUMPI DUP1 PUSH4 0xF2FDE38B EQ PUSH2 0x395 JUMPI PUSH1 0x0 DUP1 REVERT JUMPDEST DUP1 PUSH4 0x90A85D8D EQ PUSH2 0x27A JUMPI DUP1 PUSH4 0x9E3F8E90 EQ PUSH2 0x29A JUMPI DUP1 PUSH4 0xB40B223D EQ PUSH2 0x2BA JUMPI DUP1 PUSH4 0xBA29482F EQ PUSH2 0x2E7 JUMPI DUP1 PUSH4 0xC11B15CA EQ PUSH2 0x307 JUMPI PUSH1 0x0 DUP1 REVERT JUMPDEST DUP1 PUSH4 0x4F2F9C32 GT PUSH2 0xE7 JUMPI DUP1 PUSH4 0x4F2F9C32 EQ PUSH2 0x1DD JUMPI DUP1 PUSH4 0x715018A6 EQ PUSH2 0x1F0 JUMPI DUP1 PUSH4 0x78EE44FD EQ PUSH2 0x205 JUMPI DUP1 PUSH4 0x83000979 EQ PUSH2 0x21B JUMPI DUP1 PUSH4 0x8DA5CB5B EQ PUSH2 0x252 JUMPI PUSH1 0x0 DUP1 REVERT JUMPDEST DUP1 PUSH4 0xF038D41 EQ PUSH2 0x12F JUMPI DUP1 PUSH4 0x106CA3C3 EQ PUSH2 0x158 JUMPI DUP1 PUSH4 0x2774AD8E EQ PUSH2 0x17A JUMPI DUP1 PUSH4 0x28DFA615 EQ PUSH2 0x19A JUMPI DUP1 PUSH4 0x2AB4AB3E EQ PUSH2 0x1CA JUMPI PUSH1 0x0 DUP1 REVERT JUMPDEST CALLDATASIZE PUSH2 0x12A JUMPI STOP JUMPDEST PUSH1 0x0 DUP1 REVERT JUMPDEST CALLVALUE DUP1 ISZERO PUSH2 0x13B JUMPI PUSH1 0x0 DUP1 REVERT JUMPDEST POP PUSH2 0x145 PUSH1 0x2 SLOAD DUP2 JUMP JUMPDEST PUSH1 0x40 MLOAD SWAP1 DUP2 MSTORE PUSH1 0x20 ADD JUMPDEST PUSH1 0x40 MLOAD DUP1 SWAP2 SUB SWAP1 RETURN JUMPDEST CALLVALUE DUP1 ISZERO PUSH2 0x164 JUMPI PUSH1 0x0 DUP1 REVERT JUMPDEST POP PUSH2 0x178 PUSH2 0x173 CALLDATASIZE PUSH1 0x4 PUSH2 0x19B2 JUMP JUMPDEST PUSH2 0x3B5 JUMP JUMPDEST STOP JUMPDEST CALLVALUE DUP1 ISZERO PUSH2 0x186 JUMPI PUSH1 0x0 DUP1 REVERT JUMPDEST POP PUSH2 0x178 PUSH2 0x195 CALLDATASIZE PUSH1 0x4 PUSH2 0x19B2 JUMP JUMPDEST PUSH2 0x408 JUMP JUMPDEST CALLVALUE DUP1 ISZERO PUSH2 0x1A6 JUMPI PUSH1 0x0 DUP1 REVERT JUMPDEST POP PUSH2 0x1BA PUSH2 0x1B5 CALLDATASIZE PUSH1 0x4 PUSH2 0x19B2 JUMP JUMPDEST PUSH2 0x5E4 JUMP JUMPDEST PUSH1 0x40 MLOAD SWAP1 ISZERO ISZERO DUP2 MSTORE PUSH1 0x20 ADD PUSH2 0x14F JUMP JUMPDEST PUSH2 0x145 PUSH2 0x1D8 CALLDATASIZE PUSH1 0x4 PUSH2 0x1A29 JUMP JUMPDEST PUSH2 0x824 JUMP JUMPDEST PUSH2 0x145 PUSH2 0x1EB CALLDATASIZE PUSH1 0x4 PUSH2 0x1A93 JUMP JUMPDEST PUSH2 0xBD3 JUMP JUMPDEST CALLVALUE DUP1 ISZERO PUSH2 0x1FC JUMPI PUSH1 0x0 DUP1 REVERT JUMPDEST POP PUSH2 0x178 PUSH2 0xF9B JUMP JUMPDEST CALLVALUE DUP1 ISZERO PUSH2 0x211 JUMPI PUSH1 0x0 DUP1 REVERT JUMPDEST POP PUSH2 0x145 PUSH1 0x5 SLOAD DUP2 JUMP JUMPDEST CALLVALUE DUP1 ISZERO PUSH2 0x227 JUMPI PUSH1 0x0 DUP1 REVERT JUMPDEST POP PUSH2 0x23B PUSH2 0x236 CALLDATASIZE PUSH1 0x4 PUSH2 0x19B2 JUMP JUMPDEST PUSH2 0xFAF JUMP JUMPDEST PUSH1 0x40 MLOAD PUSH2 0x14F SWAP12 SWAP11 SWAP10 SWAP9 SWAP8 SWAP7 SWAP6 SWAP5 SWAP4 SWAP3 SWAP2 SWAP1 PUSH2 0x1BB0 JUMP JUMPDEST CALLVALUE DUP1 ISZERO PUSH2 0x25E JUMPI PUSH1 0x0 DUP1 REVERT JUMPDEST POP PUSH1 0x0 SLOAD PUSH1 0x40 MLOAD PUSH1 0x1 PUSH1 0x1 PUSH1 0xA0 SHL SUB SWAP1 SWAP2 AND DUP2 MSTORE PUSH1 0x20 ADD PUSH2 0x14F JUMP JUMPDEST CALLVALUE DUP1 ISZERO PUSH2 0x286 JUMPI PUSH1 0x0 DUP1 REVERT JUMPDEST POP PUSH2 0x145 PUSH2 0x295 CALLDATASIZE PUSH1 0x4 PUSH2 0x1C35 JUMP JUMPDEST PUSH2 0x112A JUMP JUMPDEST CALLVALUE DUP1 ISZERO PUSH2 0x2A6 JUMPI PUSH1 0x0 DUP1 REVERT JUMPDEST POP PUSH2 0x145 PUSH2 0x2B5 CALLDATASIZE PUSH1 0x4 PUSH2 0x1C59 JUMP JUMPDEST PUSH2 0x1214 JUMP JUMPDEST CALLVALUE DUP1 ISZERO PUSH2 0x2C6 JUMPI PUSH1 0x0 DUP1 REVERT JUMPDEST POP PUSH2 0x2DA PUSH2 0x2D5 CALLDATASIZE PUSH1 0x4 PUSH2 0x1C35 JUMP JUMPDEST PUSH2 0x1245 JUMP JUMPDEST PUSH1 0x40 MLOAD PUSH2 0x14F SWAP2 SWAP1 PUSH2 0x1C85 JUMP JUMPDEST CALLVALUE DUP1 ISZERO PUSH2 0x2F3 JUMPI PUSH1 0x0 DUP1 REVERT JUMPDEST POP PUSH2 0x178 PUSH2 0x302 CALLDATASIZE PUSH1 0x4 PUSH2 0x19B2 JUMP JUMPDEST PUSH2 0x12B1 JUMP JUMPDEST CALLVALUE DUP1 ISZERO PUSH2 0x313 JUMPI PUSH1 0x0 DUP1 REVERT JUMPDEST POP PUSH2 0x1BA PUSH2 0x322 CALLDATASIZE PUSH1 0x4 PUSH2 0x19B2 JUMP JUMPDEST PUSH2 0x12FE JUMP JUMPDEST CALLVALUE DUP1 ISZERO PUSH2 0x333 JUMPI PUSH1 0x0 DUP1 REVERT JUMPDEST POP PUSH2 0x347 PUSH2 0x342 CALLDATASIZE PUSH1 0x4 PUSH2 0x19B2 JUMP JUMPDEST PUSH2 0x15CC JUMP JUMPDEST PUSH1 0x40 MLOAD PUSH2 0x14F SWAP2 SWAP1 PUSH2 0x1CC9 JUMP JUMPDEST CALLVALUE DUP1 ISZERO PUSH2 0x360 JUMPI PUSH1 0x0 DUP1 REVERT JUMPDEST POP PUSH2 0x145 PUSH1 0x3 SLOAD DUP2 JUMP JUMPDEST CALLVALUE DUP1 ISZERO PUSH2 0x376 JUMPI PUSH1 0x0 DUP1 REVERT JUMPDEST POP PUSH2 0x178 PUSH2 0x17B1 JUMP JUMPDEST CALLVALUE DUP1 ISZERO PUSH2 0x38B JUMPI PUSH1 0x0 DUP1 REVERT JUMPDEST POP PUSH2 0x145 PUSH1 0x4 SLOAD DUP2 JUMP JUMPDEST CALLVALUE DUP1 ISZERO PUSH2 0x3A1 JUMPI PUSH1 0x0 DUP1 REVERT JUMPDEST POP PUSH2 0x178 PUSH2 0x3B0 CALLDATASIZE PUSH1 0x4 PUSH2 0x1C35 JUMP JUMPDEST PUSH2 0x1853 JUMP JUMPDEST PUSH2 0x3BD PUSH2 0x188E JUMP JUMPDEST PUSH1 0x3 SLOAD DUP2 GT PUSH2 0x403 JUMPI PUSH1 0x40 MLOAD PUSH3 0x461BCD PUSH1 0xE5 SHL DUP2 MSTORE PUSH1 0x20 PUSH1 0x4 DUP3 ADD MSTORE PUSH1 0xD PUSH1 0x24 DUP3 ADD MSTORE PUSH13 0x496E76616C69642064656C6179 PUSH1 0x98 SHL PUSH1 0x44 DUP3 ADD MSTORE PUSH1 0x64 ADD JUMPDEST PUSH1 0x40 MLOAD DUP1 SWAP2 SUB SWAP1 REVERT JUMPDEST PUSH1 0x4 SSTORE JUMP JUMPDEST PUSH1 0x0 DUP2 DUP2 MSTORE PUSH1 0x6 PUSH1 0x20 MSTORE PUSH1 0x40 DUP2 KECCAK256 DUP1 SLOAD SWAP1 SWAP2 SUB PUSH2 0x461 JUMPI PUSH1 0x40 MLOAD PUSH3 0x461BCD PUSH1 0xE5 SHL DUP2 MSTORE PUSH1 0x20 PUSH1 0x4 DUP3 ADD MSTORE PUSH1 0x17 PUSH1 0x24 DUP3 ADD MSTORE PUSH23 0x14D8DA19591D5B1948191BD95CC81B9BDD08195E1A5CDD PUSH1 0x4A SHL PUSH1 0x44 DUP3 ADD MSTORE PUSH1 0x64 ADD PUSH2 0x3FA JUMP JUMPDEST PUSH1 0x1 DUP2 ADD SLOAD PUSH1 0x1 PUSH1 0x1 PUSH1 0xA0 SHL SUB AND CALLER EQ PUSH2 0x4AB JUMPI PUSH1 0x40 MLOAD PUSH3 0x461BCD PUSH1 0xE5 SHL DUP2 MSTORE PUSH1 0x20 PUSH1 0x4 DUP3 ADD MSTORE PUSH1 0xB PUSH1 0x24 DUP3 ADD MSTORE PUSH11 0x2737BA1031B932B0BA37B9 PUSH1 0xA9 SHL PUSH1 0x44 DUP3 ADD MSTORE PUSH1 0x64 ADD PUSH2 0x3FA JUMP JUMPDEST PUSH1 0x0 PUSH1 0x7 DUP3 ADD SLOAD PUSH1 0xFF AND PUSH1 0x3 DUP2 GT ISZERO PUSH2 0x4C6 JUMPI PUSH2 0x4C6 PUSH2 0x1B78 JUMP JUMPDEST EQ PUSH2 0x501 JUMPI PUSH1 0x40 MLOAD PUSH3 0x461BCD PUSH1 0xE5 SHL DUP2 MSTORE PUSH1 0x20 PUSH1 0x4 DUP3 ADD MSTORE PUSH1 0xB PUSH1 0x24 DUP3 ADD MSTORE PUSH11 0x4E6F742070656E64696E67 PUSH1 0xA8 SHL PUSH1 0x44 DUP3 ADD MSTORE PUSH1 0x64 ADD PUSH2 0x3FA JUMP JUMPDEST PUSH1 0x7 DUP2 ADD DUP1 SLOAD PUSH1 0xFF NOT AND PUSH1 0x2 OR SWAP1 SSTORE PUSH1 0x3 DUP2 ADD SLOAD ISZERO PUSH2 0x5B5 JUMPI PUSH1 0x1 DUP2 ADD SLOAD PUSH1 0x3 DUP3 ADD SLOAD PUSH1 0x40 MLOAD PUSH1 0x0 SWAP3 PUSH1 0x1 PUSH1 0x1 PUSH1 0xA0 SHL SUB AND SWAP2 SWAP1 DUP4 DUP2 DUP2 DUP2 DUP6 DUP8 GAS CALL SWAP3 POP POP POP RETURNDATASIZE DUP1 PUSH1 0x0 DUP2 EQ PUSH2 0x56D JUMPI PUSH1 0x40 MLOAD SWAP2 POP PUSH1 0x1F NOT PUSH1 0x3F RETURNDATASIZE ADD AND DUP3 ADD PUSH1 0x40 MSTORE RETURNDATASIZE DUP3 MSTORE RETURNDATASIZE PUSH1 0x0 PUSH1 0x20 DUP5 ADD RETURNDATACOPY PUSH2 0x572 JUMP JUMPDEST PUSH1 0x60 SWAP2 POP JUMPDEST POP POP SWAP1 POP DUP1 PUSH2 0x5B3 JUMPI PUSH1 0x40 MLOAD PUSH3 0x461BCD PUSH1 0xE5 SHL DUP2 MSTORE PUSH1 0x20 PUSH1 0x4 DUP3 ADD MSTORE PUSH1 0xD PUSH1 0x24 DUP3 ADD MSTORE PUSH13 0x1499599D5B990819985A5B1959 PUSH1 0x9A SHL PUSH1 0x44 DUP3 ADD MSTORE PUSH1 0x64 ADD PUSH2 0x3FA JUMP JUMPDEST POP JUMPDEST PUSH1 0x40 MLOAD DUP3 SWAP1 PUSH32 0x956FB32199D8B882B2039A14E1BE35AB14F7A80B9089FC223F14B43937173E60 SWAP1 PUSH1 0x0 SWAP1 LOG2 POP POP JUMP JUMPDEST PUSH1 0x0 DUP2 DUP2 MSTORE PUSH1 0x6 PUSH1 0x20 SWAP1 DUP2 MSTORE PUSH1 0x40 DUP1 DUP4 KECCAK256 DUP2 MLOAD PUSH2 0x160 DUP2 ADD DUP4 MSTORE DUP2 SLOAD DUP2 MSTORE PUSH1 0x1 DUP3 ADD SLOAD PUSH1 0x1 PUSH1 0x1 PUSH1 0xA0 SHL SUB SWAP1 DUP2 AND SWAP5 DUP3 ADD SWAP5 SWAP1 SWAP5 MSTORE PUSH1 0x2 DUP3 ADD SLOAD SWAP1 SWAP4 AND SWAP2 DUP4 ADD SWAP2 SWAP1 SWAP2 MSTORE PUSH1 0x3 DUP2 ADD SLOAD PUSH1 0x60 DUP4 ADD MSTORE PUSH1 0x4 DUP2 ADD DUP1 SLOAD DUP5 SWAP4 SWAP3 SWAP2 PUSH1 0x80 DUP5 ADD SWAP2 PUSH2 0x64A SWAP1 PUSH2 0x1D94 JUMP JUMPDEST DUP1 PUSH1 0x1F ADD PUSH1 0x20 DUP1 SWAP2 DIV MUL PUSH1 0x20 ADD PUSH1 0x40 MLOAD SWAP1 DUP2 ADD PUSH1 0x40 MSTORE DUP1 SWAP3 SWAP2 SWAP1 DUP2 DUP2 MSTORE PUSH1 0x20 ADD DUP3 DUP1 SLOAD PUSH2 0x676 SWAP1 PUSH2 0x1D94 JUMP JUMPDEST DUP1 ISZERO PUSH2 0x6C3 JUMPI DUP1 PUSH1 0x1F LT PUSH2 0x698 JUMPI PUSH2 0x100 DUP1 DUP4 SLOAD DIV MUL DUP4 MSTORE SWAP2 PUSH1 0x20 ADD SWAP2 PUSH2 0x6C3 JUMP JUMPDEST DUP3 ADD SWAP2 SWAP1 PUSH1 0x0 MSTORE PUSH1 0x20 PUSH1 0x0 KECCAK256 SWAP1 JUMPDEST DUP2 SLOAD DUP2 MSTORE SWAP1 PUSH1 0x1 ADD SWAP1 PUSH1 0x20 ADD DUP1 DUP4 GT PUSH2 0x6A6 JUMPI DUP3 SWAP1 SUB PUSH1 0x1F AND DUP3 ADD SWAP2 JUMPDEST POP POP POP SWAP2 DUP4 MSTORE POP POP PUSH1 0x5 DUP3 ADD SLOAD PUSH1 0x20 DUP3 ADD MSTORE PUSH1 0x6 DUP3 ADD SLOAD PUSH1 0x40 DUP3 ADD MSTORE PUSH1 0x7 DUP3 ADD SLOAD PUSH1 0x60 SWAP1 SWAP2 ADD SWAP1 PUSH1 0xFF AND PUSH1 0x3 DUP2 GT ISZERO PUSH2 0x6FE JUMPI PUSH2 0x6FE PUSH2 0x1B78 JUMP JUMPDEST PUSH1 0x3 DUP2 GT ISZERO PUSH2 0x70F JUMPI PUSH2 0x70F PUSH2 0x1B78 JUMP JUMPDEST DUP2 MSTORE PUSH1 0x20 ADD PUSH1 0x8 DUP3 ADD DUP1 SLOAD PUSH2 0x723 SWAP1 PUSH2 0x1D94 JUMP JUMPDEST DUP1 PUSH1 0x1F ADD PUSH1 0x20 DUP1 SWAP2 DIV MUL PUSH1 0x20 ADD PUSH1 0x40 MLOAD SWAP1 DUP2 ADD PUSH1 0x40 MSTORE DUP1 SWAP3 SWAP2 SWAP1 DUP2 DUP2 MSTORE PUSH1 0x20 ADD DUP3 DUP1 SLOAD PUSH2 0x74F SWAP1 PUSH2 0x1D94 JUMP JUMPDEST DUP1 ISZERO PUSH2 0x79C JUMPI DUP1 PUSH1 0x1F LT PUSH2 0x771 JUMPI PUSH2 0x100 DUP1 DUP4 SLOAD DIV MUL DUP4 MSTORE SWAP2 PUSH1 0x20 ADD SWAP2 PUSH2 0x79C JUMP JUMPDEST DUP3 ADD SWAP2 SWAP1 PUSH1 0x0 MSTORE PUSH1 0x20 PUSH1 0x0 KECCAK256 SWAP1 JUMPDEST DUP2 SLOAD DUP2 MSTORE SWAP1 PUSH1 0x1 ADD SWAP1 PUSH1 0x20 ADD DUP1 DUP4 GT PUSH2 0x77F JUMPI DUP3 SWAP1 SUB PUSH1 0x1F AND DUP3 ADD SWAP2 JUMPDEST POP POP POP SWAP2 DUP4 MSTORE POP POP PUSH1 0x9 DUP3 ADD SLOAD PUSH1 0x20 DUP3 ADD MSTORE PUSH1 0xA SWAP1 SWAP2 ADD SLOAD PUSH1 0x40 SWAP1 SWAP2 ADD MSTORE SWAP1 POP PUSH1 0x0 DUP2 PUSH1 0xE0 ADD MLOAD PUSH1 0x3 DUP2 GT ISZERO PUSH2 0x7D4 JUMPI PUSH2 0x7D4 PUSH2 0x1B78 JUMP JUMPDEST EQ PUSH2 0x7E2 JUMPI POP PUSH1 0x0 SWAP3 SWAP2 POP POP JUMP JUMPDEST DUP1 PUSH1 0xA0 ADD MLOAD TIMESTAMP LT ISZERO PUSH2 0x7F7 JUMPI POP PUSH1 0x0 SWAP3 SWAP2 POP POP JUMP JUMPDEST DUP1 PUSH1 0xC0 ADD MLOAD DUP2 PUSH1 0xA0 ADD MLOAD PUSH2 0x80B SWAP2 SWAP1 PUSH2 0x1DE4 JUMP JUMPDEST TIMESTAMP GT ISZERO PUSH2 0x81B JUMPI POP PUSH1 0x0 SWAP3 SWAP2 POP POP JUMP JUMPDEST POP PUSH1 0x1 SWAP3 SWAP2 POP POP JUMP JUMPDEST PUSH1 0x0 PUSH1 0x1 PUSH1 0x1 PUSH1 0xA0 SHL SUB DUP7 AND PUSH2 0x870 JUMPI PUSH1 0x40 MLOAD PUSH3 0x461BCD PUSH1 0xE5 SHL DUP2 MSTORE PUSH1 0x20 PUSH1 0x4 DUP3 ADD MSTORE PUSH1 0x11 PUSH1 0x24 DUP3 ADD MSTORE PUSH17 0x125B9D985B1A59081C9958DA5C1A595B9D PUSH1 0x7A SHL PUSH1 0x44 DUP3 ADD MSTORE PUSH1 0x64 ADD PUSH2 0x3FA JUMP JUMPDEST TIMESTAMP DUP5 GT PUSH2 0x8BF JUMPI PUSH1 0x40 MLOAD PUSH3 0x461BCD PUSH1 0xE5 SHL DUP2 MSTORE PUSH1 0x20 PUSH1 0x4 DUP3 ADD DUP2 SWAP1 MSTORE PUSH1 0x24 DUP3 ADD MSTORE PUSH32 0x457865637574696F6E2074696D65206D75737420626520696E20667574757265 PUSH1 0x44 DUP3 ADD MSTORE PUSH1 0x64 ADD PUSH2 0x3FA JUMP JUMPDEST PUSH1 0x4 SLOAD PUSH2 0x8CC SWAP1 TIMESTAMP PUSH2 0x1DE4 JUMP JUMPDEST DUP5 GT ISZERO PUSH2 0x91B JUMPI PUSH1 0x40 MLOAD PUSH3 0x461BCD PUSH1 0xE5 SHL DUP2 MSTORE PUSH1 0x20 PUSH1 0x4 DUP3 ADD DUP2 SWAP1 MSTORE PUSH1 0x24 DUP3 ADD MSTORE PUSH32 0x457865637574696F6E2074696D6520746F6F2066617220696E20667574757265 PUSH1 0x44 DUP3 ADD MSTORE PUSH1 0x64 ADD PUSH2 0x3FA JUMP JUMPDEST PUSH1 0x3 SLOAD PUSH2 0x928 SWAP1 TIMESTAMP PUSH2 0x1DE4 JUMP JUMPDEST DUP5 LT ISZERO PUSH2 0x971 JUMPI PUSH1 0x40 MLOAD PUSH3 0x461BCD PUSH1 0xE5 SHL DUP2 MSTORE PUSH1 0x20 PUSH1 0x4 DUP3 ADD MSTORE PUSH1 0x17 PUSH1 0x24 DUP3 ADD MSTORE PUSH23 0x22BC32B1BABA34B7B7103A34B6B2903A37B79039B7B7B7 PUSH1 0x49 SHL PUSH1 0x44 DUP3 ADD MSTORE PUSH1 0x64 ADD PUSH2 0x3FA JUMP JUMPDEST DUP5 CALLVALUE LT ISZERO PUSH2 0x9B9 JUMPI PUSH1 0x40 MLOAD PUSH3 0x461BCD PUSH1 0xE5 SHL DUP2 MSTORE PUSH1 0x20 PUSH1 0x4 DUP3 ADD MSTORE PUSH1 0x15 PUSH1 0x24 DUP3 ADD MSTORE PUSH21 0x125B9CDD59999A58DA595B9D08115512081CD95B9D PUSH1 0x5A SHL PUSH1 0x44 DUP3 ADD MSTORE PUSH1 0x64 ADD PUSH2 0x3FA JUMP JUMPDEST PUSH1 0x2 DUP1 SLOAD SWAP1 PUSH1 0x0 PUSH2 0x9C9 DUP4 PUSH2 0x1DFD JUMP JUMPDEST SWAP2 SWAP1 POP SSTORE SWAP1 POP PUSH1 0x40 MLOAD DUP1 PUSH2 0x160 ADD PUSH1 0x40 MSTORE DUP1 DUP3 DUP2 MSTORE PUSH1 0x20 ADD CALLER PUSH1 0x1 PUSH1 0x1 PUSH1 0xA0 SHL SUB AND DUP2 MSTORE PUSH1 0x20 ADD DUP8 PUSH1 0x1 PUSH1 0x1 PUSH1 0xA0 SHL SUB AND DUP2 MSTORE PUSH1 0x20 ADD DUP7 DUP2 MSTORE PUSH1 0x20 ADD PUSH1 0x40 MLOAD DUP1 PUSH1 0x40 ADD PUSH1 0x40 MSTORE DUP1 PUSH1 0x2 DUP2 MSTORE PUSH1 0x20 ADD PUSH2 0x60F PUSH1 0xF3 SHL DUP2 MSTORE POP DUP2 MSTORE PUSH1 0x20 ADD DUP6 DUP2 MSTORE PUSH1 0x20 ADD PUSH1 0x5 SLOAD DUP2 MSTORE PUSH1 0x20 ADD PUSH1 0x0 PUSH1 0x3 DUP2 GT ISZERO PUSH2 0xA46 JUMPI PUSH2 0xA46 PUSH2 0x1B78 JUMP JUMPDEST DUP2 MSTORE PUSH1 0x20 ADD DUP5 DUP5 DUP1 DUP1 PUSH1 0x1F ADD PUSH1 0x20 DUP1 SWAP2 DIV MUL PUSH1 0x20 ADD PUSH1 0x40 MLOAD SWAP1 DUP2 ADD PUSH1 0x40 MSTORE DUP1 SWAP4 SWAP3 SWAP2 SWAP1 DUP2 DUP2 MSTORE PUSH1 0x20 ADD DUP4 DUP4 DUP1 DUP3 DUP5 CALLDATACOPY PUSH1 0x0 SWAP3 ADD DUP3 SWAP1 MSTORE POP SWAP4 DUP6 MSTORE POP POP TIMESTAMP PUSH1 0x20 DUP1 DUP6 ADD SWAP2 SWAP1 SWAP2 MSTORE PUSH1 0x40 SWAP4 DUP5 ADD DUP4 SWAP1 MSTORE DUP6 DUP4 MSTORE PUSH1 0x6 DUP2 MSTORE SWAP2 DUP4 SWAP1 KECCAK256 DUP5 MLOAD DUP2 SSTORE SWAP2 DUP5 ADD MLOAD PUSH1 0x1 DUP4 ADD DUP1 SLOAD PUSH1 0x1 PUSH1 0x1 PUSH1 0xA0 SHL SUB NOT SWAP1 DUP2 AND PUSH1 0x1 PUSH1 0x1 PUSH1 0xA0 SHL SUB SWAP4 DUP5 AND OR SWAP1 SWAP2 SSTORE SWAP4 DUP6 ADD MLOAD PUSH1 0x2 DUP5 ADD DUP1 SLOAD SWAP1 SWAP6 AND SWAP2 AND OR SWAP1 SWAP3 SSTORE PUSH1 0x60 DUP4 ADD MLOAD PUSH1 0x3 DUP3 ADD SSTORE PUSH1 0x80 DUP4 ADD MLOAD SWAP1 SWAP2 POP PUSH1 0x4 DUP3 ADD SWAP1 PUSH2 0xAFC SWAP1 DUP3 PUSH2 0x1E7B JUMP JUMPDEST POP PUSH1 0xA0 DUP3 ADD MLOAD PUSH1 0x5 DUP3 ADD SSTORE PUSH1 0xC0 DUP3 ADD MLOAD PUSH1 0x6 DUP3 ADD SSTORE PUSH1 0xE0 DUP3 ADD MLOAD PUSH1 0x7 DUP3 ADD DUP1 SLOAD PUSH1 0xFF NOT AND PUSH1 0x1 DUP4 PUSH1 0x3 DUP2 GT ISZERO PUSH2 0xB34 JUMPI PUSH2 0xB34 PUSH2 0x1B78 JUMP JUMPDEST MUL OR SWAP1 SSTORE POP PUSH2 0x100 DUP3 ADD MLOAD PUSH1 0x8 DUP3 ADD SWAP1 PUSH2 0xB4E SWAP1 DUP3 PUSH2 0x1E7B JUMP JUMPDEST POP PUSH2 0x120 DUP3 ADD MLOAD PUSH1 0x9 DUP3 ADD SSTORE PUSH2 0x140 SWAP1 SWAP2 ADD MLOAD PUSH1 0xA SWAP1 SWAP2 ADD SSTORE CALLER PUSH1 0x0 DUP2 DUP2 MSTORE PUSH1 0x7 PUSH1 0x20 SWAP1 DUP2 MSTORE PUSH1 0x40 DUP1 DUP4 KECCAK256 DUP1 SLOAD PUSH1 0x1 DUP2 ADD DUP3 SSTORE SWAP1 DUP5 MSTORE SWAP2 SWAP1 SWAP3 KECCAK256 ADD DUP4 SWAP1 SSTORE MLOAD DUP3 SWAP1 PUSH32 0xB413E7CAC6032066462E33958E038AFDEE9E43AAC1FB628E8053DE24F9165E45 SWAP1 PUSH2 0xBC2 SWAP1 DUP11 SWAP1 DUP10 SWAP1 DUP10 SWAP1 DUP10 SWAP1 PUSH2 0x1F64 JUMP JUMPDEST PUSH1 0x40 MLOAD DUP1 SWAP2 SUB SWAP1 LOG3 SWAP6 SWAP5 POP POP POP POP POP JUMP JUMPDEST PUSH1 0x0 PUSH1 0x1 PUSH1 0x1 PUSH1 0xA0 SHL SUB DUP10 AND PUSH2 0xC1C JUMPI PUSH1 0x40 MLOAD PUSH3 0x461BCD PUSH1 0xE5 SHL DUP2 MSTORE PUSH1 0x20 PUSH1 0x4 DUP3 ADD MSTORE PUSH1 0xE PUSH1 0x24 DUP3 ADD MSTORE PUSH14 0x125B9D985B1A59081D185C99D95D PUSH1 0x92 SHL PUSH1 0x44 DUP3 ADD MSTORE PUSH1 0x64 ADD PUSH2 0x3FA JUMP JUMPDEST TIMESTAMP DUP6 GT PUSH2 0xC6B JUMPI PUSH1 0x40 MLOAD PUSH3 0x461BCD PUSH1 0xE5 SHL DUP2 MSTORE PUSH1 0x20 PUSH1 0x4 DUP3 ADD DUP2 SWAP1 MSTORE PUSH1 0x24 DUP3 ADD MSTORE PUSH32 0x457865637574696F6E2074696D65206D75737420626520696E20667574757265 PUSH1 0x44 DUP3 ADD MSTORE PUSH1 0x64 ADD PUSH2 0x3FA JUMP JUMPDEST PUSH1 0x4 SLOAD PUSH2 0xC78 SWAP1 TIMESTAMP PUSH2 0x1DE4 JUMP JUMPDEST DUP6 GT ISZERO PUSH2 0xCC7 JUMPI PUSH1 0x40 MLOAD PUSH3 0x461BCD PUSH1 0xE5 SHL DUP2 MSTORE PUSH1 0x20 PUSH1 0x4 DUP3 ADD DUP2 SWAP1 MSTORE PUSH1 0x24 DUP3 ADD MSTORE PUSH32 0x457865637574696F6E2074696D6520746F6F2066617220696E20667574757265 PUSH1 0x44 DUP3 ADD MSTORE PUSH1 0x64 ADD PUSH2 0x3FA JUMP JUMPDEST PUSH1 0x3 SLOAD PUSH2 0xCD4 SWAP1 TIMESTAMP PUSH2 0x1DE4 JUMP JUMPDEST DUP6 LT ISZERO PUSH2 0xD1D JUMPI PUSH1 0x40 MLOAD PUSH3 0x461BCD PUSH1 0xE5 SHL DUP2 MSTORE PUSH1 0x20 PUSH1 0x4 DUP3 ADD MSTORE PUSH1 0x17 PUSH1 0x24 DUP3 ADD MSTORE PUSH23 0x22BC32B1BABA34B7B7103A34B6B2903A37B79039B7B7B7 PUSH1 0x49 SHL PUSH1 0x44 DUP3 ADD MSTORE PUSH1 0x64 ADD PUSH2 0x3FA JUMP JUMPDEST DUP8 CALLVALUE LT ISZERO PUSH2 0xD65 JUMPI PUSH1 0x40 MLOAD PUSH3 0x461BCD PUSH1 0xE5 SHL DUP2 MSTORE PUSH1 0x20 PUSH1 0x4 DUP3 ADD MSTORE PUSH1 0x15 PUSH1 0x24 DUP3 ADD MSTORE PUSH21 0x125B9CDD59999A58DA595B9D08115512081CD95B9D PUSH1 0x5A SHL PUSH1 0x44 DUP3 ADD MSTORE PUSH1 0x64 ADD PUSH2 0x3FA JUMP JUMPDEST DUP4 PUSH1 0x0 SUB PUSH2 0xD73 JUMPI PUSH1 0x5 SLOAD SWAP4 POP JUMPDEST PUSH1 0x2 DUP1 SLOAD SWAP1 PUSH1 0x0 PUSH2 0xD83 DUP4 PUSH2 0x1DFD JUMP JUMPDEST SWAP2 SWAP1 POP SSTORE SWAP1 POP PUSH1 0x40 MLOAD DUP1 PUSH2 0x160 ADD PUSH1 0x40 MSTORE DUP1 DUP3 DUP2 MSTORE PUSH1 0x20 ADD CALLER PUSH1 0x1 PUSH1 0x1 PUSH1 0xA0 SHL SUB AND DUP2 MSTORE PUSH1 0x20 ADD DUP11 PUSH1 0x1 PUSH1 0x1 PUSH1 0xA0 SHL SUB AND DUP2 MSTORE PUSH1 0x20 ADD DUP10 DUP2 MSTORE PUSH1 0x20 ADD DUP9 DUP9 DUP1 DUP1 PUSH1 0x1F ADD PUSH1 0x20 DUP1 SWAP2 DIV MUL PUSH1 0x20 ADD PUSH1 0x40 MLOAD SWAP1 DUP2 ADD PUSH1 0x40 MSTORE DUP1 SWAP4 SWAP3 SWAP2 SWAP1 DUP2 DUP2 MSTORE PUSH1 0x20 ADD DUP4 DUP4 DUP1 DUP3 DUP5 CALLDATACOPY PUSH1 0x0 SWAP3 ADD DUP3 SWAP1 MSTORE POP SWAP4 DUP6 MSTORE POP POP POP PUSH1 0x20 DUP3 ADD DUP9 SWAP1 MSTORE PUSH1 0x40 DUP3 ADD DUP8 SWAP1 MSTORE PUSH1 0x60 SWAP1 SWAP2 ADD SWAP1 DUP2 MSTORE PUSH1 0x20 ADD DUP5 DUP5 DUP1 DUP1 PUSH1 0x1F ADD PUSH1 0x20 DUP1 SWAP2 DIV MUL PUSH1 0x20 ADD PUSH1 0x40 MLOAD SWAP1 DUP2 ADD PUSH1 0x40 MSTORE DUP1 SWAP4 SWAP3 SWAP2 SWAP1 DUP2 DUP2 MSTORE PUSH1 0x20 ADD DUP4 DUP4 DUP1 DUP3 DUP5 CALLDATACOPY PUSH1 0x0 SWAP3 ADD DUP3 SWAP1 MSTORE POP SWAP4 DUP6 MSTORE POP POP TIMESTAMP PUSH1 0x20 DUP1 DUP6 ADD SWAP2 SWAP1 SWAP2 MSTORE PUSH1 0x40 SWAP4 DUP5 ADD DUP4 SWAP1 MSTORE DUP6 DUP4 MSTORE PUSH1 0x6 DUP2 MSTORE SWAP2 DUP4 SWAP1 KECCAK256 DUP5 MLOAD DUP2 SSTORE SWAP2 DUP5 ADD MLOAD PUSH1 0x1 DUP4 ADD DUP1 SLOAD PUSH1 0x1 PUSH1 0x1 PUSH1 0xA0 SHL SUB NOT SWAP1 DUP2 AND PUSH1 0x1 PUSH1 0x1 PUSH1 0xA0 SHL SUB SWAP4 DUP5 AND OR SWAP1 SWAP2 SSTORE SWAP4 DUP6 ADD MLOAD PUSH1 0x2 DUP5 ADD DUP1 SLOAD SWAP1 SWAP6 AND SWAP2 AND OR SWAP1 SWAP3 SSTORE PUSH1 0x60 DUP4 ADD MLOAD PUSH1 0x3 DUP3 ADD SSTORE PUSH1 0x80 DUP4 ADD MLOAD SWAP1 SWAP2 POP PUSH1 0x4 DUP3 ADD SWAP1 PUSH2 0xEC1 SWAP1 DUP3 PUSH2 0x1E7B JUMP JUMPDEST POP PUSH1 0xA0 DUP3 ADD MLOAD PUSH1 0x5 DUP3 ADD SSTORE PUSH1 0xC0 DUP3 ADD MLOAD PUSH1 0x6 DUP3 ADD SSTORE PUSH1 0xE0 DUP3 ADD MLOAD PUSH1 0x7 DUP3 ADD DUP1 SLOAD PUSH1 0xFF NOT AND PUSH1 0x1 DUP4 PUSH1 0x3 DUP2 GT ISZERO PUSH2 0xEF9 JUMPI PUSH2 0xEF9 PUSH2 0x1B78 JUMP JUMPDEST MUL OR SWAP1 SSTORE POP PUSH2 0x100 DUP3 ADD MLOAD PUSH1 0x8 DUP3 ADD SWAP1 PUSH2 0xF13 SWAP1 DUP3 PUSH2 0x1E7B JUMP JUMPDEST POP PUSH2 0x120 DUP3 ADD MLOAD PUSH1 0x9 DUP3 ADD SSTORE PUSH2 0x140 SWAP1 SWAP2 ADD MLOAD PUSH1 0xA SWAP1 SWAP2 ADD SSTORE CALLER PUSH1 0x0 DUP2 DUP2 MSTORE PUSH1 0x7 PUSH1 0x20 SWAP1 DUP2 MSTORE PUSH1 0x40 DUP1 DUP4 KECCAK256 DUP1 SLOAD PUSH1 0x1 DUP2 ADD DUP3 SSTORE SWAP1 DUP5 MSTORE SWAP2 SWAP1 SWAP3 KECCAK256 ADD DUP4 SWAP1 SSTORE MLOAD DUP3 SWAP1 PUSH32 0xB413E7CAC6032066462E33958E038AFDEE9E43AAC1FB628E8053DE24F9165E45 SWAP1 PUSH2 0xF87 SWAP1 DUP14 SWAP1 DUP11 SWAP1 DUP10 SWAP1 DUP10 SWAP1 PUSH2 0x1F64 JUMP JUMPDEST PUSH1 0x40 MLOAD DUP1 SWAP2 SUB SWAP1 LOG3 SWAP9 SWAP8 POP POP POP POP POP POP POP POP JUMP JUMPDEST PUSH2 0xFA3 PUSH2 0x188E JUMP JUMPDEST PUSH2 0xFAD PUSH1 0x0 PUSH2 0x18BB JUMP JUMPDEST JUMP JUMPDEST PUSH1 0x6 PUSH1 0x20 MSTORE PUSH1 0x0 SWAP1 DUP2 MSTORE PUSH1 0x40 SWAP1 KECCAK256 DUP1 SLOAD PUSH1 0x1 DUP3 ADD SLOAD PUSH1 0x2 DUP4 ADD SLOAD PUSH1 0x3 DUP5 ADD SLOAD PUSH1 0x4 DUP6 ADD DUP1 SLOAD SWAP5 SWAP6 PUSH1 0x1 PUSH1 0x1 PUSH1 0xA0 SHL SUB SWAP5 DUP6 AND SWAP6 SWAP4 SWAP1 SWAP5 AND SWAP4 SWAP2 SWAP3 PUSH2 0xFF2 SWAP1 PUSH2 0x1D94 JUMP JUMPDEST DUP1 PUSH1 0x1F ADD PUSH1 0x20 DUP1 SWAP2 DIV MUL PUSH1 0x20 ADD PUSH1 0x40 MLOAD SWAP1 DUP2 ADD PUSH1 0x40 MSTORE DUP1 SWAP3 SWAP2 SWAP1 DUP2 DUP2 MSTORE PUSH1 0x20 ADD DUP3 DUP1 SLOAD PUSH2 0x101E SWAP1 PUSH2 0x1D94 JUMP JUMPDEST DUP1 ISZERO PUSH2 0x106B JUMPI DUP1 PUSH1 0x1F LT PUSH2 0x1040 JUMPI PUSH2 0x100 DUP1 DUP4 SLOAD DIV MUL DUP4 MSTORE SWAP2 PUSH1 0x20 ADD SWAP2 PUSH2 0x106B JUMP JUMPDEST DUP3 ADD SWAP2 SWAP1 PUSH1 0x0 MSTORE PUSH1 0x20 PUSH1 0x0 KECCAK256 SWAP1 JUMPDEST DUP2 SLOAD DUP2 MSTORE SWAP1 PUSH1 0x1 ADD SWAP1 PUSH1 0x20 ADD DUP1 DUP4 GT PUSH2 0x104E JUMPI DUP3 SWAP1 SUB PUSH1 0x1F AND DUP3 ADD SWAP2 JUMPDEST POP POP POP PUSH1 0x5 DUP5 ADD SLOAD PUSH1 0x6 DUP6 ADD SLOAD PUSH1 0x7 DUP7 ADD SLOAD PUSH1 0x8 DUP8 ADD DUP1 SLOAD SWAP7 SWAP8 SWAP4 SWAP7 SWAP3 SWAP6 POP PUSH1 0xFF SWAP1 SWAP2 AND SWAP4 POP SWAP1 PUSH2 0x109B SWAP1 PUSH2 0x1D94 JUMP JUMPDEST DUP1 PUSH1 0x1F ADD PUSH1 0x20 DUP1 SWAP2 DIV MUL PUSH1 0x20 ADD PUSH1 0x40 MLOAD SWAP1 DUP2 ADD PUSH1 0x40 MSTORE DUP1 SWAP3 SWAP2 SWAP1 DUP2 DUP2 MSTORE PUSH1 0x20 ADD DUP3 DUP1 SLOAD PUSH2 0x10C7 SWAP1 PUSH2 0x1D94 JUMP JUMPDEST DUP1 ISZERO PUSH2 0x1114 JUMPI DUP1 PUSH1 0x1F LT PUSH2 0x10E9 JUMPI PUSH2 0x100 DUP1 DUP4 SLOAD DIV MUL DUP4 MSTORE SWAP2 PUSH1 0x20 ADD SWAP2 PUSH2 0x1114 JUMP JUMPDEST DUP3 ADD SWAP2 SWAP1 PUSH1 0x0 MSTORE PUSH1 0x20 PUSH1 0x0 KECCAK256 SWAP1 JUMPDEST DUP2 SLOAD DUP2 MSTORE SWAP1 PUSH1 0x1 ADD SWAP1 PUSH1 0x20 ADD DUP1 DUP4 GT PUSH2 0x10F7 JUMPI DUP3 SWAP1 SUB PUSH1 0x1F AND DUP3 ADD SWAP2 JUMPDEST POP POP POP POP POP SWAP1 DUP1 PUSH1 0x9 ADD SLOAD SWAP1 DUP1 PUSH1 0xA ADD SLOAD SWAP1 POP DUP12 JUMP JUMPDEST PUSH1 0x1 PUSH1 0x1 PUSH1 0xA0 SHL SUB DUP2 AND PUSH1 0x0 SWAP1 DUP2 MSTORE PUSH1 0x7 PUSH1 0x20 SWAP1 DUP2 MSTORE PUSH1 0x40 DUP1 DUP4 KECCAK256 DUP1 SLOAD DUP3 MLOAD DUP2 DUP6 MUL DUP2 ADD DUP6 ADD SWAP1 SWAP4 MSTORE DUP1 DUP4 MSTORE DUP5 SWAP4 DUP4 ADD DUP3 DUP3 DUP1 ISZERO PUSH2 0x1187 JUMPI PUSH1 0x20 MUL DUP3 ADD SWAP2 SWAP1 PUSH1 0x0 MSTORE PUSH1 0x20 PUSH1 0x0 KECCAK256 SWAP1 JUMPDEST DUP2 SLOAD DUP2 MSTORE PUSH1 0x20 ADD SWAP1 PUSH1 0x1 ADD SWAP1 DUP1 DUP4 GT PUSH2 0x1173 JUMPI JUMPDEST POP POP POP POP POP SWAP1 POP PUSH1 0x0 SWAP2 POP PUSH1 0x0 JUMPDEST DUP2 MLOAD DUP2 LT ISZERO PUSH2 0x120D JUMPI PUSH1 0x0 PUSH1 0x6 PUSH1 0x0 DUP5 DUP5 DUP2 MLOAD DUP2 LT PUSH2 0x11B6 JUMPI PUSH2 0x11B6 PUSH2 0x1F96 JUMP JUMPDEST PUSH1 0x20 SWAP1 DUP2 MUL SWAP2 SWAP1 SWAP2 ADD DUP2 ADD MLOAD DUP3 MSTORE DUP2 ADD SWAP2 SWAP1 SWAP2 MSTORE PUSH1 0x40 ADD PUSH1 0x0 KECCAK256 PUSH1 0x7 ADD SLOAD PUSH1 0xFF AND PUSH1 0x3 DUP2 GT ISZERO PUSH2 0x11E8 JUMPI PUSH2 0x11E8 PUSH2 0x1B78 JUMP JUMPDEST SUB PUSH2 0x11FB JUMPI DUP3 PUSH2 0x11F7 DUP2 PUSH2 0x1DFD JUMP JUMPDEST SWAP4 POP POP JUMPDEST DUP1 PUSH2 0x1205 DUP2 PUSH2 0x1DFD JUMP JUMPDEST SWAP2 POP POP PUSH2 0x1195 JUMP JUMPDEST POP POP SWAP2 SWAP1 POP JUMP JUMPDEST PUSH1 0x7 PUSH1 0x20 MSTORE DUP2 PUSH1 0x0 MSTORE PUSH1 0x40 PUSH1 0x0 KECCAK256 DUP2 DUP2 SLOAD DUP2 LT PUSH2 0x1230 JUMPI PUSH1 0x0 DUP1 REVERT JUMPDEST SWAP1 PUSH1 0x0 MSTORE PUSH1 0x20 PUSH1 0x0 KECCAK256 ADD PUSH1 0x0 SWAP2 POP SWAP2 POP POP SLOAD DUP2 JUMP JUMPDEST PUSH1 0x1 PUSH1 0x1 PUSH1 0xA0 SHL SUB DUP2 AND PUSH1 0x0 SWAP1 DUP2 MSTORE PUSH1 0x7 PUSH1 0x20 SWAP1 DUP2 MSTORE PUSH1 0x40 SWAP2 DUP3 SWAP1 KECCAK256 DUP1 SLOAD DUP4 MLOAD DUP2 DUP5 MUL DUP2 ADD DUP5 ADD SWAP1 SWAP5 MSTORE DUP1 DUP5 MSTORE PUSH1 0x60 SWAP4 SWAP3 DUP4 ADD DUP3 DUP3 DUP1 ISZERO PUSH2 0x12A5 JUMPI PUSH1 0x20 MUL DUP3 ADD SWAP2 SWAP1 PUSH1 0x0 MSTORE PUSH1 0x20 PUSH1 0x0 KECCAK256 SWAP1 JUMPDEST DUP2 SLOAD DUP2 MSTORE PUSH1 0x20 ADD SWAP1 PUSH1 0x1 ADD SWAP1 DUP1 DUP4 GT PUSH2 0x1291 JUMPI JUMPDEST POP POP POP POP POP SWAP1 POP SWAP2 SWAP1 POP JUMP JUMPDEST PUSH2 0x12B9 PUSH2 0x188E JUMP JUMPDEST PUSH1 0x0 DUP2 GT PUSH2 0x12F9 JUMPI PUSH1 0x40 MLOAD PUSH3 0x461BCD PUSH1 0xE5 SHL DUP2 MSTORE PUSH1 0x20 PUSH1 0x4 DUP3 ADD MSTORE PUSH1 0xD PUSH1 0x24 DUP3 ADD MSTORE PUSH13 0x496E76616C69642064656C6179 PUSH1 0x98 SHL PUSH1 0x44 DUP3 ADD MSTORE PUSH1 0x64 ADD PUSH2 0x3FA JUMP JUMPDEST PUSH1 0x3 SSTORE JUMP JUMPDEST PUSH1 0x0 PUSH2 0x1308 PUSH2 0x190B JUMP JUMPDEST PUSH1 0x0 DUP3 DUP2 MSTORE PUSH1 0x6 PUSH1 0x20 MSTORE PUSH1 0x40 DUP2 KECCAK256 DUP1 SLOAD SWAP1 SWAP2 SUB PUSH2 0x1361 JUMPI PUSH1 0x40 MLOAD PUSH3 0x461BCD PUSH1 0xE5 SHL DUP2 MSTORE PUSH1 0x20 PUSH1 0x4 DUP3 ADD MSTORE PUSH1 0x17 PUSH1 0x24 DUP3 ADD MSTORE PUSH23 0x14D8DA19591D5B1948191BD95CC81B9BDD08195E1A5CDD PUSH1 0x4A SHL PUSH1 0x44 DUP3 ADD MSTORE PUSH1 0x64 ADD PUSH2 0x3FA JUMP JUMPDEST PUSH1 0x0 PUSH1 0x7 DUP3 ADD SLOAD PUSH1 0xFF AND PUSH1 0x3 DUP2 GT ISZERO PUSH2 0x137C JUMPI PUSH2 0x137C PUSH2 0x1B78 JUMP JUMPDEST EQ PUSH2 0x13B7 JUMPI PUSH1 0x40 MLOAD PUSH3 0x461BCD PUSH1 0xE5 SHL DUP2 MSTORE PUSH1 0x20 PUSH1 0x4 DUP3 ADD MSTORE PUSH1 0xB PUSH1 0x24 DUP3 ADD MSTORE PUSH11 0x4E6F742070656E64696E67 PUSH1 0xA8 SHL PUSH1 0x44 DUP3 ADD MSTORE PUSH1 0x64 ADD PUSH2 0x3FA JUMP JUMPDEST DUP1 PUSH1 0x5 ADD SLOAD TIMESTAMP LT ISZERO PUSH2 0x1402 JUMPI PUSH1 0x40 MLOAD PUSH3 0x461BCD PUSH1 0xE5 SHL DUP2 MSTORE PUSH1 0x20 PUSH1 0x4 DUP3 ADD MSTORE PUSH1 0x14 PUSH1 0x24 DUP3 ADD MSTORE PUSH20 0x546F6F206561726C7920746F2065786563757465 PUSH1 0x60 SHL PUSH1 0x44 DUP3 ADD MSTORE PUSH1 0x64 ADD PUSH2 0x3FA JUMP JUMPDEST DUP1 PUSH1 0x6 ADD SLOAD DUP2 PUSH1 0x5 ADD SLOAD PUSH2 0x1416 SWAP2 SWAP1 PUSH2 0x1DE4 JUMP JUMPDEST TIMESTAMP GT ISZERO PUSH2 0x1465 JUMPI PUSH1 0x40 MLOAD PUSH3 0x461BCD PUSH1 0xE5 SHL DUP2 MSTORE PUSH1 0x20 PUSH1 0x4 DUP3 ADD MSTORE PUSH1 0x18 PUSH1 0x24 DUP3 ADD MSTORE PUSH32 0x457865637574696F6E2077696E646F7720657870697265640000000000000000 PUSH1 0x44 DUP3 ADD MSTORE PUSH1 0x64 ADD PUSH2 0x3FA JUMP JUMPDEST PUSH1 0x2 DUP2 ADD SLOAD PUSH1 0x3 DUP3 ADD SLOAD PUSH1 0x40 MLOAD PUSH1 0x0 SWAP3 DUP4 SWAP3 PUSH1 0x1 PUSH1 0x1 PUSH1 0xA0 SHL SUB SWAP1 SWAP2 AND SWAP2 PUSH2 0x1491 SWAP1 PUSH1 0x4 DUP8 ADD SWAP1 PUSH2 0x1FAC JUMP JUMPDEST PUSH1 0x0 PUSH1 0x40 MLOAD DUP1 DUP4 SUB DUP2 DUP6 DUP8 GAS CALL SWAP3 POP POP POP RETURNDATASIZE DUP1 PUSH1 0x0 DUP2 EQ PUSH2 0x14CE JUMPI PUSH1 0x40 MLOAD SWAP2 POP PUSH1 0x1F NOT PUSH1 0x3F RETURNDATASIZE ADD AND DUP3 ADD PUSH1 0x40 MSTORE RETURNDATASIZE DUP3 MSTORE RETURNDATASIZE PUSH1 0x0 PUSH1 0x20 DUP5 ADD RETURNDATACOPY PUSH2 0x14D3 JUMP JUMPDEST PUSH1 0x60 SWAP2 POP JUMPDEST POP SWAP2 POP SWAP2 POP DUP2 ISZERO PUSH2 0x1537 JUMPI PUSH1 0x7 DUP4 ADD DUP1 SLOAD PUSH1 0xFF NOT AND PUSH1 0x1 SWAP1 DUP2 OR SWAP1 SWAP2 SSTORE TIMESTAMP PUSH1 0xA DUP6 ADD SSTORE PUSH1 0x40 MLOAD SWAP1 DUP2 MSTORE DUP6 SWAP1 PUSH32 0xAA0C40FF472FE25C104AA5ABC146463D2406B1776171D7DA7C274285B98C9FEE SWAP1 PUSH1 0x20 ADD PUSH1 0x40 MLOAD DUP1 SWAP2 SUB SWAP1 LOG2 PUSH1 0x1 SWAP4 POP POP POP POP PUSH2 0x15BE JUMP JUMPDEST PUSH1 0x7 DUP4 ADD DUP1 SLOAD PUSH1 0xFF NOT AND PUSH1 0x3 OR SWAP1 SSTORE PUSH1 0x40 MLOAD DUP6 SWAP1 PUSH32 0x3848B1D8886A93ABC8F3F123989D960AF7AEA344D7F871CA7708AC63AA4E522 SWAP1 PUSH2 0x1578 SWAP1 DUP5 SWAP1 PUSH2 0x2022 JUMP JUMPDEST PUSH1 0x40 MLOAD DUP1 SWAP2 SUB SWAP1 LOG2 PUSH1 0x40 MLOAD PUSH1 0x0 DUP2 MSTORE DUP6 SWAP1 PUSH32 0xAA0C40FF472FE25C104AA5ABC146463D2406B1776171D7DA7C274285B98C9FEE SWAP1 PUSH1 0x20 ADD PUSH1 0x40 MLOAD DUP1 SWAP2 SUB SWAP1 LOG2 PUSH1 0x0 SWAP4 POP POP POP POP JUMPDEST PUSH2 0x15C7 PUSH1 0x1 DUP1 SSTORE JUMP JUMPDEST SWAP2 SWAP1 POP JUMP JUMPDEST PUSH2 0x15D4 PUSH2 0x1935 JUMP JUMPDEST PUSH1 0x0 DUP3 DUP2 MSTORE PUSH1 0x6 PUSH1 0x20 SWAP1 DUP2 MSTORE PUSH1 0x40 SWAP2 DUP3 SWAP1 KECCAK256 DUP3 MLOAD PUSH2 0x160 DUP2 ADD DUP5 MSTORE DUP2 SLOAD DUP2 MSTORE PUSH1 0x1 DUP3 ADD SLOAD PUSH1 0x1 PUSH1 0x1 PUSH1 0xA0 SHL SUB SWAP1 DUP2 AND SWAP4 DUP3 ADD SWAP4 SWAP1 SWAP4 MSTORE PUSH1 0x2 DUP3 ADD SLOAD SWAP1 SWAP3 AND SWAP3 DUP3 ADD SWAP3 SWAP1 SWAP3 MSTORE PUSH1 0x3 DUP3 ADD SLOAD PUSH1 0x60 DUP3 ADD MSTORE PUSH1 0x4 DUP3 ADD DUP1 SLOAD SWAP2 SWAP3 SWAP2 PUSH1 0x80 DUP5 ADD SWAP2 SWAP1 PUSH2 0x163B SWAP1 PUSH2 0x1D94 JUMP JUMPDEST DUP1 PUSH1 0x1F ADD PUSH1 0x20 DUP1 SWAP2 DIV MUL PUSH1 0x20 ADD PUSH1 0x40 MLOAD SWAP1 DUP2 ADD PUSH1 0x40 MSTORE DUP1 SWAP3 SWAP2 SWAP1 DUP2 DUP2 MSTORE PUSH1 0x20 ADD DUP3 DUP1 SLOAD PUSH2 0x1667 SWAP1 PUSH2 0x1D94 JUMP JUMPDEST DUP1 ISZERO PUSH2 0x16B4 JUMPI DUP1 PUSH1 0x1F LT PUSH2 0x1689 JUMPI PUSH2 0x100 DUP1 DUP4 SLOAD DIV MUL DUP4 MSTORE SWAP2 PUSH1 0x20 ADD SWAP2 PUSH2 0x16B4 JUMP JUMPDEST DUP3 ADD SWAP2 SWAP1 PUSH1 0x0 MSTORE PUSH1 0x20 PUSH1 0x0 KECCAK256 SWAP1 JUMPDEST DUP2 SLOAD DUP2 MSTORE SWAP1 PUSH1 0x1 ADD SWAP1 PUSH1 0x20 ADD DUP1 DUP4 GT PUSH2 0x1697 JUMPI DUP3 SWAP1 SUB PUSH1 0x1F AND DUP3 ADD SWAP2 JUMPDEST POP POP POP SWAP2 DUP4 MSTORE POP POP PUSH1 0x5 DUP3 ADD SLOAD PUSH1 0x20 DUP3 ADD MSTORE PUSH1 0x6 DUP3 ADD SLOAD PUSH1 0x40 DUP3 ADD MSTORE PUSH1 0x7 DUP3 ADD SLOAD PUSH1 0x60 SWAP1 SWAP2 ADD SWAP1 PUSH1 0xFF AND PUSH1 0x3 DUP2 GT ISZERO PUSH2 0x16EF JUMPI PUSH2 0x16EF PUSH2 0x1B78 JUMP JUMPDEST PUSH1 0x3 DUP2 GT ISZERO PUSH2 0x1700 JUMPI PUSH2 0x1700 PUSH2 0x1B78 JUMP JUMPDEST DUP2 MSTORE PUSH1 0x20 ADD PUSH1 0x8 DUP3 ADD DUP1 SLOAD PUSH2 0x1714 SWAP1 PUSH2 0x1D94 JUMP JUMPDEST DUP1 PUSH1 0x1F ADD PUSH1 0x20 DUP1 SWAP2 DIV MUL PUSH1 0x20 ADD PUSH1 0x40 MLOAD SWAP1 DUP2 ADD PUSH1 0x40 MSTORE DUP1 SWAP3 SWAP2 SWAP1 DUP2 DUP2 MSTORE PUSH1 0x20 ADD DUP3 DUP1 SLOAD PUSH2 0x1740 SWAP1 PUSH2 0x1D94 JUMP JUMPDEST DUP1 ISZERO PUSH2 0x178D JUMPI DUP1 PUSH1 0x1F LT PUSH2 0x1762 JUMPI PUSH2 0x100 DUP1 DUP4 SLOAD DIV MUL DUP4 MSTORE SWAP2 PUSH1 0x20 ADD SWAP2 PUSH2 0x178D JUMP JUMPDEST DUP3 ADD SWAP2 SWAP1 PUSH1 0x0 MSTORE PUSH1 0x20 PUSH1 0x0 KECCAK256 SWAP1 JUMPDEST DUP2 SLOAD DUP2 MSTORE SWAP1 PUSH1 0x1 ADD SWAP1 PUSH1 0x20 ADD DUP1 DUP4 GT PUSH2 0x1770 JUMPI DUP3 SWAP1 SUB PUSH1 0x1F AND DUP3 ADD SWAP2 JUMPDEST POP POP POP POP POP DUP2 MSTORE PUSH1 0x20 ADD PUSH1 0x9 DUP3 ADD SLOAD DUP2 MSTORE PUSH1 0x20 ADD PUSH1 0xA DUP3 ADD SLOAD DUP2 MSTORE POP POP SWAP1 POP SWAP2 SWAP1 POP JUMP JUMPDEST PUSH2 0x17B9 PUSH2 0x188E JUMP JUMPDEST PUSH1 0x0 DUP1 SLOAD PUSH1 0x40 MLOAD PUSH1 0x1 PUSH1 0x1 PUSH1 0xA0 SHL SUB SWAP1 SWAP2 AND SWAP1 SELFBALANCE SWAP1 DUP4 DUP2 DUP2 DUP2 DUP6 DUP8 GAS CALL SWAP3 POP POP POP RETURNDATASIZE DUP1 PUSH1 0x0 DUP2 EQ PUSH2 0x1806 JUMPI PUSH1 0x40 MLOAD SWAP2 POP PUSH1 0x1F NOT PUSH1 0x3F RETURNDATASIZE ADD AND DUP3 ADD PUSH1 0x40 MSTORE RETURNDATASIZE DUP3 MSTORE RETURNDATASIZE PUSH1 0x0 PUSH1 0x20 DUP5 ADD RETURNDATACOPY PUSH2 0x180B JUMP JUMPDEST PUSH1 0x60 SWAP2 POP JUMPDEST POP POP SWAP1 POP DUP1 PUSH2 0x1850 JUMPI PUSH1 0x40 MLOAD PUSH3 0x461BCD PUSH1 0xE5 SHL DUP2 MSTORE PUSH1 0x20 PUSH1 0x4 DUP3 ADD MSTORE PUSH1 0x11 PUSH1 0x24 DUP3 ADD MSTORE PUSH17 0x15DA5D1A191C985DD85B0819985A5B1959 PUSH1 0x7A SHL PUSH1 0x44 DUP3 ADD MSTORE PUSH1 0x64 ADD PUSH2 0x3FA JUMP JUMPDEST POP JUMP JUMPDEST PUSH2 0x185B PUSH2 0x188E JUMP JUMPDEST PUSH1 0x1 PUSH1 0x1 PUSH1 0xA0 SHL SUB DUP2 AND PUSH2 0x1885 JUMPI PUSH1 0x40 MLOAD PUSH4 0x1E4FBDF7 PUSH1 0xE0 SHL DUP2 MSTORE PUSH1 0x0 PUSH1 0x4 DUP3 ADD MSTORE PUSH1 0x24 ADD PUSH2 0x3FA JUMP JUMPDEST PUSH2 0x1850 DUP2 PUSH2 0x18BB JUMP JUMPDEST PUSH1 0x0 SLOAD PUSH1 0x1 PUSH1 0x1 PUSH1 0xA0 SHL SUB AND CALLER EQ PUSH2 0xFAD JUMPI PUSH1 0x40 MLOAD PUSH4 0x118CDAA7 PUSH1 0xE0 SHL DUP2 MSTORE CALLER PUSH1 0x4 DUP3 ADD MSTORE PUSH1 0x24 ADD PUSH2 0x3FA JUMP JUMPDEST PUSH1 0x0 DUP1 SLOAD PUSH1 0x1 PUSH1 0x1 PUSH1 0xA0 SHL SUB DUP4 DUP2 AND PUSH1 0x1 PUSH1 0x1 PUSH1 0xA0 SHL SUB NOT DUP4 AND DUP2 OR DUP5 SSTORE PUSH1 0x40 MLOAD SWAP2 SWAP1 SWAP3 AND SWAP3 DUP4 SWAP2 PUSH32 0x8BE0079C531659141344CD1FD0A4F28419497F9722A3DAAFE3B4186F6B6457E0 SWAP2 SWAP1 LOG3 POP POP JUMP JUMPDEST PUSH1 0x2 PUSH1 0x1 SLOAD SUB PUSH2 0x192E JUMPI PUSH1 0x40 MLOAD PUSH4 0x3EE5AEB5 PUSH1 0xE0 SHL DUP2 MSTORE PUSH1 0x4 ADD PUSH1 0x40 MLOAD DUP1 SWAP2 SUB SWAP1 REVERT JUMPDEST PUSH1 0x2 PUSH1 0x1 SSTORE JUMP JUMPDEST PUSH1 0x40 MLOAD DUP1 PUSH2 0x160 ADD PUSH1 0x40 MSTORE DUP1 PUSH1 0x0 DUP2 MSTORE PUSH1 0x20 ADD PUSH1 0x0 PUSH1 0x1 PUSH1 0x1 PUSH1 0xA0 SHL SUB AND DUP2 MSTORE PUSH1 0x20 ADD PUSH1 0x0 PUSH1 0x1 PUSH1 0x1 PUSH1 0xA0 SHL SUB AND DUP2 MSTORE PUSH1 0x20 ADD PUSH1 0x0 DUP2 MSTORE PUSH1 0x20 ADD PUSH1 0x60 DUP2 MSTORE PUSH1 0x20 ADD PUSH1 0x0 DUP2 MSTORE PUSH1 0x20 ADD PUSH1 0x0 DUP2 MSTORE PUSH1 0x20 ADD PUSH1 0x0 PUSH1 0x3 DUP2 GT ISZERO PUSH2 0x1997 JUMPI PUSH2 0x1997 PUSH2 0x1B78 JUMP JUMPDEST DUP2 MSTORE PUSH1 0x20 ADD PUSH1 0x60 DUP2 MSTORE PUSH1 0x20 ADD PUSH1 0x0 DUP2 MSTORE PUSH1 0x20 ADD PUSH1 0x0 DUP2 MSTORE POP SWAP1 JUMP JUMPDEST PUSH1 0x0 PUSH1 0x20 DUP3 DUP5 SUB SLT ISZERO PUSH2 0x19C4 JUMPI PUSH1 0x0 DUP1 REVERT JUMPDEST POP CALLDATALOAD SWAP2 SWAP1 POP JUMP JUMPDEST PUSH1 0x1 PUSH1 0x1 PUSH1 0xA0 SHL SUB DUP2 AND DUP2 EQ PUSH2 0x1850 JUMPI PUSH1 0x0 DUP1 REVERT JUMPDEST PUSH1 0x0 DUP1 DUP4 PUSH1 0x1F DUP5 ADD SLT PUSH2 0x19F2 JUMPI PUSH1 0x0 DUP1 REVERT JUMPDEST POP DUP2 CALLDATALOAD PUSH8 0xFFFFFFFFFFFFFFFF DUP2 GT ISZERO PUSH2 0x1A0A JUMPI PUSH1 0x0 DUP1 REVERT JUMPDEST PUSH1 0x20 DUP4 ADD SWAP2 POP DUP4 PUSH1 0x20 DUP3 DUP6 ADD ADD GT ISZERO PUSH2 0x1A22 JUMPI PUSH1 0x0 DUP1 REVERT JUMPDEST SWAP3 POP SWAP3 SWAP1 POP JUMP JUMPDEST PUSH1 0x0 DUP1 PUSH1 0x0 DUP1 PUSH1 0x0 PUSH1 0x80 DUP7 DUP9 SUB SLT ISZERO PUSH2 0x1A41 JUMPI PUSH1 0x0 DUP1 REVERT JUMPDEST DUP6 CALLDATALOAD PUSH2 0x1A4C DUP2 PUSH2 0x19CB JUMP JUMPDEST SWAP5 POP PUSH1 0x20 DUP7 ADD CALLDATALOAD SWAP4 POP PUSH1 0x40 DUP7 ADD CALLDATALOAD SWAP3 POP PUSH1 0x60 DUP7 ADD CALLDATALOAD PUSH8 0xFFFFFFFFFFFFFFFF DUP2 GT ISZERO PUSH2 0x1A76 JUMPI PUSH1 0x0 DUP1 REVERT JUMPDEST PUSH2 0x1A82 DUP9 DUP3 DUP10 ADD PUSH2 0x19E0 JUMP JUMPDEST SWAP7 SWAP10 SWAP6 SWAP9 POP SWAP4 SWAP7 POP SWAP3 SWAP5 SWAP4 SWAP3 POP POP POP JUMP JUMPDEST PUSH1 0x0 DUP1 PUSH1 0x0 DUP1 PUSH1 0x0 DUP1 PUSH1 0x0 DUP1 PUSH1 0xC0 DUP10 DUP12 SUB SLT ISZERO PUSH2 0x1AAF JUMPI PUSH1 0x0 DUP1 REVERT JUMPDEST DUP9 CALLDATALOAD PUSH2 0x1ABA DUP2 PUSH2 0x19CB JUMP JUMPDEST SWAP8 POP PUSH1 0x20 DUP10 ADD CALLDATALOAD SWAP7 POP PUSH1 0x40 DUP10 ADD CALLDATALOAD PUSH8 0xFFFFFFFFFFFFFFFF DUP1 DUP3 GT ISZERO PUSH2 0x1ADE JUMPI PUSH1 0x0 DUP1 REVERT JUMPDEST PUSH2 0x1AEA DUP13 DUP4 DUP14 ADD PUSH2 0x19E0 JUMP JUMPDEST SWAP1 SWAP9 POP SWAP7 POP PUSH1 0x60 DUP12 ADD CALLDATALOAD SWAP6 POP PUSH1 0x80 DUP12 ADD CALLDATALOAD SWAP5 POP PUSH1 0xA0 DUP12 ADD CALLDATALOAD SWAP2 POP DUP1 DUP3 GT ISZERO PUSH2 0x1B11 JUMPI PUSH1 0x0 DUP1 REVERT JUMPDEST POP PUSH2 0x1B1E DUP12 DUP3 DUP13 ADD PUSH2 0x19E0 JUMP JUMPDEST SWAP10 SWAP13 SWAP9 SWAP12 POP SWAP7 SWAP10 POP SWAP5 SWAP8 SWAP4 SWAP7 SWAP3 SWAP6 SWAP5 POP POP POP JUMP JUMPDEST PUSH1 0x0 DUP2 MLOAD DUP1 DUP5 MSTORE PUSH1 0x0 JUMPDEST DUP2 DUP2 LT ISZERO PUSH2 0x1B58 JUMPI PUSH1 0x20 DUP2 DUP6 ADD DUP2 ADD MLOAD DUP7 DUP4 ADD DUP3 ADD MSTORE ADD PUSH2 0x1B3C JUMP JUMPDEST POP PUSH1 0x0 PUSH1 0x20 DUP3 DUP7 ADD ADD MSTORE PUSH1 0x20 PUSH1 0x1F NOT PUSH1 0x1F DUP4 ADD AND DUP6 ADD ADD SWAP2 POP POP SWAP3 SWAP2 POP POP JUMP JUMPDEST PUSH4 0x4E487B71 PUSH1 0xE0 SHL PUSH1 0x0 MSTORE PUSH1 0x21 PUSH1 0x4 MSTORE PUSH1 0x24 PUSH1 0x0 REVERT JUMPDEST PUSH1 0x4 DUP2 LT PUSH2 0x1BAC JUMPI PUSH4 0x4E487B71 PUSH1 0xE0 SHL PUSH1 0x0 MSTORE PUSH1 0x21 PUSH1 0x4 MSTORE PUSH1 0x24 PUSH1 0x0 REVERT JUMPDEST SWAP1 MSTORE JUMP JUMPDEST DUP12 DUP2 MSTORE PUSH1 0x1 PUSH1 0x1 PUSH1 0xA0 SHL SUB DUP12 DUP2 AND PUSH1 0x20 DUP4 ADD MSTORE DUP11 AND PUSH1 0x40 DUP3 ADD MSTORE PUSH1 0x60 DUP2 ADD DUP10 SWAP1 MSTORE PUSH2 0x160 PUSH1 0x80 DUP3 ADD DUP2 SWAP1 MSTORE PUSH1 0x0 SWAP1 PUSH2 0x1BEA DUP4 DUP3 ADD DUP12 PUSH2 0x1B32 JUMP JUMPDEST SWAP1 POP DUP9 PUSH1 0xA0 DUP5 ADD MSTORE DUP8 PUSH1 0xC0 DUP5 ADD MSTORE PUSH2 0x1C05 PUSH1 0xE0 DUP5 ADD DUP9 PUSH2 0x1B8E JUMP JUMPDEST DUP3 DUP2 SUB PUSH2 0x100 DUP5 ADD MSTORE PUSH2 0x1C18 DUP2 DUP8 PUSH2 0x1B32 JUMP JUMPDEST PUSH2 0x120 DUP5 ADD SWAP6 SWAP1 SWAP6 MSTORE POP POP PUSH2 0x140 ADD MSTORE SWAP10 SWAP9 POP POP POP POP POP POP POP POP POP JUMP JUMPDEST PUSH1 0x0 PUSH1 0x20 DUP3 DUP5 SUB SLT ISZERO PUSH2 0x1C47 JUMPI PUSH1 0x0 DUP1 REVERT JUMPDEST DUP2 CALLDATALOAD PUSH2 0x1C52 DUP2 PUSH2 0x19CB JUMP JUMPDEST SWAP4 SWAP3 POP POP POP JUMP JUMPDEST PUSH1 0x0 DUP1 PUSH1 0x40 DUP4 DUP6 SUB SLT ISZERO PUSH2 0x1C6C JUMPI PUSH1 0x0 DUP1 REVERT JUMPDEST DUP3 CALLDATALOAD PUSH2 0x1C77 DUP2 PUSH2 0x19CB JUMP JUMPDEST SWAP5 PUSH1 0x20 SWAP4 SWAP1 SWAP4 ADD CALLDATALOAD SWAP4 POP POP POP JUMP JUMPDEST PUSH1 0x20 DUP1 DUP3 MSTORE DUP3 MLOAD DUP3 DUP3 ADD DUP2 SWAP1 MSTORE PUSH1 0x0 SWAP2 SWAP1 DUP5 DUP3 ADD SWAP1 PUSH1 0x40 DUP6 ADD SWAP1 DUP5 JUMPDEST DUP2 DUP2 LT ISZERO PUSH2 0x1CBD JUMPI DUP4 MLOAD DUP4 MSTORE SWAP3 DUP5 ADD SWAP3 SWAP2 DUP5 ADD SWAP2 PUSH1 0x1 ADD PUSH2 0x1CA1 JUMP JUMPDEST POP SWAP1 SWAP7 SWAP6 POP POP POP POP POP POP JUMP JUMPDEST PUSH1 0x20 DUP2 MSTORE DUP2 MLOAD PUSH1 0x20 DUP3 ADD MSTORE PUSH1 0x0 PUSH1 0x20 DUP4 ADD MLOAD PUSH2 0x1CF0 PUSH1 0x40 DUP5 ADD DUP3 PUSH1 0x1 PUSH1 0x1 PUSH1 0xA0 SHL SUB AND SWAP1 MSTORE JUMP JUMPDEST POP PUSH1 0x40 DUP4 ADD MLOAD PUSH1 0x1 PUSH1 0x1 PUSH1 0xA0 SHL SUB DUP2 AND PUSH1 0x60 DUP5 ADD MSTORE POP PUSH1 0x60 DUP4 ADD MLOAD PUSH1 0x80 DUP4 ADD MSTORE PUSH1 0x80 DUP4 ADD MLOAD PUSH2 0x160 DUP1 PUSH1 0xA0 DUP6 ADD MSTORE PUSH2 0x1D2C PUSH2 0x180 DUP6 ADD DUP4 PUSH2 0x1B32 JUMP JUMPDEST SWAP2 POP PUSH1 0xA0 DUP6 ADD MLOAD PUSH1 0xC0 DUP6 ADD MSTORE PUSH1 0xC0 DUP6 ADD MLOAD PUSH1 0xE0 DUP6 ADD MSTORE PUSH1 0xE0 DUP6 ADD MLOAD PUSH2 0x100 PUSH2 0x1D56 DUP2 DUP8 ADD DUP4 PUSH2 0x1B8E JUMP JUMPDEST DUP1 DUP8 ADD MLOAD SWAP2 POP POP PUSH2 0x120 PUSH1 0x1F NOT DUP7 DUP6 SUB ADD DUP2 DUP8 ADD MSTORE PUSH2 0x1D75 DUP5 DUP4 PUSH2 0x1B32 JUMP JUMPDEST SWAP1 DUP8 ADD MLOAD PUSH2 0x140 DUP8 DUP2 ADD SWAP2 SWAP1 SWAP2 MSTORE SWAP1 SWAP7 ADD MLOAD SWAP2 SWAP1 SWAP5 ADD MSTORE POP SWAP2 SWAP3 SWAP2 POP POP JUMP JUMPDEST PUSH1 0x1 DUP2 DUP2 SHR SWAP1 DUP3 AND DUP1 PUSH2 0x1DA8 JUMPI PUSH1 0x7F DUP3 AND SWAP2 POP JUMPDEST PUSH1 0x20 DUP3 LT DUP2 SUB PUSH2 0x1DC8 JUMPI PUSH4 0x4E487B71 PUSH1 0xE0 SHL PUSH1 0x0 MSTORE PUSH1 0x22 PUSH1 0x4 MSTORE PUSH1 0x24 PUSH1 0x0 REVERT JUMPDEST POP SWAP2 SWAP1 POP JUMP JUMPDEST PUSH4 0x4E487B71 PUSH1 0xE0 SHL PUSH1 0x0 MSTORE PUSH1 0x11 PUSH1 0x4 MSTORE PUSH1 0x24 PUSH1 0x0 REVERT JUMPDEST DUP1 DUP3 ADD DUP1 DUP3 GT ISZERO PUSH2 0x1DF7 JUMPI PUSH2 0x1DF7 PUSH2 0x1DCE JUMP JUMPDEST SWAP3 SWAP2 POP POP JUMP JUMPDEST PUSH1 0x0 PUSH1 0x1 DUP3 ADD PUSH2 0x1E0F JUMPI PUSH2 0x1E0F PUSH2 0x1DCE JUMP JUMPDEST POP PUSH1 0x1 ADD SWAP1 JUMP JUMPDEST PUSH4 0x4E487B71 PUSH1 0xE0 SHL PUSH1 0x0 MSTORE PUSH1 0x41 PUSH1 0x4 MSTORE PUSH1 0x24 PUSH1 0x0 REVERT JUMPDEST PUSH1 0x1F DUP3 GT ISZERO PUSH2 0x1E76 JUMPI PUSH1 0x0 DUP2 DUP2 MSTORE PUSH1 0x20 DUP2 KECCAK256 PUSH1 0x1F DUP6 ADD PUSH1 0x5 SHR DUP2 ADD PUSH1 0x20 DUP7 LT ISZERO PUSH2 0x1E53 JUMPI POP DUP1 JUMPDEST PUSH1 0x1F DUP6 ADD PUSH1 0x5 SHR DUP3 ADD SWAP2 POP JUMPDEST DUP2 DUP2 LT ISZERO PUSH2 0x1E72 JUMPI DUP3 DUP2 SSTORE PUSH1 0x1 ADD PUSH2 0x1E5F JUMP JUMPDEST POP POP POP JUMPDEST POP POP POP JUMP JUMPDEST DUP2 MLOAD PUSH8 0xFFFFFFFFFFFFFFFF DUP2 GT ISZERO PUSH2 0x1E95 JUMPI PUSH2 0x1E95 PUSH2 0x1E16 JUMP JUMPDEST PUSH2 0x1EA9 DUP2 PUSH2 0x1EA3 DUP5 SLOAD PUSH2 0x1D94 JUMP JUMPDEST DUP5 PUSH2 0x1E2C JUMP JUMPDEST PUSH1 0x20 DUP1 PUSH1 0x1F DUP4 GT PUSH1 0x1 DUP2 EQ PUSH2 0x1EDE JUMPI PUSH1 0x0 DUP5 ISZERO PUSH2 0x1EC6 JUMPI POP DUP6 DUP4 ADD MLOAD JUMPDEST PUSH1 0x0 NOT PUSH1 0x3 DUP7 SWAP1 SHL SHR NOT AND PUSH1 0x1 DUP6 SWAP1 SHL OR DUP6 SSTORE PUSH2 0x1E72 JUMP JUMPDEST PUSH1 0x0 DUP6 DUP2 MSTORE PUSH1 0x20 DUP2 KECCAK256 PUSH1 0x1F NOT DUP7 AND SWAP2 JUMPDEST DUP3 DUP2 LT ISZERO PUSH2 0x1F0D JUMPI DUP9 DUP7 ADD MLOAD DUP3 SSTORE SWAP5 DUP5 ADD SWAP5 PUSH1 0x1 SWAP1 SWAP2 ADD SWAP1 DUP5 ADD PUSH2 0x1EEE JUMP JUMPDEST POP DUP6 DUP3 LT ISZERO PUSH2 0x1F2B JUMPI DUP8 DUP6 ADD MLOAD PUSH1 0x0 NOT PUSH1 0x3 DUP9 SWAP1 SHL PUSH1 0xF8 AND SHR NOT AND DUP2 SSTORE JUMPDEST POP POP POP POP POP PUSH1 0x1 SWAP1 DUP2 SHL ADD SWAP1 SSTORE POP JUMP JUMPDEST DUP2 DUP4 MSTORE DUP2 DUP2 PUSH1 0x20 DUP6 ADD CALLDATACOPY POP PUSH1 0x0 DUP3 DUP3 ADD PUSH1 0x20 SWAP1 DUP2 ADD SWAP2 SWAP1 SWAP2 MSTORE PUSH1 0x1F SWAP1 SWAP2 ADD PUSH1 0x1F NOT AND SWAP1 SWAP2 ADD ADD SWAP1 JUMP JUMPDEST PUSH1 0x1 DUP1 PUSH1 0xA0 SHL SUB DUP6 AND DUP2 MSTORE DUP4 PUSH1 0x20 DUP3 ADD MSTORE PUSH1 0x60 PUSH1 0x40 DUP3 ADD MSTORE PUSH1 0x0 PUSH2 0x1F8C PUSH1 0x60 DUP4 ADD DUP5 DUP7 PUSH2 0x1F3B JUMP JUMPDEST SWAP7 SWAP6 POP POP POP POP POP POP JUMP JUMPDEST PUSH4 0x4E487B71 PUSH1 0xE0 SHL PUSH1 0x0 MSTORE PUSH1 0x32 PUSH1 0x4 MSTORE PUSH1 0x24 PUSH1 0x0 REVERT JUMPDEST PUSH1 0x0 DUP1 DUP4 SLOAD PUSH2 0x1FBA DUP2 PUSH2 0x1D94 JUMP JUMPDEST PUSH1 0x1 DUP3 DUP2 AND DUP1 ISZERO PUSH2 0x1FD2 JUMPI PUSH1 0x1 DUP2 EQ PUSH2 0x1FE7 JUMPI PUSH2 0x2016 JUMP JUMPDEST PUSH1 0xFF NOT DUP5 AND DUP8 MSTORE DUP3 ISZERO ISZERO DUP4 MUL DUP8 ADD SWAP5 POP PUSH2 0x2016 JUMP JUMPDEST DUP8 PUSH1 0x0 MSTORE PUSH1 0x20 DUP1 PUSH1 0x0 KECCAK256 PUSH1 0x0 JUMPDEST DUP6 DUP2 LT ISZERO PUSH2 0x200D JUMPI DUP2 SLOAD DUP11 DUP3 ADD MSTORE SWAP1 DUP5 ADD SWAP1 DUP3 ADD PUSH2 0x1FF4 JUMP JUMPDEST POP POP POP DUP3 DUP8 ADD SWAP5 POP JUMPDEST POP SWAP3 SWAP7 SWAP6 POP POP POP POP POP POP JUMP JUMPDEST PUSH1 0x20 DUP2 MSTORE PUSH1 0x0 PUSH2 0x1C52 PUSH1 0x20 DUP4 ADD DUP5 PUSH2 0x1B32 JUMP INVALID LOG2 PUSH5 0x6970667358 0x22 SLT KECCAK256 CALLVALUE 0xBE 0xBD BASEFEE 0xD5 0xD 0xCB 0xE2 SWAP16 0xE2 SMOD PUSH11 0x8CEECCF0E6CB1ADDC8A9AB DUP1 0xF8 EXTCODESIZE 0xC5 0xD9 0xDF 0xD1 GAS 0x2E PUSH5 0x736F6C6343 STOP ADDMOD EQ STOP CALLER "},"methodIdentifiers":{"cancelScheduledTransaction(uint256)":"2774ad8e","defaultWindow()":"78ee44fd","executeScheduledTransaction(uint256)":"c11b15ca","getPendingSchedulesCount(address)":"90a85d8d","getSchedule(uint256)":"c5ca93a7","getUserSchedules(address)":"b40b223d","isReadyToExecute(uint256)":"28dfa615","maxDelay()":"ed49d2f8","minDelay()":"c63c4e9b","nextScheduleId()":"0f038d41","owner()":"8da5cb5b","renounceOwnership()":"715018a6","scheduleTransaction(address,uint256,bytes,uint256,uint256,string)":"4f2f9c32","scheduleTransfer(address,uint256,uint256,string)":"2ab4ab3e","scheduledTransactions(uint256)":"83000979","setMaxDelay(uint256)":"106ca3c3","setMinDelay(uint256)":"ba29482f","transferOwnership(address)":"f2fde38b","userSchedules(address,uint256)":"9e3f8e90","withdrawETH()":"e086e5ec"}}}}}