{"contracts/LendingProtocol.sol":{"LendingProtocol":{"abi":[{"inputs":[],"stateMutability":"nonpayable","type":"constructor"},{"inputs":[{"internalType":"address","name":"owner","type":"address"}],"name":"OwnableInvalidOwner","type":"error"},{"inputs":[{"internalType":"address","name":"account","type":"address"}],"name":"OwnableUnauthorizedAccount","type":"error"},{"inputs":[],"name":"ReentrancyGuardReentrantCall","type":"error"},{"inputs":[{"internalType":"address","name":"token","type":"address"}],"name":"SafeERC20FailedOperation","type":"error"},{"anonymous":false,"inputs":[{"indexed":true,"internalType":"address","name":"user","type":"address"},{"indexed":true,"internalType":"address","name":"token","type":"address"},{"indexed":false,"internalType":"uint256","name":"amount","type":"uint256"},{"indexed":false,"internalType":"uint256","name":"collateral","type":"uint256"}],"name":"Borrowed","type":"event"},{"anonymous":false,"inputs":[{"indexed":true,"internalType":"address","name":"user","type":"address"},{"indexed":true,"internalType":"address","name":"token","type":"address"},{"indexed":false,"internalType":"uint256","name":"amount","type":"uint256"}],"name":"Deposited","type":"event"},{"anonymous":false,"inputs":[{"indexed":true,"internalType":"address","name":"borrower","type":"address"},{"indexed":true,"internalType":"address","name":"liquidator","type":"address"},{"indexed":false,"internalType":"uint256","name":"amount","type":"uint256"}],"name":"Liquidated","type":"event"},{"anonymous":false,"inputs":[{"indexed":true,"internalType":"address","name":"previousOwner","type":"address"},{"indexed":true,"internalType":"address","name":"newOwner","type":"address"}],"name":"OwnershipTransferred","type":"event"},{"anonymous":false,"inputs":[{"indexed":true,"internalType":"address","name":"token","type":"address"},{"indexed":false,"internalType":"uint256","name":"initialInterestRate","type":"uint256"}],"name":"PoolCreated","type":"event"},{"anonymous":false,"inputs":[{"indexed":true,"internalType":"address","name":"user","type":"address"},{"indexed":true,"internalType":"address","name":"token","type":"address"},{"indexed":false,"internalType":"uint256","name":"amount","type":"uint256"},{"indexed":false,"internalType":"uint256","name":"interest","type":"uint256"}],"name":"Repaid","type":"event"},{"anonymous":false,"inputs":[{"indexed":true,"internalType":"address","name":"user","type":"address"},{"indexed":true,"internalType":"address","name":"token","type":"address"},{"indexed":false,"internalType":"uint256","name":"amount","type":"uint256"},{"indexed":false,"internalType":"uint256","name":"interest","type":"uint256"}],"name":"Withdrawn","type":"event"},{"inputs":[],"name":"INTEREST_RATE_BASE","outputs":[{"internalType":"uint256","name":"","type":"uint256"}],"stateMutability":"view","type":"function"},{"inputs":[],"name":"LIQUIDATION_PENALTY","outputs":[{"internalType":"uint256","name":"","type":"uint256"}],"stateMutability":"view","type":"function"},{"inputs":[],"name":"LIQUIDATION_THRESHOLD","outputs":[{"internalType":"uint256","name":"","type":"uint256"}],"stateMutability":"view","type":"function"},{"inputs":[],"name":"SECONDS_PER_YEAR","outputs":[{"internalType":"uint256","name":"","type":"uint256"}],"stateMutability":"view","type":"function"},{"inputs":[{"internalType":"address","name":"token","type":"address"},{"internalType":"uint256","name":"amount","type":"uint256"}],"name":"borrow","outputs":[],"stateMutability":"payable","type":"function"},{"inputs":[{"internalType":"address","name":"","type":"address"}],"name":"collateralValues","outputs":[{"internalType":"uint256","name":"","type":"uint256"}],"stateMutability":"view","type":"function"},{"inputs":[{"internalType":"address","name":"token","type":"address"},{"internalType":"uint256","name":"initialInterestRate","type":"uint256"}],"name":"createPool","outputs":[],"stateMutability":"nonpayable","type":"function"},{"inputs":[{"internalType":"address","name":"token","type":"address"},{"internalType":"uint256","name":"amount","type":"uint256"}],"name":"deposit","outputs":[],"stateMutability":"nonpayable","type":"function"},{"inputs":[{"internalType":"address","name":"","type":"address"},{"internalType":"address","name":"","type":"address"}],"name":"deposits","outputs":[{"internalType":"uint256","name":"amount","type":"uint256"},{"internalType":"uint256","name":"shares","type":"uint256"},{"internalType":"uint256","name":"depositTime","type":"uint256"},{"internalType":"uint256","name":"interestEarned","type":"uint256"}],"stateMutability":"view","type":"function"},{"inputs":[{"internalType":"address","name":"token","type":"address"}],"name":"getPoolUtilization","outputs":[{"internalType":"uint256","name":"utilization","type":"uint256"}],"stateMutability":"view","type":"function"},{"inputs":[],"name":"getSupportedTokens","outputs":[{"internalType":"address[]","name":"tokens","type":"address[]"}],"stateMutability":"view","type":"function"},{"inputs":[{"internalType":"address","name":"token","type":"address"},{"internalType":"address","name":"user","type":"address"}],"name":"getUserDeposit","outputs":[{"internalType":"uint256","name":"amount","type":"uint256"},{"internalType":"uint256","name":"interest","type":"uint256"}],"stateMutability":"view","type":"function"},{"inputs":[{"internalType":"address","name":"token","type":"address"},{"internalType":"address","name":"user","type":"address"}],"name":"getUserLoan","outputs":[{"internalType":"uint256","name":"borrowed","type":"uint256"},{"internalType":"uint256","name":"collateral","type":"uint256"},{"internalType":"uint256","name":"interest","type":"uint256"}],"stateMutability":"view","type":"function"},{"inputs":[{"internalType":"address","name":"borrower","type":"address"},{"internalType":"address","name":"token","type":"address"}],"name":"liquidate","outputs":[],"stateMutability":"nonpayable","type":"function"},{"inputs":[{"internalType":"address","name":"","type":"address"},{"internalType":"address","name":"","type":"address"}],"name":"loans","outputs":[{"internalType":"uint256","name":"borrowedAmount","type":"uint256"},{"internalType":"uint256","name":"collateralAmount","type":"uint256"},{"internalType":"uint256","name":"borrowTime","type":"uint256"},{"internalType":"uint256","name":"interestAccrued","type":"uint256"},{"internalType":"bool","name":"isActive","type":"bool"}],"stateMutability":"view","type":"function"},{"inputs":[],"name":"owner","outputs":[{"internalType":"address","name":"","type":"address"}],"stateMutability":"view","type":"function"},{"inputs":[],"name":"platformFeePercent","outputs":[{"internalType":"uint256","name":"","type":"uint256"}],"stateMutability":"view","type":"function"},{"inputs":[{"internalType":"address","name":"","type":"address"}],"name":"pools","outputs":[{"internalType":"uint256","name":"totalSupply","type":"uint256"},{"internalType":"uint256","name":"totalBorrowed","type":"uint256"},{"internalType":"uint256","name":"interestRate","type":"uint256"},{"internalType":"uint256","name":"lastUpdateTime","type":"uint256"},{"internalType":"bool","name":"isActive","type":"bool"}],"stateMutability":"view","type":"function"},{"inputs":[],"name":"renounceOwnership","outputs":[],"stateMutability":"nonpayable","type":"function"},{"inputs":[{"internalType":"address","name":"token","type":"address"},{"internalType":"uint256","name":"amount","type":"uint256"}],"name":"repay","outputs":[],"stateMutability":"nonpayable","type":"function"},{"inputs":[{"internalType":"uint256","name":"","type":"uint256"}],"name":"supportedTokens","outputs":[{"internalType":"address","name":"","type":"address"}],"stateMutability":"view","type":"function"},{"inputs":[{"internalType":"address","name":"newOwner","type":"address"}],"name":"transferOwnership","outputs":[],"stateMutability":"nonpayable","type":"function"},{"inputs":[{"internalType":"address","name":"token","type":"address"},{"internalType":"uint256","name":"amount","type":"uint256"}],"name":"withdraw","outputs":[],"stateMutability":"nonpayable","type":"function"},{"inputs":[],"name":"withdrawETH","outputs":[],"stateMutability":"nonpayable","type":"function"},{"stateMutability":"payable","type":"receive"}],"evm":{"bytecode":{"linkReferences":{},"object":"6080604052600160075534801561001557600080fd5b50338061003c57604051631e4fbdf760e01b81526000600482015260240160405180910390fd5b6100458161004f565b506001805561009f565b600080546001600160a01b038381166001600160a01b0319831681178455604051919092169283917f8be0079c531659141344cd1fd0a4f28419497f9722a3daafe3b4186f6b6457e09190a35050565b611b95806100ae6000396000f3fe60806040526004361061014f5760003560e01c80638f601f66116100b6578063d3c7c2c71161006f578063d3c7c2c7146104a0578063dbabe5f0146104c2578063e086e5ec146104d7578063e6a69ab8146104ec578063f2fde38b14610504578063f3fef3a31461052457600080fd5b80638f601f661461037d57806390a8ae9b146103e95780639b8621d5146103fe5780639f04ba2414610413578063a4063dbc14610433578063c62556261461048057600080fd5b80634f112e88116101085780634f112e88146102455780635269660114610280578063715018a61461030057806386b9d81f146103155780638c639a85146103355780638da5cb5b1461034b57600080fd5b806312d361711461015b578063148c658c1461017d578063214231ed146101b757806322867d78146101f257806347e7ef24146102125780634b8a35291461023257600080fd5b3661015657005b600080fd5b34801561016757600080fd5b5061017b610176366004611a0c565b610544565b005b34801561018957600080fd5b5061019d610198366004611a36565b6106f1565b604080519283526020830191909152015b60405180910390f35b3480156101c357600080fd5b506101e46101d2366004611a69565b60056020526000908152604090205481565b6040519081526020016101ae565b3480156101fe57600080fd5b5061017b61020d366004611a0c565b610776565b34801561021e57600080fd5b5061017b61022d366004611a0c565b610a43565b61017b610240366004611a0c565b610c1a565b34801561025157600080fd5b50610265610260366004611a36565b610ec3565b604080519384526020840192909252908201526060016101ae565b34801561028c57600080fd5b506102d661029b366004611a36565b600460208181526000938452604080852090915291835291208054600182015460028301546003840154939094015491939092909160ff1685565b6040805195865260208601949094529284019190915260608301521515608082015260a0016101ae565b34801561030c57600080fd5b5061017b610f4c565b34801561032157600080fd5b5061017b610330366004611a36565b610f60565b34801561034157600080fd5b506101e460075481565b34801561035757600080fd5b506000546001600160a01b03165b6040516001600160a01b0390911681526020016101ae565b34801561038957600080fd5b506103c9610398366004611a36565b6003602081815260009384526040808520909152918352912080546001820154600283015492909301549092919084565b6040805194855260208501939093529183015260608201526080016101ae565b3480156103f557600080fd5b506101e4605081565b34801561040a57600080fd5b506101e4600a81565b34801561041f57600080fd5b506101e461042e366004611a69565b6111ac565b34801561043f57600080fd5b506102d661044e366004611a69565b600260208190526000918252604090912080546001820154928201546003830154600490930154919392909160ff1685565b34801561048c57600080fd5b5061036561049b366004611a84565b611235565b3480156104ac57600080fd5b506104b561125f565b6040516101ae9190611a9d565b3480156104ce57600080fd5b506101e4600581565b3480156104e357600080fd5b5061017b6112c1565b3480156104f857600080fd5b506101e46301e1338081565b34801561051057600080fd5b5061017b61051f366004611a69565b611363565b34801561053057600080fd5b5061017b61053f366004611a0c565b61139e565b61054c61157b565b6001600160a01b0382166105975760405162461bcd60e51b815260206004820152600d60248201526c24b73b30b634b2103a37b5b2b760991b60448201526064015b60405180910390fd5b6001600160a01b03821660009081526002602052604090206004015460ff16156105f95760405162461bcd60e51b8152602060048201526013602482015272506f6f6c20616c72656164792065786973747360681b604482015260640161058e565b6040805160a0810182526000808252602080830182815283850186815242606086019081526001608087018181526001600160a01b038b1680885260028088528a892099518a559551898401559351948801949094559051600387015591516004909501805460ff1916951515959095179094556006805491820190557ff652222313e28459528d920b65115c16c04f3efc82aaedc97be59f3f377c0d3f0180546001600160a01b031916841790556005815290839020670de0b6b3a76400009055915183815290917f641e49906554552c8c33d7e09e02d1270590f405bc1da0c7b99a9c2808abdd05910160405180910390a25050565b6001600160a01b038083166000908152600360208181526040808420948616845293815283832084516080810186528154815260018201549281019290925260028101549482019490945292015460608301529081908161075286866115a8565b905081600001518183606001516107699190611b00565b9350935050509250929050565b61077e6116b3565b3360009081526004602081815260408084206001600160a01b03871685529091529091209081015460ff166107e65760405162461bcd60e51b815260206004820152600e60248201526d27379030b1ba34bb32903637b0b760911b604482015260640161058e565b60006107f233856116dd565b905060008183600001546108069190611b00565b9050600084156108165784610818565b815b9050818111156108625760405162461bcd60e51b81526020600482015260156024820152740a4cae0c2f240c2dadeeadce840e8dede40d0d2ced605b1b604482015260640161058e565b6108776001600160a01b03871633308461180c565b6001600160a01b03861660009081526002602052604090208454821161089d57816108a0565b84545b8160010160008282546108b39190611b13565b925050819055506000838387600101546108cd9190611b26565b6108d79190611b3d565b865490915083116108f1576108ec8584611b13565b6108f4565b85545b8660000160008282546109079190611b13565b92505081905550808660010160008282546109229190611b13565b909155505085546000036109ea5760048601805460ff191690556001860154156109ea57600186015460405160009133918381818185875af1925050503d806000811461098b576040519150601f19603f3d011682016040523d82523d6000602084013e610990565b606091505b50509050806109e15760405162461bcd60e51b815260206004820152601860248201527f436f6c6c61746572616c2072657475726e206661696c65640000000000000000604482015260640161058e565b50600060018701555b60408051848152602081018790526001600160a01b038a169133917fe62a777dbd48d3912f68a1b9445813ee02bc3ac18b97dc129ca462cc77bb641b910160405180910390a3505050505050610a3f60018055565b5050565b610a4b6116b3565b6001600160a01b03821660009081526002602052604090206004015460ff16610aa85760405162461bcd60e51b815260206004820152600f60248201526e506f6f6c206e6f742061637469766560881b604482015260640161058e565b60008111610aed5760405162461bcd60e51b81526020600482015260126024820152710416d6f756e74206d757374206265203e20360741b604482015260640161058e565b6001600160a01b038216600090815260026020908152604080832060038352818420338086529352922090610b23908590611879565b610b386001600160a01b03851633308661180c565b81546000908103610b4a575082610b74565b60018301548354610b5b9190611b13565b8354610b679086611b26565b610b719190611b3d565b90505b83826000016000828254610b889190611b00565b9250508190555080826001016000828254610ba39190611b00565b9091555050426002830155825484908490600090610bc2908490611b00565b90915550504260038401556040518481526001600160a01b0386169033907f8752a472e571a816aea92eec8dae9baf628e840f4929fbcc2d155e6233ff68a7906020015b60405180910390a3505050610a3f60018055565b610c226116b3565b6001600160a01b03821660009081526002602052604090206004015460ff16610c7f5760405162461bcd60e51b815260206004820152600f60248201526e506f6f6c206e6f742061637469766560881b604482015260640161058e565b60008111610cc45760405162461bcd60e51b81526020600482015260126024820152710416d6f756e74206d757374206265203e20360741b604482015260640161058e565b60003411610d145760405162461bcd60e51b815260206004820152601760248201527f4d7573742070726f7669646520636f6c6c61746572616c000000000000000000604482015260640161058e565b6001600160a01b03821660008181526002602090815260408083203384526004835281842094845293909152902060018201548254610d539190611b13565b831115610d9b5760405162461bcd60e51b8152602060048201526016602482015275496e73756666696369656e74206c697175696469747960501b604482015260640161058e565b60006064610daa856096611b26565b610db49190611b3d565b905080341015610e065760405162461bcd60e51b815260206004820152601760248201527f496e73756666696369656e7420636f6c6c61746572616c000000000000000000604482015260640161058e565b83826000016000828254610e1a9190611b00565b9250508190555034826001016000828254610e359190611b00565b909155505042600283015560048201805460ff1916600190811790915583018054859190600090610e67908490611b00565b90915550610e8190506001600160a01b03861633866118fe565b604080518581523460208201526001600160a01b0387169133917fc14e9e6b4d98a542b05a0f6b64acd5f4cbdb914be88432d87486b664e97071a79101610c06565b6001600160a01b0380821660009081526004602081815260408084209487168452938152838320845160a081018652815481526001820154928101929092526002810154948201949094526003840154606082015292015460ff1615156080830152908190819081610f3586886116dd565b825160209093015192989297509550909350505050565b610f5461157b565b610f5e600061192f565b565b610f686116b3565b6001600160a01b03808316600090815260046020818152604080842094861684529390529190209081015460ff16610fd35760405162461bcd60e51b815260206004820152600e60248201526d27379030b1ba34bb32903637b0b760911b604482015260640161058e565b6000610fdf84846116dd565b90506000818360000154610ff39190611b00565b9050600083600101548260646110099190611b26565b6110139190611b3d565b9050605081101561105e5760405162461bcd60e51b81526020600482015260156024820152744c6f616e206e6f74206c6971756964617461626c6560581b604482015260640161058e565b6001600160a01b0385166000818152600260205260409020906110839033308661180c565b8454600182018054600090611099908490611b13565b909155505060018501805460008088559182905560048701805460ff19169055604051909190339083908381818185875af1925050503d80600081146110fb576040519150601f19603f3d011682016040523d82523d6000602084013e611100565b606091505b505090508061115c5760405162461bcd60e51b815260206004820152602260248201527f4c69717569646174696f6e20726577617264207472616e73666572206661696c604482015261195960f21b606482015260840161058e565b60405185815233906001600160a01b038b16907fde0aa27286f5cb3a4ed853dc4823ead62d63e92cdf13de09d6aece56970721a49060200160405180910390a350505050505050610a3f60018055565b6001600160a01b0381166000908152600260208181526040808420815160a08101835281548082526001830154948201949094529381015491840191909152600381015460608401526004015460ff161515608083015282036112125750600092915050565b80516020820151611224906064611b26565b61122e9190611b3d565b9392505050565b6006818154811061124557600080fd5b6000918252602090912001546001600160a01b0316905081565b606060068054806020026020016040519081016040528092919081815260200182805480156112b757602002820191906000526020600020905b81546001600160a01b03168152600190910190602001808311611299575b5050505050905090565b6112c961157b565b600080546040516001600160a01b039091169047908381818185875af1925050503d8060008114611316576040519150601f19603f3d011682016040523d82523d6000602084013e61131b565b606091505b50509050806113605760405162461bcd60e51b815260206004820152601160248201527015da5d1a191c985dd85b0819985a5b1959607a1b604482015260640161058e565b50565b61136b61157b565b6001600160a01b03811661139557604051631e4fbdf760e01b81526000600482015260240161058e565b6113608161192f565b6113a66116b3565b6001600160a01b038216600090815260026020908152604080832060038352818420338552909252909120805461140c5760405162461bcd60e51b815260206004820152600a602482015269139bc819195c1bdcda5d60b21b604482015260640161058e565b6114168433611879565b600083156114245783611427565b81545b82549091508111156114725760405162461bcd60e51b8152602060048201526014602482015273496e73756666696369656e742062616c616e636560601b604482015260640161058e565b600183015483546114839190611b13565b8111156114cb5760405162461bcd60e51b8152602060048201526016602482015275496e73756666696369656e74206c697175696469747960501b604482015260640161058e565b60038201548254829084906000906114e4908490611b13565b90915550508354829085906000906114fd908490611b13565b909155505060006003840155611528336115178385611b00565b6001600160a01b03891691906118fe565b60408051838152602081018390526001600160a01b0388169133917f91fb9d98b786c57d74c099ccd2beca1739e9f6a81fb49001ca465c4b7591bbe2910160405180910390a350505050610a3f60018055565b6000546001600160a01b03163314610f5e5760405163118cdaa760e01b815233600482015260240161058e565b6001600160a01b03808316600081815260036020818152604080842095871684529481528483208551608080820188528254825260018084015483860152600280850154848b015293860154606080850191909152978752838552888720895160a081018b52815481529181015495820195909552928401549783019790975292820154948101949094526004015460ff16151593830193909352825190929190830361165a576000925050506116ad565b600082604001514261166c9190611b13565b905060006116806301e13380612710611b26565b60408401518551849161169291611b26565b61169c9190611b26565b6116a69190611b3d565b9450505050505b92915050565b6002600154036116d657604051633ee5aeb560e01b815260040160405180910390fd5b6002600155565b6001600160a01b038083166000908152600460208181526040808420948616808552948252808420815160a080820184528254825260018084015483870152600280850154848701526003808601546060808701919091529589015460ff908116151560808088019182529c8c52838a52888c2089519687018a528054875294850154998601999099529183015496840196909652948101549382019390935291909401549091161515948101949094525191929091158061179e57508151155b156117ae576000925050506116ad565b60008260400151426117c09190611b13565b905060006117d46301e13380612710611b26565b6040840151855184916117e691611b26565b6117f09190611b26565b6117fa9190611b3d565b90508360600151816116a69190611b00565b6040516001600160a01b0384811660248301528381166044830152606482018390526118739186918216906323b872dd906084015b604051602081830303815290604052915060e01b6020820180516001600160e01b03838183161783525050505061197f565b50505050565b600061188583836115a8565b905080156118f9576001600160a01b038084166000908152600360208181526040808420948716845293905291812090910180548392906118c7908490611b00565b90915550506001600160a01b038084166000908152600360209081526040808320938616835292905220426002909101555b505050565b6040516001600160a01b038381166024830152604482018390526118f991859182169063a9059cbb90606401611841565b600080546001600160a01b038381166001600160a01b0319831681178455604051919092169283917f8be0079c531659141344cd1fd0a4f28419497f9722a3daafe3b4186f6b6457e09190a35050565b600080602060008451602086016000885af1806119a2576040513d6000823e3d81fd5b50506000513d915081156119ba5780600114156119c7565b6001600160a01b0384163b155b1561187357604051635274afe760e01b81526001600160a01b038516600482015260240161058e565b80356001600160a01b0381168114611a0757600080fd5b919050565b60008060408385031215611a1f57600080fd5b611a28836119f0565b946020939093013593505050565b60008060408385031215611a4957600080fd5b611a52836119f0565b9150611a60602084016119f0565b90509250929050565b600060208284031215611a7b57600080fd5b61122e826119f0565b600060208284031215611a9657600080fd5b5035919050565b6020808252825182820181905260009190848201906040850190845b81811015611ade5783516001600160a01b031683529284019291840191600101611ab9565b50909695505050505050565b634e487b7160e01b600052601160045260246000fd5b808201808211156116ad576116ad611aea565b818103818111156116ad576116ad611aea565b80820281158282048414176116ad576116ad611aea565b600082611b5a57634e487b7160e01b600052601260045260246000fd5b50049056fea26469706673582212204f8a62958de13b93d6db6a345a99efe8ba879b852a33d17b3be11f0ecc13c3ff64736f6c63430008140033","opcodes":"PUSH1 0x80 PUSH1 0x40 MSTORE PUSH1 0x1 PUSH1 0x7 SSTORE CALLVALUE DUP1 ISZERO PUSH2 0x15 JUMPI PUSH1 0x0 DUP1 REVERT JUMPDEST POP CALLER DUP1 PUSH2 0x3C JUMPI PUSH1 0x40 MLOAD PUSH4 0x1E4FBDF7 PUSH1 0xE0 SHL DUP2 MSTORE PUSH1 0x0 PUSH1 0x4 DUP3 ADD MSTORE PUSH1 0x24 ADD PUSH1 0x40 MLOAD DUP1 SWAP2 SUB SWAP1 REVERT JUMPDEST PUSH2 0x45 DUP2 PUSH2 0x4F JUMP JUMPDEST POP PUSH1 0x1 DUP1 SSTORE PUSH2 0x9F JUMP JUMPDEST PUSH1 0x0 DUP1 SLOAD PUSH1 0x1 PUSH1 0x1 PUSH1 0xA0 SHL SUB DUP4 DUP2 AND PUSH1 0x1 PUSH1 0x1 PUSH1 0xA0 SHL SUB NOT DUP4 AND DUP2 OR DUP5 SSTORE PUSH1 0x40 MLOAD SWAP2 SWAP1 SWAP3 AND SWAP3 DUP4 SWAP2 PUSH32 0x8BE0079C531659141344CD1FD0A4F28419497F9722A3DAAFE3B4186F6B6457E0 SWAP2 SWAP1 LOG3 POP POP JUMP JUMPDEST PUSH2 0x1B95 DUP1 PUSH2 0xAE PUSH1 0x0 CODECOPY PUSH1 0x0 RETURN INVALID PUSH1 0x80 PUSH1 0x40 MSTORE PUSH1 0x4 CALLDATASIZE LT PUSH2 0x14F JUMPI PUSH1 0x0 CALLDATALOAD PUSH1 0xE0 SHR DUP1 PUSH4 0x8F601F66 GT PUSH2 0xB6 JUMPI DUP1 PUSH4 0xD3C7C2C7 GT PUSH2 0x6F JUMPI DUP1 PUSH4 0xD3C7C2C7 EQ PUSH2 0x4A0 JUMPI DUP1 PUSH4 0xDBABE5F0 EQ PUSH2 0x4C2 JUMPI DUP1 PUSH4 0xE086E5EC EQ PUSH2 0x4D7 JUMPI DUP1 PUSH4 0xE6A69AB8 EQ PUSH2 0x4EC JUMPI DUP1 PUSH4 0xF2FDE38B EQ PUSH2 0x504 JUMPI DUP1 PUSH4 0xF3FEF3A3 EQ PUSH2 0x524 JUMPI PUSH1 0x0 DUP1 REVERT JUMPDEST DUP1 PUSH4 0x8F601F66 EQ PUSH2 0x37D JUMPI DUP1 PUSH4 0x90A8AE9B EQ PUSH2 0x3E9 JUMPI DUP1 PUSH4 0x9B8621D5 EQ PUSH2 0x3FE JUMPI DUP1 PUSH4 0x9F04BA24 EQ PUSH2 0x413 JUMPI DUP1 PUSH4 0xA4063DBC EQ PUSH2 0x433 JUMPI DUP1 PUSH4 0xC6255626 EQ PUSH2 0x480 JUMPI PUSH1 0x0 DUP1 REVERT JUMPDEST DUP1 PUSH4 0x4F112E88 GT PUSH2 0x108 JUMPI DUP1 PUSH4 0x4F112E88 EQ PUSH2 0x245 JUMPI DUP1 PUSH4 0x52696601 EQ PUSH2 0x280 JUMPI DUP1 PUSH4 0x715018A6 EQ PUSH2 0x300 JUMPI DUP1 PUSH4 0x86B9D81F EQ PUSH2 0x315 JUMPI DUP1 PUSH4 0x8C639A85 EQ PUSH2 0x335 JUMPI DUP1 PUSH4 0x8DA5CB5B EQ PUSH2 0x34B JUMPI PUSH1 0x0 DUP1 REVERT JUMPDEST DUP1 PUSH4 0x12D36171 EQ PUSH2 0x15B JUMPI DUP1 PUSH4 0x148C658C EQ PUSH2 0x17D JUMPI DUP1 PUSH4 0x214231ED EQ PUSH2 0x1B7 JUMPI DUP1 PUSH4 0x22867D78 EQ PUSH2 0x1F2 JUMPI DUP1 PUSH4 0x47E7EF24 EQ PUSH2 0x212 JUMPI DUP1 PUSH4 0x4B8A3529 EQ PUSH2 0x232 JUMPI PUSH1 0x0 DUP1 REVERT JUMPDEST CALLDATASIZE PUSH2 0x156 JUMPI STOP JUMPDEST PUSH1 0x0 DUP1 REVERT JUMPDEST CALLVALUE DUP1 ISZERO PUSH2 0x167 JUMPI PUSH1 0x0 DUP1 REVERT JUMPDEST POP PUSH2 0x17B PUSH2 0x176 CALLDATASIZE PUSH1 0x4 PUSH2 0x1A0C JUMP JUMPDEST PUSH2 0x544 JUMP JUMPDEST STOP JUMPDEST CALLVALUE DUP1 ISZERO PUSH2 0x189 JUMPI PUSH1 0x0 DUP1 REVERT JUMPDEST POP PUSH2 0x19D PUSH2 0x198 CALLDATASIZE PUSH1 0x4 PUSH2 0x1A36 JUMP JUMPDEST PUSH2 0x6F1 JUMP JUMPDEST PUSH1 0x40 DUP1 MLOAD SWAP3 DUP4 MSTORE PUSH1 0x20 DUP4 ADD SWAP2 SWAP1 SWAP2 MSTORE ADD JUMPDEST PUSH1 0x40 MLOAD DUP1 SWAP2 SUB SWAP1 RETURN JUMPDEST CALLVALUE DUP1 ISZERO PUSH2 0x1C3 JUMPI PUSH1 0x0 DUP1 REVERT JUMPDEST POP PUSH2 0x1E4 PUSH2 0x1D2 CALLDATASIZE PUSH1 0x4 PUSH2 0x1A69 JUMP JUMPDEST PUSH1 0x5 PUSH1 0x20 MSTORE PUSH1 0x0 SWAP1 DUP2 MSTORE PUSH1 0x40 SWAP1 KECCAK256 SLOAD DUP2 JUMP JUMPDEST PUSH1 0x40 MLOAD SWAP1 DUP2 MSTORE PUSH1 0x20 ADD PUSH2 0x1AE JUMP JUMPDEST CALLVALUE DUP1 ISZERO PUSH2 0x1FE JUMPI PUSH1 0x0 DUP1 REVERT JUMPDEST POP PUSH2 0x17B PUSH2 0x20D CALLDATASIZE PUSH1 0x4 PUSH2 0x1A0C JUMP JUMPDEST PUSH2 0x776 JUMP JUMPDEST CALLVALUE DUP1 ISZERO PUSH2 0x21E JUMPI PUSH1 0x0 DUP1 REVERT JUMPDEST POP PUSH2 0x17B PUSH2 0x22D CALLDATASIZE PUSH1 0x4 PUSH2 0x1A0C JUMP JUMPDEST PUSH2 0xA43 JUMP JUMPDEST PUSH2 0x17B PUSH2 0x240 CALLDATASIZE PUSH1 0x4 PUSH2 0x1A0C JUMP JUMPDEST PUSH2 0xC1A JUMP JUMPDEST CALLVALUE DUP1 ISZERO PUSH2 0x251 JUMPI PUSH1 0x0 DUP1 REVERT JUMPDEST POP PUSH2 0x265 PUSH2 0x260 CALLDATASIZE PUSH1 0x4 PUSH2 0x1A36 JUMP JUMPDEST PUSH2 0xEC3 JUMP JUMPDEST PUSH1 0x40 DUP1 MLOAD SWAP4 DUP5 MSTORE PUSH1 0x20 DUP5 ADD SWAP3 SWAP1 SWAP3 MSTORE SWAP1 DUP3 ADD MSTORE PUSH1 0x60 ADD PUSH2 0x1AE JUMP JUMPDEST CALLVALUE DUP1 ISZERO PUSH2 0x28C JUMPI PUSH1 0x0 DUP1 REVERT JUMPDEST POP PUSH2 0x2D6 PUSH2 0x29B CALLDATASIZE PUSH1 0x4 PUSH2 0x1A36 JUMP JUMPDEST PUSH1 0x4 PUSH1 0x20 DUP2 DUP2 MSTORE PUSH1 0x0 SWAP4 DUP5 MSTORE PUSH1 0x40 DUP1 DUP6 KECCAK256 SWAP1 SWAP2 MSTORE SWAP2 DUP4 MSTORE SWAP2 KECCAK256 DUP1 SLOAD PUSH1 0x1 DUP3 ADD SLOAD PUSH1 0x2 DUP4 ADD SLOAD PUSH1 0x3 DUP5 ADD SLOAD SWAP4 SWAP1 SWAP5 ADD SLOAD SWAP2 SWAP4 SWAP1 SWAP3 SWAP1 SWAP2 PUSH1 0xFF AND DUP6 JUMP JUMPDEST PUSH1 0x40 DUP1 MLOAD SWAP6 DUP7 MSTORE PUSH1 0x20 DUP7 ADD SWAP5 SWAP1 SWAP5 MSTORE SWAP3 DUP5 ADD SWAP2 SWAP1 SWAP2 MSTORE PUSH1 0x60 DUP4 ADD MSTORE ISZERO ISZERO PUSH1 0x80 DUP3 ADD MSTORE PUSH1 0xA0 ADD PUSH2 0x1AE JUMP JUMPDEST CALLVALUE DUP1 ISZERO PUSH2 0x30C JUMPI PUSH1 0x0 DUP1 REVERT JUMPDEST POP PUSH2 0x17B PUSH2 0xF4C JUMP JUMPDEST CALLVALUE DUP1 ISZERO PUSH2 0x321 JUMPI PUSH1 0x0 DUP1 REVERT JUMPDEST POP PUSH2 0x17B PUSH2 0x330 CALLDATASIZE PUSH1 0x4 PUSH2 0x1A36 JUMP JUMPDEST PUSH2 0xF60 JUMP JUMPDEST CALLVALUE DUP1 ISZERO PUSH2 0x341 JUMPI PUSH1 0x0 DUP1 REVERT JUMPDEST POP PUSH2 0x1E4 PUSH1 0x7 SLOAD DUP2 JUMP JUMPDEST CALLVALUE DUP1 ISZERO PUSH2 0x357 JUMPI PUSH1 0x0 DUP1 REVERT JUMPDEST POP PUSH1 0x0 SLOAD PUSH1 0x1 PUSH1 0x1 PUSH1 0xA0 SHL SUB AND JUMPDEST PUSH1 0x40 MLOAD PUSH1 0x1 PUSH1 0x1 PUSH1 0xA0 SHL SUB SWAP1 SWAP2 AND DUP2 MSTORE PUSH1 0x20 ADD PUSH2 0x1AE JUMP JUMPDEST CALLVALUE DUP1 ISZERO PUSH2 0x389 JUMPI PUSH1 0x0 DUP1 REVERT JUMPDEST POP PUSH2 0x3C9 PUSH2 0x398 CALLDATASIZE PUSH1 0x4 PUSH2 0x1A36 JUMP JUMPDEST PUSH1 0x3 PUSH1 0x20 DUP2 DUP2 MSTORE PUSH1 0x0 SWAP4 DUP5 MSTORE PUSH1 0x40 DUP1 DUP6 KECCAK256 SWAP1 SWAP2 MSTORE SWAP2 DUP4 MSTORE SWAP2 KECCAK256 DUP1 SLOAD PUSH1 0x1 DUP3 ADD SLOAD PUSH1 0x2 DUP4 ADD SLOAD SWAP3 SWAP1 SWAP4 ADD SLOAD SWAP1 SWAP3 SWAP2 SWAP1 DUP5 JUMP JUMPDEST PUSH1 0x40 DUP1 MLOAD SWAP5 DUP6 MSTORE PUSH1 0x20 DUP6 ADD SWAP4 SWAP1 SWAP4 MSTORE SWAP2 DUP4 ADD MSTORE PUSH1 0x60 DUP3 ADD MSTORE PUSH1 0x80 ADD PUSH2 0x1AE JUMP JUMPDEST CALLVALUE DUP1 ISZERO PUSH2 0x3F5 JUMPI PUSH1 0x0 DUP1 REVERT JUMPDEST POP PUSH2 0x1E4 PUSH1 0x50 DUP2 JUMP JUMPDEST CALLVALUE DUP1 ISZERO PUSH2 0x40A JUMPI PUSH1 0x0 DUP1 REVERT JUMPDEST POP PUSH2 0x1E4 PUSH1 0xA DUP2 JUMP JUMPDEST CALLVALUE DUP1 ISZERO PUSH2 0x41F JUMPI PUSH1 0x0 DUP1 REVERT JUMPDEST POP PUSH2 0x1E4 PUSH2 0x42E CALLDATASIZE PUSH1 0x4 PUSH2 0x1A69 JUMP JUMPDEST PUSH2 0x11AC JUMP JUMPDEST CALLVALUE DUP1 ISZERO PUSH2 0x43F JUMPI PUSH1 0x0 DUP1 REVERT JUMPDEST POP PUSH2 0x2D6 PUSH2 0x44E CALLDATASIZE PUSH1 0x4 PUSH2 0x1A69 JUMP JUMPDEST PUSH1 0x2 PUSH1 0x20 DUP2 SWAP1 MSTORE PUSH1 0x0 SWAP2 DUP3 MSTORE PUSH1 0x40 SWAP1 SWAP2 KECCAK256 DUP1 SLOAD PUSH1 0x1 DUP3 ADD SLOAD SWAP3 DUP3 ADD SLOAD PUSH1 0x3 DUP4 ADD SLOAD PUSH1 0x4 SWAP1 SWAP4 ADD SLOAD SWAP2 SWAP4 SWAP3 SWAP1 SWAP2 PUSH1 0xFF AND DUP6 JUMP JUMPDEST CALLVALUE DUP1 ISZERO PUSH2 0x48C JUMPI PUSH1 0x0 DUP1 REVERT JUMPDEST POP PUSH2 0x365 PUSH2 0x49B CALLDATASIZE PUSH1 0x4 PUSH2 0x1A84 JUMP JUMPDEST PUSH2 0x1235 JUMP JUMPDEST CALLVALUE DUP1 ISZERO PUSH2 0x4AC JUMPI PUSH1 0x0 DUP1 REVERT JUMPDEST POP PUSH2 0x4B5 PUSH2 0x125F JUMP JUMPDEST PUSH1 0x40 MLOAD PUSH2 0x1AE SWAP2 SWAP1 PUSH2 0x1A9D JUMP JUMPDEST CALLVALUE DUP1 ISZERO PUSH2 0x4CE JUMPI PUSH1 0x0 DUP1 REVERT JUMPDEST POP PUSH2 0x1E4 PUSH1 0x5 DUP2 JUMP JUMPDEST CALLVALUE DUP1 ISZERO PUSH2 0x4E3 JUMPI PUSH1 0x0 DUP1 REVERT JUMPDEST POP PUSH2 0x17B PUSH2 0x12C1 JUMP JUMPDEST CALLVALUE DUP1 ISZERO PUSH2 0x4F8 JUMPI PUSH1 0x0 DUP1 REVERT JUMPDEST POP PUSH2 0x1E4 PUSH4 0x1E13380 DUP2 JUMP JUMPDEST CALLVALUE DUP1 ISZERO PUSH2 0x510 JUMPI PUSH1 0x0 DUP1 REVERT JUMPDEST POP PUSH2 0x17B PUSH2 0x51F CALLDATASIZE PUSH1 0x4 PUSH2 0x1A69 JUMP JUMPDEST PUSH2 0x1363 JUMP JUMPDEST CALLVALUE DUP1 ISZERO PUSH2 0x530 JUMPI PUSH1 0x0 DUP1 REVERT JUMPDEST POP PUSH2 0x17B PUSH2 0x53F CALLDATASIZE PUSH1 0x4 PUSH2 0x1A0C JUMP JUMPDEST PUSH2 0x139E JUMP JUMPDEST PUSH2 0x54C PUSH2 0x157B JUMP JUMPDEST PUSH1 0x1 PUSH1 0x1 PUSH1 0xA0 SHL SUB DUP3 AND PUSH2 0x597 JUMPI PUSH1 0x40 MLOAD PUSH3 0x461BCD PUSH1 0xE5 SHL DUP2 MSTORE PUSH1 0x20 PUSH1 0x4 DUP3 ADD MSTORE PUSH1 0xD PUSH1 0x24 DUP3 ADD MSTORE PUSH13 0x24B73B30B634B2103A37B5B2B7 PUSH1 0x99 SHL PUSH1 0x44 DUP3 ADD MSTORE PUSH1 0x64 ADD JUMPDEST PUSH1 0x40 MLOAD DUP1 SWAP2 SUB SWAP1 REVERT JUMPDEST PUSH1 0x1 PUSH1 0x1 PUSH1 0xA0 SHL SUB DUP3 AND PUSH1 0x0 SWAP1 DUP2 MSTORE PUSH1 0x2 PUSH1 0x20 MSTORE PUSH1 0x40 SWAP1 KECCAK256 PUSH1 0x4 ADD SLOAD PUSH1 0xFF AND ISZERO PUSH2 0x5F9 JUMPI PUSH1 0x40 MLOAD PUSH3 0x461BCD PUSH1 0xE5 SHL DUP2 MSTORE PUSH1 0x20 PUSH1 0x4 DUP3 ADD MSTORE PUSH1 0x13 PUSH1 0x24 DUP3 ADD MSTORE PUSH19 0x506F6F6C20616C726561647920657869737473 PUSH1 0x68 SHL PUSH1 0x44 DUP3 ADD MSTORE PUSH1 0x64 ADD PUSH2 0x58E JUMP JUMPDEST PUSH1 0x40 DUP1 MLOAD PUSH1 0xA0 DUP2 ADD DUP3 MSTORE PUSH1 0x0 DUP1 DUP3 MSTORE PUSH1 0x20 DUP1 DUP4 ADD DUP3 DUP2 MSTORE DUP4 DUP6 ADD DUP7 DUP2 MSTORE TIMESTAMP PUSH1 0x60 DUP7 ADD SWAP1 DUP2 MSTORE PUSH1 0x1 PUSH1 0x80 DUP8 ADD DUP2 DUP2 MSTORE PUSH1 0x1 PUSH1 0x1 PUSH1 0xA0 SHL SUB DUP12 AND DUP1 DUP9 MSTORE PUSH1 0x2 DUP1 DUP9 MSTORE DUP11 DUP10 KECCAK256 SWAP10 MLOAD DUP11 SSTORE SWAP6 MLOAD DUP10 DUP5 ADD SSTORE SWAP4 MLOAD SWAP5 DUP9 ADD SWAP5 SWAP1 SWAP5 SSTORE SWAP1 MLOAD PUSH1 0x3 DUP8 ADD SSTORE SWAP2 MLOAD PUSH1 0x4 SWAP1 SWAP6 ADD DUP1 SLOAD PUSH1 0xFF NOT AND SWAP6 ISZERO ISZERO SWAP6 SWAP1 SWAP6 OR SWAP1 SWAP5 SSTORE PUSH1 0x6 DUP1 SLOAD SWAP2 DUP3 ADD SWAP1 SSTORE PUSH32 0xF652222313E28459528D920B65115C16C04F3EFC82AAEDC97BE59F3F377C0D3F ADD DUP1 SLOAD PUSH1 0x1 PUSH1 0x1 PUSH1 0xA0 SHL SUB NOT AND DUP5 OR SWAP1 SSTORE PUSH1 0x5 DUP2 MSTORE SWAP1 DUP4 SWAP1 KECCAK256 PUSH8 0xDE0B6B3A7640000 SWAP1 SSTORE SWAP2 MLOAD DUP4 DUP2 MSTORE SWAP1 SWAP2 PUSH32 0x641E49906554552C8C33D7E09E02D1270590F405BC1DA0C7B99A9C2808ABDD05 SWAP2 ADD PUSH1 0x40 MLOAD DUP1 SWAP2 SUB SWAP1 LOG2 POP POP JUMP JUMPDEST PUSH1 0x1 PUSH1 0x1 PUSH1 0xA0 SHL SUB DUP1 DUP4 AND PUSH1 0x0 SWAP1 DUP2 MSTORE PUSH1 0x3 PUSH1 0x20 DUP2 DUP2 MSTORE PUSH1 0x40 DUP1 DUP5 KECCAK256 SWAP5 DUP7 AND DUP5 MSTORE SWAP4 DUP2 MSTORE DUP4 DUP4 KECCAK256 DUP5 MLOAD PUSH1 0x80 DUP2 ADD DUP7 MSTORE DUP2 SLOAD DUP2 MSTORE PUSH1 0x1 DUP3 ADD SLOAD SWAP3 DUP2 ADD SWAP3 SWAP1 SWAP3 MSTORE PUSH1 0x2 DUP2 ADD SLOAD SWAP5 DUP3 ADD SWAP5 SWAP1 SWAP5 MSTORE SWAP3 ADD SLOAD PUSH1 0x60 DUP4 ADD MSTORE SWAP1 DUP2 SWAP1 DUP2 PUSH2 0x752 DUP7 DUP7 PUSH2 0x15A8 JUMP JUMPDEST SWAP1 POP DUP2 PUSH1 0x0 ADD MLOAD DUP2 DUP4 PUSH1 0x60 ADD MLOAD PUSH2 0x769 SWAP2 SWAP1 PUSH2 0x1B00 JUMP JUMPDEST SWAP4 POP SWAP4 POP POP POP SWAP3 POP SWAP3 SWAP1 POP JUMP JUMPDEST PUSH2 0x77E PUSH2 0x16B3 JUMP JUMPDEST CALLER PUSH1 0x0 SWAP1 DUP2 MSTORE PUSH1 0x4 PUSH1 0x20 DUP2 DUP2 MSTORE PUSH1 0x40 DUP1 DUP5 KECCAK256 PUSH1 0x1 PUSH1 0x1 PUSH1 0xA0 SHL SUB DUP8 AND DUP6 MSTORE SWAP1 SWAP2 MSTORE SWAP1 SWAP2 KECCAK256 SWAP1 DUP2 ADD SLOAD PUSH1 0xFF AND PUSH2 0x7E6 JUMPI PUSH1 0x40 MLOAD PUSH3 0x461BCD PUSH1 0xE5 SHL DUP2 MSTORE PUSH1 0x20 PUSH1 0x4 DUP3 ADD MSTORE PUSH1 0xE PUSH1 0x24 DUP3 ADD MSTORE PUSH14 0x27379030B1BA34BB32903637B0B7 PUSH1 0x91 SHL PUSH1 0x44 DUP3 ADD MSTORE PUSH1 0x64 ADD PUSH2 0x58E JUMP JUMPDEST PUSH1 0x0 PUSH2 0x7F2 CALLER DUP6 PUSH2 0x16DD JUMP JUMPDEST SWAP1 POP PUSH1 0x0 DUP2 DUP4 PUSH1 0x0 ADD SLOAD PUSH2 0x806 SWAP2 SWAP1 PUSH2 0x1B00 JUMP JUMPDEST SWAP1 POP PUSH1 0x0 DUP5 ISZERO PUSH2 0x816 JUMPI DUP5 PUSH2 0x818 JUMP JUMPDEST DUP2 JUMPDEST SWAP1 POP DUP2 DUP2 GT ISZERO PUSH2 0x862 JUMPI PUSH1 0x40 MLOAD PUSH3 0x461BCD PUSH1 0xE5 SHL DUP2 MSTORE PUSH1 0x20 PUSH1 0x4 DUP3 ADD MSTORE PUSH1 0x15 PUSH1 0x24 DUP3 ADD MSTORE PUSH21 0xA4CAE0C2F240C2DADEEADCE840E8DEDE40D0D2CED PUSH1 0x5B SHL PUSH1 0x44 DUP3 ADD MSTORE PUSH1 0x64 ADD PUSH2 0x58E JUMP JUMPDEST PUSH2 0x877 PUSH1 0x1 PUSH1 0x1 PUSH1 0xA0 SHL SUB DUP8 AND CALLER ADDRESS DUP5 PUSH2 0x180C JUMP JUMPDEST PUSH1 0x1 PUSH1 0x1 PUSH1 0xA0 SHL SUB DUP7 AND PUSH1 0x0 SWAP1 DUP2 MSTORE PUSH1 0x2 PUSH1 0x20 MSTORE PUSH1 0x40 SWAP1 KECCAK256 DUP5 SLOAD DUP3 GT PUSH2 0x89D JUMPI DUP2 PUSH2 0x8A0 JUMP JUMPDEST DUP5 SLOAD JUMPDEST DUP2 PUSH1 0x1 ADD PUSH1 0x0 DUP3 DUP3 SLOAD PUSH2 0x8B3 SWAP2 SWAP1 PUSH2 0x1B13 JUMP JUMPDEST SWAP3 POP POP DUP2 SWAP1 SSTORE POP PUSH1 0x0 DUP4 DUP4 DUP8 PUSH1 0x1 ADD SLOAD PUSH2 0x8CD SWAP2 SWAP1 PUSH2 0x1B26 JUMP JUMPDEST PUSH2 0x8D7 SWAP2 SWAP1 PUSH2 0x1B3D JUMP JUMPDEST DUP7 SLOAD SWAP1 SWAP2 POP DUP4 GT PUSH2 0x8F1 JUMPI PUSH2 0x8EC DUP6 DUP5 PUSH2 0x1B13 JUMP JUMPDEST PUSH2 0x8F4 JUMP JUMPDEST DUP6 SLOAD JUMPDEST DUP7 PUSH1 0x0 ADD PUSH1 0x0 DUP3 DUP3 SLOAD PUSH2 0x907 SWAP2 SWAP1 PUSH2 0x1B13 JUMP JUMPDEST SWAP3 POP POP DUP2 SWAP1 SSTORE POP DUP1 DUP7 PUSH1 0x1 ADD PUSH1 0x0 DUP3 DUP3 SLOAD PUSH2 0x922 SWAP2 SWAP1 PUSH2 0x1B13 JUMP JUMPDEST SWAP1 SWAP2 SSTORE POP POP DUP6 SLOAD PUSH1 0x0 SUB PUSH2 0x9EA JUMPI PUSH1 0x4 DUP7 ADD DUP1 SLOAD PUSH1 0xFF NOT AND SWAP1 SSTORE PUSH1 0x1 DUP7 ADD SLOAD ISZERO PUSH2 0x9EA JUMPI PUSH1 0x1 DUP7 ADD SLOAD PUSH1 0x40 MLOAD PUSH1 0x0 SWAP2 CALLER SWAP2 DUP4 DUP2 DUP2 DUP2 DUP6 DUP8 GAS CALL SWAP3 POP POP POP RETURNDATASIZE DUP1 PUSH1 0x0 DUP2 EQ PUSH2 0x98B JUMPI PUSH1 0x40 MLOAD SWAP2 POP PUSH1 0x1F NOT PUSH1 0x3F RETURNDATASIZE ADD AND DUP3 ADD PUSH1 0x40 MSTORE RETURNDATASIZE DUP3 MSTORE RETURNDATASIZE PUSH1 0x0 PUSH1 0x20 DUP5 ADD RETURNDATACOPY PUSH2 0x990 JUMP JUMPDEST PUSH1 0x60 SWAP2 POP JUMPDEST POP POP SWAP1 POP DUP1 PUSH2 0x9E1 JUMPI PUSH1 0x40 MLOAD PUSH3 0x461BCD PUSH1 0xE5 SHL DUP2 MSTORE PUSH1 0x20 PUSH1 0x4 DUP3 ADD MSTORE PUSH1 0x18 PUSH1 0x24 DUP3 ADD MSTORE PUSH32 0x436F6C6C61746572616C2072657475726E206661696C65640000000000000000 PUSH1 0x44 DUP3 ADD MSTORE PUSH1 0x64 ADD PUSH2 0x58E JUMP JUMPDEST POP PUSH1 0x0 PUSH1 0x1 DUP8 ADD SSTORE JUMPDEST PUSH1 0x40 DUP1 MLOAD DUP5 DUP2 MSTORE PUSH1 0x20 DUP2 ADD DUP8 SWAP1 MSTORE PUSH1 0x1 PUSH1 0x1 PUSH1 0xA0 SHL SUB DUP11 AND SWAP2 CALLER SWAP2 PUSH32 0xE62A777DBD48D3912F68A1B9445813EE02BC3AC18B97DC129CA462CC77BB641B SWAP2 ADD PUSH1 0x40 MLOAD DUP1 SWAP2 SUB SWAP1 LOG3 POP POP POP POP POP POP PUSH2 0xA3F PUSH1 0x1 DUP1 SSTORE JUMP JUMPDEST POP POP JUMP JUMPDEST PUSH2 0xA4B PUSH2 0x16B3 JUMP JUMPDEST PUSH1 0x1 PUSH1 0x1 PUSH1 0xA0 SHL SUB DUP3 AND PUSH1 0x0 SWAP1 DUP2 MSTORE PUSH1 0x2 PUSH1 0x20 MSTORE PUSH1 0x40 SWAP1 KECCAK256 PUSH1 0x4 ADD SLOAD PUSH1 0xFF AND PUSH2 0xAA8 JUMPI PUSH1 0x40 MLOAD PUSH3 0x461BCD PUSH1 0xE5 SHL DUP2 MSTORE PUSH1 0x20 PUSH1 0x4 DUP3 ADD MSTORE PUSH1 0xF PUSH1 0x24 DUP3 ADD MSTORE PUSH15 0x506F6F6C206E6F7420616374697665 PUSH1 0x88 SHL PUSH1 0x44 DUP3 ADD MSTORE PUSH1 0x64 ADD PUSH2 0x58E JUMP JUMPDEST PUSH1 0x0 DUP2 GT PUSH2 0xAED JUMPI PUSH1 0x40 MLOAD PUSH3 0x461BCD PUSH1 0xE5 SHL DUP2 MSTORE PUSH1 0x20 PUSH1 0x4 DUP3 ADD MSTORE PUSH1 0x12 PUSH1 0x24 DUP3 ADD MSTORE PUSH18 0x416D6F756E74206D757374206265203E203 PUSH1 0x74 SHL PUSH1 0x44 DUP3 ADD MSTORE PUSH1 0x64 ADD PUSH2 0x58E JUMP JUMPDEST PUSH1 0x1 PUSH1 0x1 PUSH1 0xA0 SHL SUB DUP3 AND PUSH1 0x0 SWAP1 DUP2 MSTORE PUSH1 0x2 PUSH1 0x20 SWAP1 DUP2 MSTORE PUSH1 0x40 DUP1 DUP4 KECCAK256 PUSH1 0x3 DUP4 MSTORE DUP2 DUP5 KECCAK256 CALLER DUP1 DUP7 MSTORE SWAP4 MSTORE SWAP3 KECCAK256 SWAP1 PUSH2 0xB23 SWAP1 DUP6 SWAP1 PUSH2 0x1879 JUMP JUMPDEST PUSH2 0xB38 PUSH1 0x1 PUSH1 0x1 PUSH1 0xA0 SHL SUB DUP6 AND CALLER ADDRESS DUP7 PUSH2 0x180C JUMP JUMPDEST DUP2 SLOAD PUSH1 0x0 SWAP1 DUP2 SUB PUSH2 0xB4A JUMPI POP DUP3 PUSH2 0xB74 JUMP JUMPDEST PUSH1 0x1 DUP4 ADD SLOAD DUP4 SLOAD PUSH2 0xB5B SWAP2 SWAP1 PUSH2 0x1B13 JUMP JUMPDEST DUP4 SLOAD PUSH2 0xB67 SWAP1 DUP7 PUSH2 0x1B26 JUMP JUMPDEST PUSH2 0xB71 SWAP2 SWAP1 PUSH2 0x1B3D JUMP JUMPDEST SWAP1 POP JUMPDEST DUP4 DUP3 PUSH1 0x0 ADD PUSH1 0x0 DUP3 DUP3 SLOAD PUSH2 0xB88 SWAP2 SWAP1 PUSH2 0x1B00 JUMP JUMPDEST SWAP3 POP POP DUP2 SWAP1 SSTORE POP DUP1 DUP3 PUSH1 0x1 ADD PUSH1 0x0 DUP3 DUP3 SLOAD PUSH2 0xBA3 SWAP2 SWAP1 PUSH2 0x1B00 JUMP JUMPDEST SWAP1 SWAP2 SSTORE POP POP TIMESTAMP PUSH1 0x2 DUP4 ADD SSTORE DUP3 SLOAD DUP5 SWAP1 DUP5 SWAP1 PUSH1 0x0 SWAP1 PUSH2 0xBC2 SWAP1 DUP5 SWAP1 PUSH2 0x1B00 JUMP JUMPDEST SWAP1 SWAP2 SSTORE POP POP TIMESTAMP PUSH1 0x3 DUP5 ADD SSTORE PUSH1 0x40 MLOAD DUP5 DUP2 MSTORE PUSH1 0x1 PUSH1 0x1 PUSH1 0xA0 SHL SUB DUP7 AND SWAP1 CALLER SWAP1 PUSH32 0x8752A472E571A816AEA92EEC8DAE9BAF628E840F4929FBCC2D155E6233FF68A7 SWAP1 PUSH1 0x20 ADD JUMPDEST PUSH1 0x40 MLOAD DUP1 SWAP2 SUB SWAP1 LOG3 POP POP POP PUSH2 0xA3F PUSH1 0x1 DUP1 SSTORE JUMP JUMPDEST PUSH2 0xC22 PUSH2 0x16B3 JUMP JUMPDEST PUSH1 0x1 PUSH1 0x1 PUSH1 0xA0 SHL SUB DUP3 AND PUSH1 0x0 SWAP1 DUP2 MSTORE PUSH1 0x2 PUSH1 0x20 MSTORE PUSH1 0x40 SWAP1 KECCAK256 PUSH1 0x4 ADD SLOAD PUSH1 0xFF AND PUSH2 0xC7F JUMPI PUSH1 0x40 MLOAD PUSH3 0x461BCD PUSH1 0xE5 SHL DUP2 MSTORE PUSH1 0x20 PUSH1 0x4 DUP3 ADD MSTORE PUSH1 0xF PUSH1 0x24 DUP3 ADD MSTORE PUSH15 0x506F6F6C206E6F7420616374697665 PUSH1 0x88 SHL PUSH1 0x44 DUP3 ADD MSTORE PUSH1 0x64 ADD PUSH2 0x58E JUMP JUMPDEST PUSH1 0x0 DUP2 GT PUSH2 0xCC4 JUMPI PUSH1 0x40 MLOAD PUSH3 0x461BCD PUSH1 0xE5 SHL DUP2 MSTORE PUSH1 0x20 PUSH1 0x4 DUP3 ADD MSTORE PUSH1 0x12 PUSH1 0x24 DUP3 ADD MSTORE PUSH18 0x416D6F756E74206D757374206265203E203 PUSH1 0x74 SHL PUSH1 0x44 DUP3 ADD MSTORE PUSH1 0x64 ADD PUSH2 0x58E JUMP JUMPDEST PUSH1 0x0 CALLVALUE GT PUSH2 0xD14 JUMPI PUSH1 0x40 MLOAD PUSH3 0x461BCD PUSH1 0xE5 SHL DUP2 MSTORE PUSH1 0x20 PUSH1 0x4 DUP3 ADD MSTORE PUSH1 0x17 PUSH1 0x24 DUP3 ADD MSTORE PUSH32 0x4D7573742070726F7669646520636F6C6C61746572616C000000000000000000 PUSH1 0x44 DUP3 ADD MSTORE PUSH1 0x64 ADD PUSH2 0x58E JUMP JUMPDEST PUSH1 0x1 PUSH1 0x1 PUSH1 0xA0 SHL SUB DUP3 AND PUSH1 0x0 DUP2 DUP2 MSTORE PUSH1 0x2 PUSH1 0x20 SWAP1 DUP2 MSTORE PUSH1 0x40 DUP1 DUP4 KECCAK256 CALLER DUP5 MSTORE PUSH1 0x4 DUP4 MSTORE DUP2 DUP5 KECCAK256 SWAP5 DUP5 MSTORE SWAP4 SWAP1 SWAP2 MSTORE SWAP1 KECCAK256 PUSH1 0x1 DUP3 ADD SLOAD DUP3 SLOAD PUSH2 0xD53 SWAP2 SWAP1 PUSH2 0x1B13 JUMP JUMPDEST DUP4 GT ISZERO PUSH2 0xD9B JUMPI PUSH1 0x40 MLOAD PUSH3 0x461BCD PUSH1 0xE5 SHL DUP2 MSTORE PUSH1 0x20 PUSH1 0x4 DUP3 ADD MSTORE PUSH1 0x16 PUSH1 0x24 DUP3 ADD MSTORE PUSH22 0x496E73756666696369656E74206C6971756964697479 PUSH1 0x50 SHL PUSH1 0x44 DUP3 ADD MSTORE PUSH1 0x64 ADD PUSH2 0x58E JUMP JUMPDEST PUSH1 0x0 PUSH1 0x64 PUSH2 0xDAA DUP6 PUSH1 0x96 PUSH2 0x1B26 JUMP JUMPDEST PUSH2 0xDB4 SWAP2 SWAP1 PUSH2 0x1B3D JUMP JUMPDEST SWAP1 POP DUP1 CALLVALUE LT ISZERO PUSH2 0xE06 JUMPI PUSH1 0x40 MLOAD PUSH3 0x461BCD PUSH1 0xE5 SHL DUP2 MSTORE PUSH1 0x20 PUSH1 0x4 DUP3 ADD MSTORE PUSH1 0x17 PUSH1 0x24 DUP3 ADD MSTORE PUSH32 0x496E73756666696369656E7420636F6C6C61746572616C000000000000000000 PUSH1 0x44 DUP3 ADD MSTORE PUSH1 0x64 ADD PUSH2 0x58E JUMP JUMPDEST DUP4 DUP3 PUSH1 0x0 ADD PUSH1 0x0 DUP3 DUP3 SLOAD PUSH2 0xE1A SWAP2 SWAP1 PUSH2 0x1B00 JUMP JUMPDEST SWAP3 POP POP DUP2 SWAP1 SSTORE POP CALLVALUE DUP3 PUSH1 0x1 ADD PUSH1 0x0 DUP3 DUP3 SLOAD PUSH2 0xE35 SWAP2 SWAP1 PUSH2 0x1B00 JUMP JUMPDEST SWAP1 SWAP2 SSTORE POP POP TIMESTAMP PUSH1 0x2 DUP4 ADD SSTORE PUSH1 0x4 DUP3 ADD DUP1 SLOAD PUSH1 0xFF NOT AND PUSH1 0x1 SWAP1 DUP2 OR SWAP1 SWAP2 SSTORE DUP4 ADD DUP1 SLOAD DUP6 SWAP2 SWAP1 PUSH1 0x0 SWAP1 PUSH2 0xE67 SWAP1 DUP5 SWAP1 PUSH2 0x1B00 JUMP JUMPDEST SWAP1 SWAP2 SSTORE POP PUSH2 0xE81 SWAP1 POP PUSH1 0x1 PUSH1 0x1 PUSH1 0xA0 SHL SUB DUP7 AND CALLER DUP7 PUSH2 0x18FE JUMP JUMPDEST PUSH1 0x40 DUP1 MLOAD DUP6 DUP2 MSTORE CALLVALUE PUSH1 0x20 DUP3 ADD MSTORE PUSH1 0x1 PUSH1 0x1 PUSH1 0xA0 SHL SUB DUP8 AND SWAP2 CALLER SWAP2 PUSH32 0xC14E9E6B4D98A542B05A0F6B64ACD5F4CBDB914BE88432D87486B664E97071A7 SWAP2 ADD PUSH2 0xC06 JUMP JUMPDEST PUSH1 0x1 PUSH1 0x1 PUSH1 0xA0 SHL SUB DUP1 DUP3 AND PUSH1 0x0 SWAP1 DUP2 MSTORE PUSH1 0x4 PUSH1 0x20 DUP2 DUP2 MSTORE PUSH1 0x40 DUP1 DUP5 KECCAK256 SWAP5 DUP8 AND DUP5 MSTORE SWAP4 DUP2 MSTORE DUP4 DUP4 KECCAK256 DUP5 MLOAD PUSH1 0xA0 DUP2 ADD DUP7 MSTORE DUP2 SLOAD DUP2 MSTORE PUSH1 0x1 DUP3 ADD SLOAD SWAP3 DUP2 ADD SWAP3 SWAP1 SWAP3 MSTORE PUSH1 0x2 DUP2 ADD SLOAD SWAP5 DUP3 ADD SWAP5 SWAP1 SWAP5 MSTORE PUSH1 0x3 DUP5 ADD SLOAD PUSH1 0x60 DUP3 ADD MSTORE SWAP3 ADD SLOAD PUSH1 0xFF AND ISZERO ISZERO PUSH1 0x80 DUP4 ADD MSTORE SWAP1 DUP2 SWAP1 DUP2 SWAP1 DUP2 PUSH2 0xF35 DUP7 DUP9 PUSH2 0x16DD JUMP JUMPDEST DUP3 MLOAD PUSH1 0x20 SWAP1 SWAP4 ADD MLOAD SWAP3 SWAP9 SWAP3 SWAP8 POP SWAP6 POP SWAP1 SWAP4 POP POP POP POP JUMP JUMPDEST PUSH2 0xF54 PUSH2 0x157B JUMP JUMPDEST PUSH2 0xF5E PUSH1 0x0 PUSH2 0x192F JUMP JUMPDEST JUMP JUMPDEST PUSH2 0xF68 PUSH2 0x16B3 JUMP JUMPDEST PUSH1 0x1 PUSH1 0x1 PUSH1 0xA0 SHL SUB DUP1 DUP4 AND PUSH1 0x0 SWAP1 DUP2 MSTORE PUSH1 0x4 PUSH1 0x20 DUP2 DUP2 MSTORE PUSH1 0x40 DUP1 DUP5 KECCAK256 SWAP5 DUP7 AND DUP5 MSTORE SWAP4 SWAP1 MSTORE SWAP2 SWAP1 KECCAK256 SWAP1 DUP2 ADD SLOAD PUSH1 0xFF AND PUSH2 0xFD3 JUMPI PUSH1 0x40 MLOAD PUSH3 0x461BCD PUSH1 0xE5 SHL DUP2 MSTORE PUSH1 0x20 PUSH1 0x4 DUP3 ADD MSTORE PUSH1 0xE PUSH1 0x24 DUP3 ADD MSTORE PUSH14 0x27379030B1BA34BB32903637B0B7 PUSH1 0x91 SHL PUSH1 0x44 DUP3 ADD MSTORE PUSH1 0x64 ADD PUSH2 0x58E JUMP JUMPDEST PUSH1 0x0 PUSH2 0xFDF DUP5 DUP5 PUSH2 0x16DD JUMP JUMPDEST SWAP1 POP PUSH1 0x0 DUP2 DUP4 PUSH1 0x0 ADD SLOAD PUSH2 0xFF3 SWAP2 SWAP1 PUSH2 0x1B00 JUMP JUMPDEST SWAP1 POP PUSH1 0x0 DUP4 PUSH1 0x1 ADD SLOAD DUP3 PUSH1 0x64 PUSH2 0x1009 SWAP2 SWAP1 PUSH2 0x1B26 JUMP JUMPDEST PUSH2 0x1013 SWAP2 SWAP1 PUSH2 0x1B3D JUMP JUMPDEST SWAP1 POP PUSH1 0x50 DUP2 LT ISZERO PUSH2 0x105E JUMPI PUSH1 0x40 MLOAD PUSH3 0x461BCD PUSH1 0xE5 SHL DUP2 MSTORE PUSH1 0x20 PUSH1 0x4 DUP3 ADD MSTORE PUSH1 0x15 PUSH1 0x24 DUP3 ADD MSTORE PUSH21 0x4C6F616E206E6F74206C6971756964617461626C65 PUSH1 0x58 SHL PUSH1 0x44 DUP3 ADD MSTORE PUSH1 0x64 ADD PUSH2 0x58E JUMP JUMPDEST PUSH1 0x1 PUSH1 0x1 PUSH1 0xA0 SHL SUB DUP6 AND PUSH1 0x0 DUP2 DUP2 MSTORE PUSH1 0x2 PUSH1 0x20 MSTORE PUSH1 0x40 SWAP1 KECCAK256 SWAP1 PUSH2 0x1083 SWAP1 CALLER ADDRESS DUP7 PUSH2 0x180C JUMP JUMPDEST DUP5 SLOAD PUSH1 0x1 DUP3 ADD DUP1 SLOAD PUSH1 0x0 SWAP1 PUSH2 0x1099 SWAP1 DUP5 SWAP1 PUSH2 0x1B13 JUMP JUMPDEST SWAP1 SWAP2 SSTORE POP POP PUSH1 0x1 DUP6 ADD DUP1 SLOAD PUSH1 0x0 DUP1 DUP9 SSTORE SWAP2 DUP3 SWAP1 SSTORE PUSH1 0x4 DUP8 ADD DUP1 SLOAD PUSH1 0xFF NOT AND SWAP1 SSTORE PUSH1 0x40 MLOAD SWAP1 SWAP2 SWAP1 CALLER SWAP1 DUP4 SWAP1 DUP4 DUP2 DUP2 DUP2 DUP6 DUP8 GAS CALL SWAP3 POP POP POP RETURNDATASIZE DUP1 PUSH1 0x0 DUP2 EQ PUSH2 0x10FB JUMPI PUSH1 0x40 MLOAD SWAP2 POP PUSH1 0x1F NOT PUSH1 0x3F RETURNDATASIZE ADD AND DUP3 ADD PUSH1 0x40 MSTORE RETURNDATASIZE DUP3 MSTORE RETURNDATASIZE PUSH1 0x0 PUSH1 0x20 DUP5 ADD RETURNDATACOPY PUSH2 0x1100 JUMP JUMPDEST PUSH1 0x60 SWAP2 POP JUMPDEST POP POP SWAP1 POP DUP1 PUSH2 0x115C JUMPI PUSH1 0x40 MLOAD PUSH3 0x461BCD PUSH1 0xE5 SHL DUP2 MSTORE PUSH1 0x20 PUSH1 0x4 DUP3 ADD MSTORE PUSH1 0x22 PUSH1 0x24 DUP3 ADD MSTORE PUSH32 0x4C69717569646174696F6E20726577617264207472616E73666572206661696C PUSH1 0x44 DUP3 ADD MSTORE PUSH2 0x1959 PUSH1 0xF2 SHL PUSH1 0x64 DUP3 ADD MSTORE PUSH1 0x84 ADD PUSH2 0x58E JUMP JUMPDEST PUSH1 0x40 MLOAD DUP6 DUP2 MSTORE CALLER SWAP1 PUSH1 0x1 PUSH1 0x1 PUSH1 0xA0 SHL SUB DUP12 AND SWAP1 PUSH32 0xDE0AA27286F5CB3A4ED853DC4823EAD62D63E92CDF13DE09D6AECE56970721A4 SWAP1 PUSH1 0x20 ADD PUSH1 0x40 MLOAD DUP1 SWAP2 SUB SWAP1 LOG3 POP POP POP POP POP POP POP PUSH2 0xA3F PUSH1 0x1 DUP1 SSTORE JUMP JUMPDEST PUSH1 0x1 PUSH1 0x1 PUSH1 0xA0 SHL SUB DUP2 AND PUSH1 0x0 SWAP1 DUP2 MSTORE PUSH1 0x2 PUSH1 0x20 DUP2 DUP2 MSTORE PUSH1 0x40 DUP1 DUP5 KECCAK256 DUP2 MLOAD PUSH1 0xA0 DUP2 ADD DUP4 MSTORE DUP2 SLOAD DUP1 DUP3 MSTORE PUSH1 0x1 DUP4 ADD SLOAD SWAP5 DUP3 ADD SWAP5 SWAP1 SWAP5 MSTORE SWAP4 DUP2 ADD SLOAD SWAP2 DUP5 ADD SWAP2 SWAP1 SWAP2 MSTORE PUSH1 0x3 DUP2 ADD SLOAD PUSH1 0x60 DUP5 ADD MSTORE PUSH1 0x4 ADD SLOAD PUSH1 0xFF AND ISZERO ISZERO PUSH1 0x80 DUP4 ADD MSTORE DUP3 SUB PUSH2 0x1212 JUMPI POP PUSH1 0x0 SWAP3 SWAP2 POP POP JUMP JUMPDEST DUP1 MLOAD PUSH1 0x20 DUP3 ADD MLOAD PUSH2 0x1224 SWAP1 PUSH1 0x64 PUSH2 0x1B26 JUMP JUMPDEST PUSH2 0x122E SWAP2 SWAP1 PUSH2 0x1B3D JUMP JUMPDEST SWAP4 SWAP3 POP POP POP JUMP JUMPDEST PUSH1 0x6 DUP2 DUP2 SLOAD DUP2 LT PUSH2 0x1245 JUMPI PUSH1 0x0 DUP1 REVERT JUMPDEST PUSH1 0x0 SWAP2 DUP3 MSTORE PUSH1 0x20 SWAP1 SWAP2 KECCAK256 ADD SLOAD PUSH1 0x1 PUSH1 0x1 PUSH1 0xA0 SHL SUB AND SWAP1 POP DUP2 JUMP JUMPDEST PUSH1 0x60 PUSH1 0x6 DUP1 SLOAD DUP1 PUSH1 0x20 MUL PUSH1 0x20 ADD PUSH1 0x40 MLOAD SWAP1 DUP2 ADD PUSH1 0x40 MSTORE DUP1 SWAP3 SWAP2 SWAP1 DUP2 DUP2 MSTORE PUSH1 0x20 ADD DUP3 DUP1 SLOAD DUP1 ISZERO PUSH2 0x12B7 JUMPI PUSH1 0x20 MUL DUP3 ADD SWAP2 SWAP1 PUSH1 0x0 MSTORE PUSH1 0x20 PUSH1 0x0 KECCAK256 SWAP1 JUMPDEST DUP2 SLOAD PUSH1 0x1 PUSH1 0x1 PUSH1 0xA0 SHL SUB AND DUP2 MSTORE PUSH1 0x1 SWAP1 SWAP2 ADD SWAP1 PUSH1 0x20 ADD DUP1 DUP4 GT PUSH2 0x1299 JUMPI JUMPDEST POP POP POP POP POP SWAP1 POP SWAP1 JUMP JUMPDEST PUSH2 0x12C9 PUSH2 0x157B JUMP JUMPDEST PUSH1 0x0 DUP1 SLOAD PUSH1 0x40 MLOAD PUSH1 0x1 PUSH1 0x1 PUSH1 0xA0 SHL SUB SWAP1 SWAP2 AND SWAP1 SELFBALANCE SWAP1 DUP4 DUP2 DUP2 DUP2 DUP6 DUP8 GAS CALL SWAP3 POP POP POP RETURNDATASIZE DUP1 PUSH1 0x0 DUP2 EQ PUSH2 0x1316 JUMPI PUSH1 0x40 MLOAD SWAP2 POP PUSH1 0x1F NOT PUSH1 0x3F RETURNDATASIZE ADD AND DUP3 ADD PUSH1 0x40 MSTORE RETURNDATASIZE DUP3 MSTORE RETURNDATASIZE PUSH1 0x0 PUSH1 0x20 DUP5 ADD RETURNDATACOPY PUSH2 0x131B JUMP JUMPDEST PUSH1 0x60 SWAP2 POP JUMPDEST POP POP SWAP1 POP DUP1 PUSH2 0x1360 JUMPI PUSH1 0x40 MLOAD PUSH3 0x461BCD PUSH1 0xE5 SHL DUP2 MSTORE PUSH1 0x20 PUSH1 0x4 DUP3 ADD MSTORE PUSH1 0x11 PUSH1 0x24 DUP3 ADD MSTORE PUSH17 0x15DA5D1A191C985DD85B0819985A5B1959 PUSH1 0x7A SHL PUSH1 0x44 DUP3 ADD MSTORE PUSH1 0x64 ADD PUSH2 0x58E JUMP JUMPDEST POP JUMP JUMPDEST PUSH2 0x136B PUSH2 0x157B JUMP JUMPDEST PUSH1 0x1 PUSH1 0x1 PUSH1 0xA0 SHL SUB DUP2 AND PUSH2 0x1395 JUMPI PUSH1 0x40 MLOAD PUSH4 0x1E4FBDF7 PUSH1 0xE0 SHL DUP2 MSTORE PUSH1 0x0 PUSH1 0x4 DUP3 ADD MSTORE PUSH1 0x24 ADD PUSH2 0x58E JUMP JUMPDEST PUSH2 0x1360 DUP2 PUSH2 0x192F JUMP JUMPDEST PUSH2 0x13A6 PUSH2 0x16B3 JUMP JUMPDEST PUSH1 0x1 PUSH1 0x1 PUSH1 0xA0 SHL SUB DUP3 AND PUSH1 0x0 SWAP1 DUP2 MSTORE PUSH1 0x2 PUSH1 0x20 SWAP1 DUP2 MSTORE PUSH1 0x40 DUP1 DUP4 KECCAK256 PUSH1 0x3 DUP4 MSTORE DUP2 DUP5 KECCAK256 CALLER DUP6 MSTORE SWAP1 SWAP3 MSTORE SWAP1 SWAP2 KECCAK256 DUP1 SLOAD PUSH2 0x140C JUMPI PUSH1 0x40 MLOAD PUSH3 0x461BCD PUSH1 0xE5 SHL DUP2 MSTORE PUSH1 0x20 PUSH1 0x4 DUP3 ADD MSTORE PUSH1 0xA PUSH1 0x24 DUP3 ADD MSTORE PUSH10 0x139BC819195C1BDCDA5D PUSH1 0xB2 SHL PUSH1 0x44 DUP3 ADD MSTORE PUSH1 0x64 ADD PUSH2 0x58E JUMP JUMPDEST PUSH2 0x1416 DUP5 CALLER PUSH2 0x1879 JUMP JUMPDEST PUSH1 0x0 DUP4 ISZERO PUSH2 0x1424 JUMPI DUP4 PUSH2 0x1427 JUMP JUMPDEST DUP2 SLOAD JUMPDEST DUP3 SLOAD SWAP1 SWAP2 POP DUP2 GT ISZERO PUSH2 0x1472 JUMPI PUSH1 0x40 MLOAD PUSH3 0x461BCD PUSH1 0xE5 SHL DUP2 MSTORE PUSH1 0x20 PUSH1 0x4 DUP3 ADD MSTORE PUSH1 0x14 PUSH1 0x24 DUP3 ADD MSTORE PUSH20 0x496E73756666696369656E742062616C616E6365 PUSH1 0x60 SHL PUSH1 0x44 DUP3 ADD MSTORE PUSH1 0x64 ADD PUSH2 0x58E JUMP JUMPDEST PUSH1 0x1 DUP4 ADD SLOAD DUP4 SLOAD PUSH2 0x1483 SWAP2 SWAP1 PUSH2 0x1B13 JUMP JUMPDEST DUP2 GT ISZERO PUSH2 0x14CB JUMPI PUSH1 0x40 MLOAD PUSH3 0x461BCD PUSH1 0xE5 SHL DUP2 MSTORE PUSH1 0x20 PUSH1 0x4 DUP3 ADD MSTORE PUSH1 0x16 PUSH1 0x24 DUP3 ADD MSTORE PUSH22 0x496E73756666696369656E74206C6971756964697479 PUSH1 0x50 SHL PUSH1 0x44 DUP3 ADD MSTORE PUSH1 0x64 ADD PUSH2 0x58E JUMP JUMPDEST PUSH1 0x3 DUP3 ADD SLOAD DUP3 SLOAD DUP3 SWAP1 DUP5 SWAP1 PUSH1 0x0 SWAP1 PUSH2 0x14E4 SWAP1 DUP5 SWAP1 PUSH2 0x1B13 JUMP JUMPDEST SWAP1 SWAP2 SSTORE POP POP DUP4 SLOAD DUP3 SWAP1 DUP6 SWAP1 PUSH1 0x0 SWAP1 PUSH2 0x14FD SWAP1 DUP5 SWAP1 PUSH2 0x1B13 JUMP JUMPDEST SWAP1 SWAP2 SSTORE POP POP PUSH1 0x0 PUSH1 0x3 DUP5 ADD SSTORE PUSH2 0x1528 CALLER PUSH2 0x1517 DUP4 DUP6 PUSH2 0x1B00 JUMP JUMPDEST PUSH1 0x1 PUSH1 0x1 PUSH1 0xA0 SHL SUB DUP10 AND SWAP2 SWAP1 PUSH2 0x18FE JUMP JUMPDEST PUSH1 0x40 DUP1 MLOAD DUP4 DUP2 MSTORE PUSH1 0x20 DUP2 ADD DUP4 SWAP1 MSTORE PUSH1 0x1 PUSH1 0x1 PUSH1 0xA0 SHL SUB DUP9 AND SWAP2 CALLER SWAP2 PUSH32 0x91FB9D98B786C57D74C099CCD2BECA1739E9F6A81FB49001CA465C4B7591BBE2 SWAP2 ADD PUSH1 0x40 MLOAD DUP1 SWAP2 SUB SWAP1 LOG3 POP POP POP POP PUSH2 0xA3F PUSH1 0x1 DUP1 SSTORE JUMP JUMPDEST PUSH1 0x0 SLOAD PUSH1 0x1 PUSH1 0x1 PUSH1 0xA0 SHL SUB AND CALLER EQ PUSH2 0xF5E JUMPI PUSH1 0x40 MLOAD PUSH4 0x118CDAA7 PUSH1 0xE0 SHL DUP2 MSTORE CALLER PUSH1 0x4 DUP3 ADD MSTORE PUSH1 0x24 ADD PUSH2 0x58E JUMP JUMPDEST PUSH1 0x1 PUSH1 0x1 PUSH1 0xA0 SHL SUB DUP1 DUP4 AND PUSH1 0x0 DUP2 DUP2 MSTORE PUSH1 0x3 PUSH1 0x20 DUP2 DUP2 MSTORE PUSH1 0x40 DUP1 DUP5 KECCAK256 SWAP6 DUP8 AND DUP5 MSTORE SWAP5 DUP2 MSTORE DUP5 DUP4 KECCAK256 DUP6 MLOAD PUSH1 0x80 DUP1 DUP3 ADD DUP9 MSTORE DUP3 SLOAD DUP3 MSTORE PUSH1 0x1 DUP1 DUP5 ADD SLOAD DUP4 DUP7 ADD MSTORE PUSH1 0x2 DUP1 DUP6 ADD SLOAD DUP5 DUP12 ADD MSTORE SWAP4 DUP7 ADD SLOAD PUSH1 0x60 DUP1 DUP6 ADD SWAP2 SWAP1 SWAP2 MSTORE SWAP8 DUP8 MSTORE DUP4 DUP6 MSTORE DUP9 DUP8 KECCAK256 DUP10 MLOAD PUSH1 0xA0 DUP2 ADD DUP12 MSTORE DUP2 SLOAD DUP2 MSTORE SWAP2 DUP2 ADD SLOAD SWAP6 DUP3 ADD SWAP6 SWAP1 SWAP6 MSTORE SWAP3 DUP5 ADD SLOAD SWAP8 DUP4 ADD SWAP8 SWAP1 SWAP8 MSTORE SWAP3 DUP3 ADD SLOAD SWAP5 DUP2 ADD SWAP5 SWAP1 SWAP5 MSTORE PUSH1 0x4 ADD SLOAD PUSH1 0xFF AND ISZERO ISZERO SWAP4 DUP4 ADD SWAP4 SWAP1 SWAP4 MSTORE DUP3 MLOAD SWAP1 SWAP3 SWAP2 SWAP1 DUP4 SUB PUSH2 0x165A JUMPI PUSH1 0x0 SWAP3 POP POP POP PUSH2 0x16AD JUMP JUMPDEST PUSH1 0x0 DUP3 PUSH1 0x40 ADD MLOAD TIMESTAMP PUSH2 0x166C SWAP2 SWAP1 PUSH2 0x1B13 JUMP JUMPDEST SWAP1 POP PUSH1 0x0 PUSH2 0x1680 PUSH4 0x1E13380 PUSH2 0x2710 PUSH2 0x1B26 JUMP JUMPDEST PUSH1 0x40 DUP5 ADD MLOAD DUP6 MLOAD DUP5 SWAP2 PUSH2 0x1692 SWAP2 PUSH2 0x1B26 JUMP JUMPDEST PUSH2 0x169C SWAP2 SWAP1 PUSH2 0x1B26 JUMP JUMPDEST PUSH2 0x16A6 SWAP2 SWAP1 PUSH2 0x1B3D JUMP JUMPDEST SWAP5 POP POP POP POP POP JUMPDEST SWAP3 SWAP2 POP POP JUMP JUMPDEST PUSH1 0x2 PUSH1 0x1 SLOAD SUB PUSH2 0x16D6 JUMPI PUSH1 0x40 MLOAD PUSH4 0x3EE5AEB5 PUSH1 0xE0 SHL DUP2 MSTORE PUSH1 0x4 ADD PUSH1 0x40 MLOAD DUP1 SWAP2 SUB SWAP1 REVERT JUMPDEST PUSH1 0x2 PUSH1 0x1 SSTORE JUMP JUMPDEST PUSH1 0x1 PUSH1 0x1 PUSH1 0xA0 SHL SUB DUP1 DUP4 AND PUSH1 0x0 SWAP1 DUP2 MSTORE PUSH1 0x4 PUSH1 0x20 DUP2 DUP2 MSTORE PUSH1 0x40 DUP1 DUP5 KECCAK256 SWAP5 DUP7 AND DUP1 DUP6 MSTORE SWAP5 DUP3 MSTORE DUP1 DUP5 KECCAK256 DUP2 MLOAD PUSH1 0xA0 DUP1 DUP3 ADD DUP5 MSTORE DUP3 SLOAD DUP3 MSTORE PUSH1 0x1 DUP1 DUP5 ADD SLOAD DUP4 DUP8 ADD MSTORE PUSH1 0x2 DUP1 DUP6 ADD SLOAD DUP5 DUP8 ADD MSTORE PUSH1 0x3 DUP1 DUP7 ADD SLOAD PUSH1 0x60 DUP1 DUP8 ADD SWAP2 SWAP1 SWAP2 MSTORE SWAP6 DUP10 ADD SLOAD PUSH1 0xFF SWAP1 DUP2 AND ISZERO ISZERO PUSH1 0x80 DUP1 DUP9 ADD SWAP2 DUP3 MSTORE SWAP13 DUP13 MSTORE DUP4 DUP11 MSTORE DUP9 DUP13 KECCAK256 DUP10 MLOAD SWAP7 DUP8 ADD DUP11 MSTORE DUP1 SLOAD DUP8 MSTORE SWAP5 DUP6 ADD SLOAD SWAP10 DUP7 ADD SWAP10 SWAP1 SWAP10 MSTORE SWAP2 DUP4 ADD SLOAD SWAP7 DUP5 ADD SWAP7 SWAP1 SWAP7 MSTORE SWAP5 DUP2 ADD SLOAD SWAP4 DUP3 ADD SWAP4 SWAP1 SWAP4 MSTORE SWAP2 SWAP1 SWAP5 ADD SLOAD SWAP1 SWAP2 AND ISZERO ISZERO SWAP5 DUP2 ADD SWAP5 SWAP1 SWAP5 MSTORE MLOAD SWAP2 SWAP3 SWAP1 SWAP2 ISZERO DUP1 PUSH2 0x179E JUMPI POP DUP2 MLOAD ISZERO JUMPDEST ISZERO PUSH2 0x17AE JUMPI PUSH1 0x0 SWAP3 POP POP POP PUSH2 0x16AD JUMP JUMPDEST PUSH1 0x0 DUP3 PUSH1 0x40 ADD MLOAD TIMESTAMP PUSH2 0x17C0 SWAP2 SWAP1 PUSH2 0x1B13 JUMP JUMPDEST SWAP1 POP PUSH1 0x0 PUSH2 0x17D4 PUSH4 0x1E13380 PUSH2 0x2710 PUSH2 0x1B26 JUMP JUMPDEST PUSH1 0x40 DUP5 ADD MLOAD DUP6 MLOAD DUP5 SWAP2 PUSH2 0x17E6 SWAP2 PUSH2 0x1B26 JUMP JUMPDEST PUSH2 0x17F0 SWAP2 SWAP1 PUSH2 0x1B26 JUMP JUMPDEST PUSH2 0x17FA SWAP2 SWAP1 PUSH2 0x1B3D JUMP JUMPDEST SWAP1 POP DUP4 PUSH1 0x60 ADD MLOAD DUP2 PUSH2 0x16A6 SWAP2 SWAP1 PUSH2 0x1B00 JUMP JUMPDEST PUSH1 0x40 MLOAD PUSH1 0x1 PUSH1 0x1 PUSH1 0xA0 SHL SUB DUP5 DUP2 AND PUSH1 0x24 DUP4 ADD MSTORE DUP4 DUP2 AND PUSH1 0x44 DUP4 ADD MSTORE PUSH1 0x64 DUP3 ADD DUP4 SWAP1 MSTORE PUSH2 0x1873 SWAP2 DUP7 SWAP2 DUP3 AND SWAP1 PUSH4 0x23B872DD SWAP1 PUSH1 0x84 ADD JUMPDEST PUSH1 0x40 MLOAD PUSH1 0x20 DUP2 DUP4 SUB SUB DUP2 MSTORE SWAP1 PUSH1 0x40 MSTORE SWAP2 POP PUSH1 0xE0 SHL PUSH1 0x20 DUP3 ADD DUP1 MLOAD PUSH1 0x1 PUSH1 0x1 PUSH1 0xE0 SHL SUB DUP4 DUP2 DUP4 AND OR DUP4 MSTORE POP POP POP POP PUSH2 0x197F JUMP JUMPDEST POP POP POP POP JUMP JUMPDEST PUSH1 0x0 PUSH2 0x1885 DUP4 DUP4 PUSH2 0x15A8 JUMP JUMPDEST SWAP1 POP DUP1 ISZERO PUSH2 0x18F9 JUMPI PUSH1 0x1 PUSH1 0x1 PUSH1 0xA0 SHL SUB DUP1 DUP5 AND PUSH1 0x0 SWAP1 DUP2 MSTORE PUSH1 0x3 PUSH1 0x20 DUP2 DUP2 MSTORE PUSH1 0x40 DUP1 DUP5 KECCAK256 SWAP5 DUP8 AND DUP5 MSTORE SWAP4 SWAP1 MSTORE SWAP2 DUP2 KECCAK256 SWAP1 SWAP2 ADD DUP1 SLOAD DUP4 SWAP3 SWAP1 PUSH2 0x18C7 SWAP1 DUP5 SWAP1 PUSH2 0x1B00 JUMP JUMPDEST SWAP1 SWAP2 SSTORE POP POP PUSH1 0x1 PUSH1 0x1 PUSH1 0xA0 SHL SUB DUP1 DUP5 AND PUSH1 0x0 SWAP1 DUP2 MSTORE PUSH1 0x3 PUSH1 0x20 SWAP1 DUP2 MSTORE PUSH1 0x40 DUP1 DUP4 KECCAK256 SWAP4 DUP7 AND DUP4 MSTORE SWAP3 SWAP1 MSTORE KECCAK256 TIMESTAMP PUSH1 0x2 SWAP1 SWAP2 ADD SSTORE JUMPDEST POP POP POP JUMP JUMPDEST PUSH1 0x40 MLOAD PUSH1 0x1 PUSH1 0x1 PUSH1 0xA0 SHL SUB DUP4 DUP2 AND PUSH1 0x24 DUP4 ADD MSTORE PUSH1 0x44 DUP3 ADD DUP4 SWAP1 MSTORE PUSH2 0x18F9 SWAP2 DUP6 SWAP2 DUP3 AND SWAP1 PUSH4 0xA9059CBB SWAP1 PUSH1 0x64 ADD PUSH2 0x1841 JUMP JUMPDEST PUSH1 0x0 DUP1 SLOAD PUSH1 0x1 PUSH1 0x1 PUSH1 0xA0 SHL SUB DUP4 DUP2 AND PUSH1 0x1 PUSH1 0x1 PUSH1 0xA0 SHL SUB NOT DUP4 AND DUP2 OR DUP5 SSTORE PUSH1 0x40 MLOAD SWAP2 SWAP1 SWAP3 AND SWAP3 DUP4 SWAP2 PUSH32 0x8BE0079C531659141344CD1FD0A4F28419497F9722A3DAAFE3B4186F6B6457E0 SWAP2 SWAP1 LOG3 POP POP JUMP JUMPDEST PUSH1 0x0 DUP1 PUSH1 0x20 PUSH1 0x0 DUP5 MLOAD PUSH1 0x20 DUP7 ADD PUSH1 0x0 DUP9 GAS CALL DUP1 PUSH2 0x19A2 JUMPI PUSH1 0x40 MLOAD RETURNDATASIZE PUSH1 0x0 DUP3 RETURNDATACOPY RETURNDATASIZE DUP2 REVERT JUMPDEST POP POP PUSH1 0x0 MLOAD RETURNDATASIZE SWAP2 POP DUP2 ISZERO PUSH2 0x19BA JUMPI DUP1 PUSH1 0x1 EQ ISZERO PUSH2 0x19C7 JUMP JUMPDEST PUSH1 0x1 PUSH1 0x1 PUSH1 0xA0 SHL SUB DUP5 AND EXTCODESIZE ISZERO JUMPDEST ISZERO PUSH2 0x1873 JUMPI PUSH1 0x40 MLOAD PUSH4 0x5274AFE7 PUSH1 0xE0 SHL DUP2 MSTORE PUSH1 0x1 PUSH1 0x1 PUSH1 0xA0 SHL SUB DUP6 AND PUSH1 0x4 DUP3 ADD MSTORE PUSH1 0x24 ADD PUSH2 0x58E JUMP JUMPDEST DUP1 CALLDATALOAD PUSH1 0x1 PUSH1 0x1 PUSH1 0xA0 SHL SUB DUP2 AND DUP2 EQ PUSH2 0x1A07 JUMPI PUSH1 0x0 DUP1 REVERT JUMPDEST SWAP2 SWAP1 POP JUMP JUMPDEST PUSH1 0x0 DUP1 PUSH1 0x40 DUP4 DUP6 SUB SLT ISZERO PUSH2 0x1A1F JUMPI PUSH1 0x0 DUP1 REVERT JUMPDEST PUSH2 0x1A28 DUP4 PUSH2 0x19F0 JUMP JUMPDEST SWAP5 PUSH1 0x20 SWAP4 SWAP1 SWAP4 ADD CALLDATALOAD SWAP4 POP POP POP JUMP JUMPDEST PUSH1 0x0 DUP1 PUSH1 0x40 DUP4 DUP6 SUB SLT ISZERO PUSH2 0x1A49 JUMPI PUSH1 0x0 DUP1 REVERT JUMPDEST PUSH2 0x1A52 DUP4 PUSH2 0x19F0 JUMP JUMPDEST SWAP2 POP PUSH2 0x1A60 PUSH1 0x20 DUP5 ADD PUSH2 0x19F0 JUMP JUMPDEST SWAP1 POP SWAP3 POP SWAP3 SWAP1 POP JUMP JUMPDEST PUSH1 0x0 PUSH1 0x20 DUP3 DUP5 SUB SLT ISZERO PUSH2 0x1A7B JUMPI PUSH1 0x0 DUP1 REVERT JUMPDEST PUSH2 0x122E DUP3 PUSH2 0x19F0 JUMP JUMPDEST PUSH1 0x0 PUSH1 0x20 DUP3 DUP5 SUB SLT ISZERO PUSH2 0x1A96 JUMPI PUSH1 0x0 DUP1 REVERT JUMPDEST POP CALLDATALOAD SWAP2 SWAP1 POP JUMP JUMPDEST PUSH1 0x20 DUP1 DUP3 MSTORE DUP3 MLOAD DUP3 DUP3 ADD DUP2 SWAP1 MSTORE PUSH1 0x0 SWAP2 SWAP1 DUP5 DUP3 ADD SWAP1 PUSH1 0x40 DUP6 ADD SWAP1 DUP5 JUMPDEST DUP2 DUP2 LT ISZERO PUSH2 0x1ADE JUMPI DUP4 MLOAD PUSH1 0x1 PUSH1 0x1 PUSH1 0xA0 SHL SUB AND DUP4 MSTORE SWAP3 DUP5 ADD SWAP3 SWAP2 DUP5 ADD SWAP2 PUSH1 0x1 ADD PUSH2 0x1AB9 JUMP JUMPDEST POP SWAP1 SWAP7 SWAP6 POP POP POP POP POP POP JUMP JUMPDEST PUSH4 0x4E487B71 PUSH1 0xE0 SHL PUSH1 0x0 MSTORE PUSH1 0x11 PUSH1 0x4 MSTORE PUSH1 0x24 PUSH1 0x0 REVERT JUMPDEST DUP1 DUP3 ADD DUP1 DUP3 GT ISZERO PUSH2 0x16AD JUMPI PUSH2 0x16AD PUSH2 0x1AEA JUMP JUMPDEST DUP2 DUP2 SUB DUP2 DUP2 GT ISZERO PUSH2 0x16AD JUMPI PUSH2 0x16AD PUSH2 0x1AEA JUMP JUMPDEST DUP1 DUP3 MUL DUP2 ISZERO DUP3 DUP3 DIV DUP5 EQ OR PUSH2 0x16AD JUMPI PUSH2 0x16AD PUSH2 0x1AEA JUMP JUMPDEST PUSH1 0x0 DUP3 PUSH2 0x1B5A JUMPI PUSH4 0x4E487B71 PUSH1 0xE0 SHL PUSH1 0x0 MSTORE PUSH1 0x12 PUSH1 0x4 MSTORE PUSH1 0x24 PUSH1 0x0 REVERT JUMPDEST POP DIV SWAP1 JUMP INVALID LOG2 PUSH5 0x6970667358 0x22 SLT KECCAK256 0x4F DUP11 PUSH3 0x958DE1 EXTCODESIZE SWAP4 0xD6 0xDB PUSH11 0x345A99EFE8BA879B852A33 0xD1 PUSH28 0x3BE11F0ECC13C3FF64736F6C63430008140033000000000000000000 "},"methodIdentifiers":{"INTEREST_RATE_BASE()":"dbabe5f0","LIQUIDATION_PENALTY()":"9b8621d5","LIQUIDATION_THRESHOLD()":"90a8ae9b","SECONDS_PER_YEAR()":"e6a69ab8","borrow(address,uint256)":"4b8a3529","collateralValues(address)":"214231ed","createPool(address,uint256)":"12d36171","deposit(address,uint256)":"47e7ef24","deposits(address,address)":"8f601f66","getPoolUtilization(address)":"9f04ba24","getSupportedTokens()":"d3c7c2c7","getUserDeposit(address,address)":"148c658c","getUserLoan(address,address)":"4f112e88","liquidate(address,address)":"86b9d81f","loans(address,address)":"52696601","owner()":"8da5cb5b","platformFeePercent()":"8c639a85","pools(address)":"a4063dbc","renounceOwnership()":"715018a6","repay(address,uint256)":"22867d78","supportedTokens(uint256)":"c6255626","transferOwnership(address)":"f2fde38b","withdraw(address,uint256)":"f3fef3a3","withdrawETH()":"e086e5ec"}}}}}