{
  "_format": "hh-sol-artifact-1",
  "contractName": "BatchTransactions",
  "sourceName": "contracts/BatchTransactions.sol",
  "abi": [
    {
      "inputs": [],
      "stateMutability": "nonpayable",
      "type": "constructor"
    },
    {
      "inputs": [
        {
          "internalType": "address",
          "name": "owner",
          "type": "address"
        }
      ],
      "name": "OwnableInvalidOwner",
      "type": "error"
    },
    {
      "inputs": [
        {
          "internalType": "address",
          "name": "account",
          "type": "address"
        }
      ],
      "name": "OwnableUnauthorizedAccount",
      "type": "error"
    },
    {
      "inputs": [],
      "name": "ReentrancyGuardReentrantCall",
      "type": "error"
    },
    {
      "anonymous": false,
      "inputs": [
        {
          "indexed": true,
          "internalType": "address",
          "name": "executor",
          "type": "address"
        },
        {
          "indexed": false,
          "internalType": "uint256",
          "name": "operationsCount",
          "type": "uint256"
        },
        {
          "indexed": false,
          "internalType": "bool",
          "name": "success",
          "type": "bool"
        }
      ],
      "name": "BatchExecuted",
      "type": "event"
    },
    {
      "anonymous": false,
      "inputs": [
        {
          "indexed": true,
          "internalType": "uint256",
          "name": "operationIndex",
          "type": "uint256"
        },
        {
          "indexed": false,
          "internalType": "bytes",
          "name": "reason",
          "type": "bytes"
        }
      ],
      "name": "OperationFailed",
      "type": "event"
    },
    {
      "anonymous": false,
      "inputs": [
        {
          "indexed": true,
          "internalType": "address",
          "name": "previousOwner",
          "type": "address"
        },
        {
          "indexed": true,
          "internalType": "address",
          "name": "newOwner",
          "type": "address"
        }
      ],
      "name": "OwnershipTransferred",
      "type": "event"
    },
    {
      "inputs": [
        {
          "components": [
            {
              "internalType": "address",
              "name": "target",
              "type": "address"
            },
            {
              "internalType": "uint256",
              "name": "value",
              "type": "uint256"
            },
            {
              "internalType": "bytes",
              "name": "data",
              "type": "bytes"
            },
            {
              "internalType": "bool",
              "name": "allowFailure",
              "type": "bool"
            }
          ],
          "internalType": "struct BatchTransactions.Operation[]",
          "name": "operations",
          "type": "tuple[]"
        }
      ],
      "name": "estimateGas",
      "outputs": [
        {
          "internalType": "uint256",
          "name": "estimatedGas",
          "type": "uint256"
        }
      ],
      "stateMutability": "pure",
      "type": "function"
    },
    {
      "inputs": [
        {
          "components": [
            {
              "internalType": "address",
              "name": "target",
              "type": "address"
            },
            {
              "internalType": "uint256",
              "name": "value",
              "type": "uint256"
            },
            {
              "internalType": "bytes",
              "name": "data",
              "type": "bytes"
            },
            {
              "internalType": "bool",
              "name": "allowFailure",
              "type": "bool"
            }
          ],
          "internalType": "struct BatchTransactions.Operation[]",
          "name": "operations",
          "type": "tuple[]"
        },
        {
          "internalType": "bool",
          "name": "requireAllSuccess",
          "type": "bool"
        }
      ],
      "name": "executeBatch",
      "outputs": [
        {
          "components": [
            {
              "internalType": "bool",
              "name": "success",
              "type": "bool"
            },
            {
              "internalType": "bytes[]",
              "name": "results",
              "type": "bytes[]"
            },
            {
              "internalType": "uint256",
              "name": "failedCount",
              "type": "uint256"
            }
          ],
          "internalType": "struct BatchTransactions.BatchResult",
          "name": "result",
          "type": "tuple"
        }
      ],
      "stateMutability": "payable",
      "type": "function"
    },
    {
      "inputs": [
        {
          "internalType": "address[]",
          "name": "targets",
          "type": "address[]"
        },
        {
          "internalType": "uint256[]",
          "name": "values",
          "type": "uint256[]"
        },
        {
          "internalType": "bytes[]",
          "name": "datas",
          "type": "bytes[]"
        }
      ],
      "name": "executeBatchSimple",
      "outputs": [
        {
          "internalType": "bool",
          "name": "success",
          "type": "bool"
        }
      ],
      "stateMutability": "payable",
      "type": "function"
    },
    {
      "inputs": [
        {
          "internalType": "address",
          "name": "user",
          "type": "address"
        }
      ],
      "name": "getUserStats",
      "outputs": [
        {
          "internalType": "uint256",
          "name": "count",
          "type": "uint256"
        }
      ],
      "stateMutability": "view",
      "type": "function"
    },
    {
      "inputs": [],
      "name": "owner",
      "outputs": [
        {
          "internalType": "address",
          "name": "",
          "type": "address"
        }
      ],
      "stateMutability": "view",
      "type": "function"
    },
    {
      "inputs": [],
      "name": "renounceOwnership",
      "outputs": [],
      "stateMutability": "nonpayable",
      "type": "function"
    },
    {
      "inputs": [],
      "name": "totalBatchesExecuted",
      "outputs": [
        {
          "internalType": "uint256",
          "name": "",
          "type": "uint256"
        }
      ],
      "stateMutability": "view",
      "type": "function"
    },
    {
      "inputs": [
        {
          "internalType": "address",
          "name": "newOwner",
          "type": "address"
        }
      ],
      "name": "transferOwnership",
      "outputs": [],
      "stateMutability": "nonpayable",
      "type": "function"
    },
    {
      "inputs": [
        {
          "internalType": "address",
          "name": "",
          "type": "address"
        }
      ],
      "name": "userBatchCount",
      "outputs": [
        {
          "internalType": "uint256",
          "name": "",
          "type": "uint256"
        }
      ],
      "stateMutability": "view",
      "type": "function"
    },
    {
      "inputs": [],
      "name": "withdrawETH",
      "outputs": [],
      "stateMutability": "nonpayable",
      "type": "function"
    },
    {
      "stateMutability": "payable",
      "type": "receive"
    }
  ],
  "bytecode": "0x608060405234801561001057600080fd5b50338061003757604051631e4fbdf760e01b81526000600482015260240160405180910390fd5b6100408161004a565b506001805561009a565b600080546001600160a01b038381166001600160a01b0319831681178455604051919092169283917f8be0079c531659141344cd1fd0a4f28419497f9722a3daafe3b4186f6b6457e09190a35050565b611192806100a96000396000f3fe6080604052600436106100955760003560e01c80638da5cb5b116100595780638da5cb5b1461015a578063b091e25314610182578063e086e5ec146101a2578063f2fde38b146101b7578063fdb2e681146101d757600080fd5b80632251a53a146100a15780634e43603a146100d457806353db9baa1461010a57806363b434941461012d578063715018a61461014357600080fd5b3661009c57005b600080fd5b3480156100ad57600080fd5b506100c16100bc366004610de7565b610204565b6040519081526020015b60405180910390f35b3480156100e057600080fd5b506100c16100ef366004610e29565b6001600160a01b031660009081526003602052604090205490565b61011d610118366004610e52565b6102c1565b60405190151581526020016100cb565b34801561013957600080fd5b506100c160025481565b34801561014f57600080fd5b50610158610768565b005b34801561016657600080fd5b506000546040516001600160a01b0390911681526020016100cb565b610195610190366004610f01565b61077c565b6040516100cb9190610f9b565b3480156101ae57600080fd5b50610158610c17565b3480156101c357600080fd5b506101586101d2366004610e29565b610cb9565b3480156101e357600080fd5b506100c16101f2366004610e29565b60036020526000908152604090205481565b61520860005b828110156102b95761021e61753083611035565b9150600084848381811061023457610234611048565b9050602002810190610246919061105e565b61025490604081019061107e565b905011156102a75783838281811061026e5761026e611048565b9050602002810190610280919061105e565b61028e90604081019061107e565b61029a915060106110c5565b6102a49083611035565b91505b806102b1816110dc565b91505061020a565b505b92915050565b60006102cb610cf4565b85841480156102d957508382145b6103225760405162461bcd60e51b8152602060048201526015602482015274082e4e4c2f240d8cadccee8d040dad2e6dac2e8c6d605b1b60448201526064015b60405180910390fd5b856103685760405162461bcd60e51b8152602060048201526016602482015275139bc81bdc195c985d1a5bdb9cc81c1c9bdd9a59195960521b6044820152606401610319565b60328611156103b95760405162461bcd60e51b815260206004820152601c60248201527f546f6f206d616e79206f7065726174696f6e7320286d617820353029000000006044820152606401610319565b60008667ffffffffffffffff8111156103d4576103d46110f5565b60405190808252806020026020018201604052801561040757816020015b60608152602001906001900390816103f25790505b5090506000600192506000805b898110156104545788888281811061042e5761042e611048565b90506020020135826104409190611035565b91508061044c816110dc565b915050610414565b508034101561049d5760405162461bcd60e51b8152602060048201526015602482015274125b9cdd59999a58da595b9d08115512081cd95b9d605a1b6044820152606401610319565b60005b89811015610647576000808c8c848181106104bd576104bd611048565b90506020020160208101906104d29190610e29565b6001600160a01b03168b8b858181106104ed576104ed611048565b905060200201358a8a8681811061050657610506611048565b9050602002810190610518919061107e565b60405161052692919061110b565b60006040518083038185875af1925050503d8060008114610563576040519150601f19603f3d011682016040523d82523d6000602084013e610568565b606091505b509150915081610614578461057c816110dc565b9550508086848151811061059257610592611048565b6020026020010181905250827f056772279e3e927b0c0a816f15f5c6995556c9a872aaa97fd48ff80a27811fef826040516105cd919061111b565b60405180910390a260405162461bcd60e51b815260206004820152601060248201526f13dc195c985d1a5bdb8819985a5b195960821b604482015260009750606401610319565b8086848151811061062757610627611048565b60200260200101819052505050808061063f906110dc565b9150506104a0565b5060028054906000610658836110dc565b9091555050336000908152600360205260408120805491610678836110dc565b91905055508034111561071657600033610692833461112e565b604051600081818185875af1925050503d80600081146106ce576040519150601f19603f3d011682016040523d82523d6000602084013e6106d3565b606091505b50509050806107145760405162461bcd60e51b815260206004820152600d60248201526c1499599d5b990819985a5b1959609a1b6044820152606401610319565b505b604080518a8152851515602082015233917fd9774237cf939b608de5425a7d921b83ed370cd9d259bcac847d76664a3e6c1b910160405180910390a250505061075e60018055565b9695505050505050565b610770610d1e565b61077a6000610d4b565b565b6107a2604051806060016040528060001515815260200160608152602001600081525090565b6107aa610cf4565b826107f05760405162461bcd60e51b8152602060048201526016602482015275139bc81bdc195c985d1a5bdb9cc81c1c9bdd9a59195960521b6044820152606401610319565b60328311156108415760405162461bcd60e51b815260206004820152601c60248201527f546f6f206d616e79206f7065726174696f6e7320286d617820353029000000006044820152606401610319565b8267ffffffffffffffff81111561085a5761085a6110f5565b60405190808252806020026020018201604052801561088d57816020015b60608152602001906001900390816108785790505b50602082015260006040820181905260018252805b848110156108f0578585828181106108bc576108bc611048565b90506020028101906108ce919061105e565b6108dc906020013583611035565b9150806108e8816110dc565b9150506108a2565b50803410156109395760405162461bcd60e51b8152602060048201526015602482015274125b9cdd59999a58da595b9d08115512081cd95b9d605a1b6044820152606401610319565b60005b84811015610af9573686868381811061095757610957611048565b9050602002810190610969919061105e565b905060008061097b6020840184610e29565b6001600160a01b03166020840135610996604086018661107e565b6040516109a492919061110b565b60006040518083038185875af1925050503d80600081146109e1576040519150601f19603f3d011682016040523d82523d6000602084013e6109e6565b606091505b509150915081610ac05760408601805190610a00826110dc565b815250508086602001518581518110610a1b57610a1b611048565b6020026020010181905250837f056772279e3e927b0c0a816f15f5c6995556c9a872aaa97fd48ff80a27811fef82604051610a56919061111b565b60405180910390a28680610a775750610a756080840160608501611141565b155b15610ab75760405162461bcd60e51b815260206004820152601060248201526f13dc195c985d1a5bdb8819985a5b195960821b6044820152606401610319565b60008652610ae3565b8086602001518581518110610ad757610ad7611048565b60200260200101819052505b5050508080610af1906110dc565b91505061093c565b5060028054906000610b0a836110dc565b9091555050336000908152600360205260408120805491610b2a836110dc565b919050555080341115610bc857600033610b44833461112e565b604051600081818185875af1925050503d8060008114610b80576040519150601f19603f3d011682016040523d82523d6000602084013e610b85565b606091505b5050905080610bc65760405162461bcd60e51b815260206004820152600d60248201526c1499599d5b990819985a5b1959609a1b6044820152606401610319565b505b815160408051868152911515602083015233917fd9774237cf939b608de5425a7d921b83ed370cd9d259bcac847d76664a3e6c1b910160405180910390a250610c1060018055565b9392505050565b610c1f610d1e565b600080546040516001600160a01b039091169047908381818185875af1925050503d8060008114610c6c576040519150601f19603f3d011682016040523d82523d6000602084013e610c71565b606091505b5050905080610cb65760405162461bcd60e51b815260206004820152601160248201527015da5d1a191c985dd85b0819985a5b1959607a1b6044820152606401610319565b50565b610cc1610d1e565b6001600160a01b038116610ceb57604051631e4fbdf760e01b815260006004820152602401610319565b610cb681610d4b565b600260015403610d1757604051633ee5aeb560e01b815260040160405180910390fd5b6002600155565b6000546001600160a01b0316331461077a5760405163118cdaa760e01b8152336004820152602401610319565b600080546001600160a01b038381166001600160a01b0319831681178455604051919092169283917f8be0079c531659141344cd1fd0a4f28419497f9722a3daafe3b4186f6b6457e09190a35050565b60008083601f840112610dad57600080fd5b50813567ffffffffffffffff811115610dc557600080fd5b6020830191508360208260051b8501011115610de057600080fd5b9250929050565b60008060208385031215610dfa57600080fd5b823567ffffffffffffffff811115610e1157600080fd5b610e1d85828601610d9b565b90969095509350505050565b600060208284031215610e3b57600080fd5b81356001600160a01b0381168114610c1057600080fd5b60008060008060008060608789031215610e6b57600080fd5b863567ffffffffffffffff80821115610e8357600080fd5b610e8f8a838b01610d9b565b90985096506020890135915080821115610ea857600080fd5b610eb48a838b01610d9b565b90965094506040890135915080821115610ecd57600080fd5b50610eda89828a01610d9b565b979a9699509497509295939492505050565b80358015158114610efc57600080fd5b919050565b600080600060408486031215610f1657600080fd5b833567ffffffffffffffff811115610f2d57600080fd5b610f3986828701610d9b565b9094509250610f4c905060208501610eec565b90509250925092565b6000815180845260005b81811015610f7b57602081850181015186830182015201610f5f565b506000602082860101526020601f19601f83011685010191505092915050565b60006020808352608083018451151582850152818501516060604086015281815180845260a08701915060a08160051b8801019350848301925060005b8181101561100657609f19888603018352610ff4858551610f55565b94509285019291850191600101610fd8565b5050505060408501516060850152809250505092915050565b634e487b7160e01b600052601160045260246000fd5b808201808211156102bb576102bb61101f565b634e487b7160e01b600052603260045260246000fd5b60008235607e1983360301811261107457600080fd5b9190910192915050565b6000808335601e1984360301811261109557600080fd5b83018035915067ffffffffffffffff8211156110b057600080fd5b602001915036819003821315610de057600080fd5b80820281158282048414176102bb576102bb61101f565b6000600182016110ee576110ee61101f565b5060010190565b634e487b7160e01b600052604160045260246000fd5b8183823760009101908152919050565b602081526000610c106020830184610f55565b818103818111156102bb576102bb61101f565b60006020828403121561115357600080fd5b610c1082610eec56fea264697066735822122015013065cecf62a9aceca960f5d8c307f104b9c9f616fb80e28aea164f6effb364736f6c63430008140033",
  "linkReferences": {},
  "deployedLinkReferences": {}
}