{
  "_format": "hh-sol-artifact-1",
  "contractName": "FlowActions",
  "sourceName": "contracts/FlowActions.sol",
  "abi": [
    {
      "inputs": [],
      "stateMutability": "nonpayable",
      "type": "constructor"
    },
    {
      "inputs": [
        {
          "internalType": "address",
          "name": "owner",
          "type": "address"
        }
      ],
      "name": "OwnableInvalidOwner",
      "type": "error"
    },
    {
      "inputs": [
        {
          "internalType": "address",
          "name": "account",
          "type": "address"
        }
      ],
      "name": "OwnableUnauthorizedAccount",
      "type": "error"
    },
    {
      "inputs": [],
      "name": "ReentrancyGuardReentrantCall",
      "type": "error"
    },
    {
      "anonymous": false,
      "inputs": [
        {
          "indexed": true,
          "internalType": "uint256",
          "name": "workflowId",
          "type": "uint256"
        },
        {
          "indexed": false,
          "internalType": "uint256",
          "name": "actionIndex",
          "type": "uint256"
        },
        {
          "indexed": false,
          "internalType": "bool",
          "name": "success",
          "type": "bool"
        }
      ],
      "name": "ActionExecuted",
      "type": "event"
    },
    {
      "anonymous": false,
      "inputs": [
        {
          "indexed": true,
          "internalType": "bytes32",
          "name": "connectorHash",
          "type": "bytes32"
        },
        {
          "indexed": false,
          "internalType": "string",
          "name": "name",
          "type": "string"
        }
      ],
      "name": "ConnectorRegistered",
      "type": "event"
    },
    {
      "anonymous": false,
      "inputs": [
        {
          "indexed": true,
          "internalType": "address",
          "name": "previousOwner",
          "type": "address"
        },
        {
          "indexed": true,
          "internalType": "address",
          "name": "newOwner",
          "type": "address"
        }
      ],
      "name": "OwnershipTransferred",
      "type": "event"
    },
    {
      "anonymous": false,
      "inputs": [
        {
          "indexed": true,
          "internalType": "uint256",
          "name": "workflowId",
          "type": "uint256"
        }
      ],
      "name": "WorkflowCancelled",
      "type": "event"
    },
    {
      "anonymous": false,
      "inputs": [
        {
          "indexed": true,
          "internalType": "uint256",
          "name": "workflowId",
          "type": "uint256"
        },
        {
          "indexed": true,
          "internalType": "address",
          "name": "creator",
          "type": "address"
        },
        {
          "indexed": false,
          "internalType": "string",
          "name": "name",
          "type": "string"
        }
      ],
      "name": "WorkflowCreated",
      "type": "event"
    },
    {
      "anonymous": false,
      "inputs": [
        {
          "indexed": true,
          "internalType": "uint256",
          "name": "workflowId",
          "type": "uint256"
        },
        {
          "indexed": false,
          "internalType": "bool",
          "name": "success",
          "type": "bool"
        },
        {
          "indexed": false,
          "internalType": "uint256",
          "name": "actionsCompleted",
          "type": "uint256"
        }
      ],
      "name": "WorkflowExecuted",
      "type": "event"
    },
    {
      "inputs": [
        {
          "internalType": "uint256",
          "name": "workflowId",
          "type": "uint256"
        }
      ],
      "name": "cancelWorkflow",
      "outputs": [],
      "stateMutability": "nonpayable",
      "type": "function"
    },
    {
      "inputs": [
        {
          "components": [
            {
              "internalType": "enum FlowActions.ActionType",
              "name": "actionType",
              "type": "uint8"
            },
            {
              "internalType": "address",
              "name": "target",
              "type": "address"
            },
            {
              "internalType": "bytes",
              "name": "data",
              "type": "bytes"
            },
            {
              "internalType": "uint256",
              "name": "value",
              "type": "uint256"
            },
            {
              "internalType": "string",
              "name": "description",
              "type": "string"
            }
          ],
          "internalType": "struct FlowActions.Action[]",
          "name": "actions",
          "type": "tuple[]"
        },
        {
          "internalType": "string",
          "name": "name",
          "type": "string"
        },
        {
          "internalType": "bool",
          "name": "allowPartialFailure",
          "type": "bool"
        }
      ],
      "name": "createAndExecuteWorkflow",
      "outputs": [
        {
          "components": [
            {
              "internalType": "uint256",
              "name": "workflowId",
              "type": "uint256"
            },
            {
              "internalType": "bool",
              "name": "success",
              "type": "bool"
            },
            {
              "internalType": "uint256",
              "name": "completedActions",
              "type": "uint256"
            },
            {
              "internalType": "bytes[]",
              "name": "results",
              "type": "bytes[]"
            }
          ],
          "internalType": "struct FlowActions.WorkflowResult",
          "name": "result",
          "type": "tuple"
        }
      ],
      "stateMutability": "payable",
      "type": "function"
    },
    {
      "inputs": [
        {
          "components": [
            {
              "internalType": "enum FlowActions.ActionType",
              "name": "actionType",
              "type": "uint8"
            },
            {
              "internalType": "address",
              "name": "target",
              "type": "address"
            },
            {
              "internalType": "bytes",
              "name": "data",
              "type": "bytes"
            },
            {
              "internalType": "uint256",
              "name": "value",
              "type": "uint256"
            },
            {
              "internalType": "string",
              "name": "description",
              "type": "string"
            }
          ],
          "internalType": "struct FlowActions.Action[]",
          "name": "actions",
          "type": "tuple[]"
        },
        {
          "internalType": "string",
          "name": "name",
          "type": "string"
        },
        {
          "internalType": "bool",
          "name": "allowPartialFailure",
          "type": "bool"
        }
      ],
      "name": "createWorkflow",
      "outputs": [
        {
          "internalType": "uint256",
          "name": "workflowId",
          "type": "uint256"
        }
      ],
      "stateMutability": "nonpayable",
      "type": "function"
    },
    {
      "inputs": [
        {
          "internalType": "uint256",
          "name": "workflowId",
          "type": "uint256"
        }
      ],
      "name": "executeWorkflow",
      "outputs": [
        {
          "components": [
            {
              "internalType": "uint256",
              "name": "workflowId",
              "type": "uint256"
            },
            {
              "internalType": "bool",
              "name": "success",
              "type": "bool"
            },
            {
              "internalType": "uint256",
              "name": "completedActions",
              "type": "uint256"
            },
            {
              "internalType": "bytes[]",
              "name": "results",
              "type": "bytes[]"
            }
          ],
          "internalType": "struct FlowActions.WorkflowResult",
          "name": "result",
          "type": "tuple"
        }
      ],
      "stateMutability": "payable",
      "type": "function"
    },
    {
      "inputs": [
        {
          "internalType": "address",
          "name": "user",
          "type": "address"
        }
      ],
      "name": "getUserWorkflows",
      "outputs": [
        {
          "internalType": "uint256[]",
          "name": "workflowIds",
          "type": "uint256[]"
        }
      ],
      "stateMutability": "view",
      "type": "function"
    },
    {
      "inputs": [
        {
          "internalType": "uint256",
          "name": "workflowId",
          "type": "uint256"
        }
      ],
      "name": "getWorkflow",
      "outputs": [
        {
          "internalType": "uint256",
          "name": "id",
          "type": "uint256"
        },
        {
          "internalType": "address",
          "name": "creator",
          "type": "address"
        },
        {
          "internalType": "enum FlowActions.WorkflowStatus",
          "name": "status",
          "type": "uint8"
        },
        {
          "internalType": "uint256",
          "name": "actionsCount",
          "type": "uint256"
        },
        {
          "internalType": "string",
          "name": "name",
          "type": "string"
        }
      ],
      "stateMutability": "view",
      "type": "function"
    },
    {
      "inputs": [
        {
          "internalType": "uint256",
          "name": "workflowId",
          "type": "uint256"
        },
        {
          "internalType": "uint256",
          "name": "actionIndex",
          "type": "uint256"
        }
      ],
      "name": "getWorkflowAction",
      "outputs": [
        {
          "components": [
            {
              "internalType": "enum FlowActions.ActionType",
              "name": "actionType",
              "type": "uint8"
            },
            {
              "internalType": "address",
              "name": "target",
              "type": "address"
            },
            {
              "internalType": "bytes",
              "name": "data",
              "type": "bytes"
            },
            {
              "internalType": "uint256",
              "name": "value",
              "type": "uint256"
            },
            {
              "internalType": "string",
              "name": "description",
              "type": "string"
            }
          ],
          "internalType": "struct FlowActions.Action",
          "name": "action",
          "type": "tuple"
        }
      ],
      "stateMutability": "view",
      "type": "function"
    },
    {
      "inputs": [
        {
          "internalType": "string",
          "name": "connectorName",
          "type": "string"
        },
        {
          "internalType": "address",
          "name": "connectorAddress",
          "type": "address"
        }
      ],
      "name": "isConnectorRegistered",
      "outputs": [
        {
          "internalType": "bool",
          "name": "registered",
          "type": "bool"
        }
      ],
      "stateMutability": "view",
      "type": "function"
    },
    {
      "inputs": [],
      "name": "nextWorkflowId",
      "outputs": [
        {
          "internalType": "uint256",
          "name": "",
          "type": "uint256"
        }
      ],
      "stateMutability": "view",
      "type": "function"
    },
    {
      "inputs": [],
      "name": "owner",
      "outputs": [
        {
          "internalType": "address",
          "name": "",
          "type": "address"
        }
      ],
      "stateMutability": "view",
      "type": "function"
    },
    {
      "inputs": [
        {
          "internalType": "address",
          "name": "swapTarget",
          "type": "address"
        },
        {
          "internalType": "bytes",
          "name": "swapData",
          "type": "bytes"
        },
        {
          "internalType": "address",
          "name": "stakeTarget",
          "type": "address"
        },
        {
          "internalType": "bytes",
          "name": "stakeData",
          "type": "bytes"
        }
      ],
      "name": "quickSwapAndStake",
      "outputs": [
        {
          "internalType": "uint256",
          "name": "workflowId",
          "type": "uint256"
        }
      ],
      "stateMutability": "payable",
      "type": "function"
    },
    {
      "inputs": [
        {
          "internalType": "string",
          "name": "connectorName",
          "type": "string"
        },
        {
          "internalType": "address",
          "name": "connectorAddress",
          "type": "address"
        }
      ],
      "name": "registerConnector",
      "outputs": [],
      "stateMutability": "nonpayable",
      "type": "function"
    },
    {
      "inputs": [
        {
          "internalType": "bytes32",
          "name": "",
          "type": "bytes32"
        }
      ],
      "name": "registeredConnectors",
      "outputs": [
        {
          "internalType": "bool",
          "name": "",
          "type": "bool"
        }
      ],
      "stateMutability": "view",
      "type": "function"
    },
    {
      "inputs": [],
      "name": "renounceOwnership",
      "outputs": [],
      "stateMutability": "nonpayable",
      "type": "function"
    },
    {
      "inputs": [
        {
          "internalType": "address",
          "name": "newOwner",
          "type": "address"
        }
      ],
      "name": "transferOwnership",
      "outputs": [],
      "stateMutability": "nonpayable",
      "type": "function"
    },
    {
      "inputs": [
        {
          "internalType": "address",
          "name": "",
          "type": "address"
        },
        {
          "internalType": "uint256",
          "name": "",
          "type": "uint256"
        }
      ],
      "name": "userWorkflows",
      "outputs": [
        {
          "internalType": "uint256",
          "name": "",
          "type": "uint256"
        }
      ],
      "stateMutability": "view",
      "type": "function"
    },
    {
      "inputs": [],
      "name": "withdrawETH",
      "outputs": [],
      "stateMutability": "nonpayable",
      "type": "function"
    },
    {
      "inputs": [
        {
          "internalType": "uint256",
          "name": "",
          "type": "uint256"
        }
      ],
      "name": "workflows",
      "outputs": [
        {
          "internalType": "uint256",
          "name": "id",
          "type": "uint256"
        },
        {
          "internalType": "address",
          "name": "creator",
          "type": "address"
        },
        {
          "internalType": "enum FlowActions.WorkflowStatus",
          "name": "status",
          "type": "uint8"
        },
        {
          "internalType": "uint256",
          "name": "createdAt",
          "type": "uint256"
        },
        {
          "internalType": "uint256",
          "name": "executedAt",
          "type": "uint256"
        },
        {
          "internalType": "string",
          "name": "name",
          "type": "string"
        },
        {
          "internalType": "bool",
          "name": "allowPartialFailure",
          "type": "bool"
        }
      ],
      "stateMutability": "view",
      "type": "function"
    },
    {
      "stateMutability": "payable",
      "type": "receive"
    }
  ],
  "bytecode": "0x6080604052600160025534801561001557600080fd5b50338061003c57604051631e4fbdf760e01b81526000600482015260240160405180910390fd5b6100458161004f565b506001805561009f565b600080546001600160a01b038381166001600160a01b0319831681178455604051919092169283917f8be0079c531659141344cd1fd0a4f28419497f9722a3daafe3b4186f6b6457e09190a35050565b61270e80620000af6000396000f3fe60806040526004361061010d5760003560e01c8063c72e3d0f11610095578063d8ad945511610064578063d8ad94551461030f578063e086e5ec14610325578063eec7b03c1461033a578063f0f562531461036b578063f2fde38b1461037e57600080fd5b8063c72e3d0f1461027f578063d0c81e98146102af578063d4c425f1146102cf578063d6b41a8a146102ef57600080fd5b806396a7bfcf116100dc57806396a7bfcf146101ae5780639a5b2ecc146101e15780639bf5eb7c14610202578063ab4ad94c14610222578063c307f9fb1461025257600080fd5b80635ee05ea614610119578063715018a6146101425780638da5cb5b146101595780639307b2731461018157600080fd5b3661011457005b600080fd5b61012c610127366004611d30565b61039e565b6040516101399190611e2f565b60405180910390f35b34801561014e57600080fd5b506101576109d1565b005b34801561016557600080fd5b506000546040516001600160a01b039091168152602001610139565b34801561018d57600080fd5b506101a161019c366004611ecf565b6109e5565b6040516101399190611ef3565b3480156101ba57600080fd5b506101ce6101c9366004611f37565b610a51565b6040516101399796959493929190611f7a565b6101f46101ef366004611fd1565b610b28565b604051908152602001610139565b34801561020e57600080fd5b506101f461021d366004612068565b610ebf565b34801561022e57600080fd5b5061024261023d366004612094565b610ef0565b6040519015158152602001610139565b34801561025e57600080fd5b5061027261026d3660046120eb565b610f39565b604051610139919061210d565b34801561028b57600080fd5b5061024261029a366004611f37565b60056020526000908152604090205460ff1681565b3480156102bb57600080fd5b506101576102ca366004611f37565b6111a0565b3480156102db57600080fd5b506101f46102ea366004611d30565b6112bf565b3480156102fb57600080fd5b5061015761030a366004612094565b611495565b34801561031b57600080fd5b506101f460025481565b34801561033157600080fd5b50610157611525565b34801561034657600080fd5b5061035a610355366004611f37565b6115c7565b60405161013995949392919061217e565b61012c610379366004611f37565b6116ad565b34801561038a57600080fd5b50610157610399366004611ecf565b611bf5565b6103cb60405180608001604052806000815260200160001515815260200160008152602001606081525090565b6103d3611c30565b8461041b5760405162461bcd60e51b8152602060048201526013602482015272139bc81858dd1a5bdb9cc81c1c9bdd9a591959606a1b60448201526064015b60405180910390fd5b60148511156104685760405162461bcd60e51b8152602060048201526019602482015278546f6f206d616e7920616374696f6e7320286d61782032302960381b6044820152606401610412565b6002805460009182610479836121c4565b909155506000818152600360208190526040909120828155600180820180546001600160a01b03191633179055918101805460ff1916909217909155426004820155909150600681016104cd86888361229f565b5060078101805460ff191685151517905560005b8781101561054857816002018989838181106104ff576104ff61235a565b90506020028101906105119190612370565b81546001810183556000928352602090922090916004020161053382826123d7565b50508080610540906121c4565b9150506104e1565b50336000818152600460209081526040808320805460018101825590845291909220018490555183907fd9ece715191c90f339de8881be53def73a2dfacc0c6e14fa24354114b6d6ce2f906105a0908a908a9061251e565b60405180910390a3818352600281015467ffffffffffffffff8111156105c8576105c86121eb565b6040519080825280602002602001820160405280156105fb57816020015b60608152602001906001900390816105e65790505b506060840152600060408401819052600160208501525b60028201548110156109445760008260020182815481106106355761063561235a565b600091825260209091206040805160a081019091526004909202018054829060ff16600581111561066857610668611f50565b600581111561067957610679611f50565b8152815461010090046001600160a01b031660208201526001820180546040909201916106a590612201565b80601f01602080910402602001604051908101604052809291908181526020018280546106d190612201565b801561071e5780601f106106f35761010080835404028352916020019161071e565b820191906000526020600020905b81548152906001019060200180831161070157829003601f168201915b505050505081526020016002820154815260200160038201805461074190612201565b80601f016020809104026020016040519081016040528092919081815260200182805461076d90612201565b80156107ba5780601f1061078f576101008083540402835291602001916107ba565b820191906000526020600020905b81548152906001019060200180831161079d57829003601f168201915b505050505081525050905060008082602001516001600160a01b0316836060015184604001516040516107ed919061254d565b60006040518083038185875af1925050503d806000811461082a576040519150601f19603f3d011682016040523d82523d6000602084013e61082f565b606091505b5091509150808760600151858151811061084b5761084b61235a565b6020026020010181905250811561089d576040870180519061086c826121c4565b905250604080518581526001602082015287916000805160206126b9833981519152910160405180910390a261092e565b604080518581526000602082015287916000805160206126b9833981519152910160405180910390a2600785015460ff1661092657600060208801526003858101805460ff1916600183021790555060408088015181516000815260208101919091528791600080516020612699833981519152910160405180910390a25050505050506109bf565b600060208801525b505050808061093c906121c4565b915050610612565b508260200151610955576003610958565b60025b60038201805460ff1916600183600481111561097657610976611f50565b0217905550426005820155602083015160408085015190518492600080516020612699833981519152926109b4929115158252602082015260400190565b60405180910390a250505b6109c860018055565b95945050505050565b6109d9611c5a565b6109e36000611c87565b565b6001600160a01b038116600090815260046020908152604091829020805483518184028101840190945280845260609392830182828015610a4557602002820191906000526020600020905b815481526020019060010190808311610a31575b50505050509050919050565b600360208190526000918252604090912080546001820154928201546004830154600584015460068501805494966001600160a01b03169560ff9094169492939192610a9c90612201565b80601f0160208091040260200160405190810160405280929190818152602001828054610ac890612201565b8015610b155780601f10610aea57610100808354040283529160200191610b15565b820191906000526020600020905b815481529060010190602001808311610af857829003601f168201915b5050506007909301549192505060ff1687565b6002805460009182610b39836121c4565b909155506000818152600360208181526040928390208481556001810180546001600160a01b03191633179055918201805460ff191690554260048301558251808401909352600e83526d5377617020616e64205374616b6560901b908301529192506006820190610bab908261255f565b5060078101805460ff191690556040805160a08101909152600282019080600181526020018a6001600160a01b0316815260200189898080601f016020809104026020016040519081016040528093929190818152602001838380828437600092019190915250505090825250602001610c26600234612619565b815260408051808201909152600b81526a5377617020746f6b656e7360a81b6020828101919091529182015282546001818101855560009485529190932082516004909402018054929390929091839160ff191690836005811115610c8d57610c8d611f50565b0217905550602082015181546001600160a01b0390911661010002610100600160a81b031990911617815560408201516001820190610ccc908261255f565b506060820151600282015560808201516003820190610ceb908261255f565b505050806002016040518060a0016040528060026005811115610d1057610d10611f50565b8152602001876001600160a01b0316815260200186868080601f016020809104026020016040519081016040528093929190818152602001838380828437600092019190915250505090825250602001610d6b600234612619565b815260408051808201909152600c81526b5374616b6520746f6b656e7360a01b6020828101919091529182015282546001818101855560009485529190932082516004909402018054929390929091839160ff191690836005811115610dd357610dd3611f50565b0217905550602082015181546001600160a01b0390911661010002610100600160a81b031990911617815560408201516001820190610e12908261255f565b506060820151600282015560808201516003820190610e31908261255f565b5050336000818152600460209081526040808320805460018101825590845291909220018590555190915083907fd9ece715191c90f339de8881be53def73a2dfacc0c6e14fa24354114b6d6ce2f90610eac906020808252600e908201526d5377617020616e64205374616b6560901b604082015260600190565b60405180910390a3509695505050505050565b60046020528160005260406000208181548110610edb57600080fd5b90600052602060002001600091509150505481565b600080848484604051602001610f089392919061263b565b60408051808303601f1901815291815281516020928301206000908152600590925290205460ff1695945050505050565b6040805160a08101825260008082526020820181905260609282018390528282015260808101919091526000838152600360205260408120549003610f905760405162461bcd60e51b815260040161041290612661565b6000838152600360205260409020600201548210610fe75760405162461bcd60e51b8152602060048201526014602482015273092dcecc2d8d2c840c2c6e8d2dedc40d2dcc8caf60631b6044820152606401610412565b600083815260036020526040902060020180548390811061100a5761100a61235a565b600091825260209091206040805160a081019091526004909202018054829060ff16600581111561103d5761103d611f50565b600581111561104e5761104e611f50565b8152815461010090046001600160a01b0316602082015260018201805460409092019161107a90612201565b80601f01602080910402602001604051908101604052809291908181526020018280546110a690612201565b80156110f35780601f106110c8576101008083540402835291602001916110f3565b820191906000526020600020905b8154815290600101906020018083116110d657829003601f168201915b505050505081526020016002820154815260200160038201805461111690612201565b80601f016020809104026020016040519081016040528092919081815260200182805461114290612201565b801561118f5780601f106111645761010080835404028352916020019161118f565b820191906000526020600020905b81548152906001019060200180831161117257829003601f168201915b505050505081525050905092915050565b600081815260036020526040812080549091036111cf5760405162461bcd60e51b815260040161041290612661565b60018101546001600160a01b031633146112225760405162461bcd60e51b81526020600482015260146024820152732737ba103bb7b935b33637bb9031b932b0ba37b960611b6044820152606401610412565b6000600382015460ff16600481111561123d5761123d611f50565b146112815760405162461bcd60e51b8152602060048201526014602482015273576f726b666c6f77206e6f742070656e64696e6760601b6044820152606401610412565b60038101805460ff1916600417905560405182907f5f576edaec67ed167152281963c0f265684ba9bf94b02241afbbccdd7c59e09990600090a25050565b6000846113045760405162461bcd60e51b8152602060048201526013602482015272139bc81858dd1a5bdb9cc81c1c9bdd9a591959606a1b6044820152606401610412565b60148511156113515760405162461bcd60e51b8152602060048201526019602482015278546f6f206d616e7920616374696f6e7320286d61782032302960381b6044820152606401610412565b60028054906000611361836121c4565b9091555060008181526003602081905260409091208281556001810180546001600160a01b03191633179055908101805460ff19169055426004820155909150600681016113b085878361229f565b5060078101805460ff191684151517905560005b8681101561142b57816002018888838181106113e2576113e261235a565b90506020028101906113f49190612370565b81546001810183556000928352602090922090916004020161141682826123d7565b50508080611423906121c4565b9150506113c4565b50336000818152600460209081526040808320805460018101825590845291909220018490555183907fd9ece715191c90f339de8881be53def73a2dfacc0c6e14fa24354114b6d6ce2f90611483908990899061251e565b60405180910390a35095945050505050565b61149d611c5a565b60008383836040516020016114b49392919061263b565b60408051601f19818403018152828252805160209182012060008181526005909252919020805460ff19166001179055915081907f11aafcfbfc718c899a25193589eebef8e60616f9486a4a1599701ad0527a70c390611517908790879061251e565b60405180910390a250505050565b61152d611c5a565b600080546040516001600160a01b039091169047908381818185875af1925050503d806000811461157a576040519150601f19603f3d011682016040523d82523d6000602084013e61157f565b606091505b50509050806115c45760405162461bcd60e51b815260206004820152601160248201527015da5d1a191c985dd85b0819985a5b1959607a1b6044820152606401610412565b50565b6000818152600360208190526040822080546001820154928201546002830154600684018054879687968796606096919590946001600160a01b039093169360ff909216929091819061161990612201565b80601f016020809104026020016040519081016040528092919081815260200182805461164590612201565b80156116925780601f1061166757610100808354040283529160200191611692565b820191906000526020600020905b81548152906001019060200180831161167557829003601f168201915b50505050509050955095509550955095505091939590929450565b6116da60405180608001604052806000815260200160001515815260200160008152602001606081525090565b6116e2611c30565b600082815260036020526040812080549091036117115760405162461bcd60e51b815260040161041290612661565b60018101546001600160a01b031633146117645760405162461bcd60e51b81526020600482015260146024820152732737ba103bb7b935b33637bb9031b932b0ba37b960611b6044820152606401610412565b6000600382015460ff16600481111561177f5761177f611f50565b146117c35760405162461bcd60e51b8152602060048201526014602482015273576f726b666c6f77206e6f742070656e64696e6760601b6044820152606401610412565b60038101805460ff19166001179055828252600281015467ffffffffffffffff8111156117f2576117f26121eb565b60405190808252806020026020018201604052801561182557816020015b60608152602001906001900390816118105790505b506060830152600060408301819052600160208401525b6002820154811015611b6d57600082600201828154811061185f5761185f61235a565b600091825260209091206040805160a081019091526004909202018054829060ff16600581111561189257611892611f50565b60058111156118a3576118a3611f50565b8152815461010090046001600160a01b031660208201526001820180546040909201916118cf90612201565b80601f01602080910402602001604051908101604052809291908181526020018280546118fb90612201565b80156119485780601f1061191d57610100808354040283529160200191611948565b820191906000526020600020905b81548152906001019060200180831161192b57829003601f168201915b505050505081526020016002820154815260200160038201805461196b90612201565b80601f016020809104026020016040519081016040528092919081815260200182805461199790612201565b80156119e45780601f106119b9576101008083540402835291602001916119e4565b820191906000526020600020905b8154815290600101906020018083116119c757829003601f168201915b505050505081525050905060008082602001516001600160a01b031683606001518460400151604051611a17919061254d565b60006040518083038185875af1925050503d8060008114611a54576040519150601f19603f3d011682016040523d82523d6000602084013e611a59565b606091505b50915091508086606001518581518110611a7557611a7561235a565b60200260200101819052508115611ac75760408601805190611a96826121c4565b905250604080518581526001602082015288916000805160206126b9833981519152910160405180910390a2611b57565b604080518581526000602082015288916000805160206126b9833981519152910160405180910390a2600785015460ff16611b4f57600060208701526003858101805460ff1916600183021790555060408087015181516000815260208101919091528891600080516020612699833981519152910160405180910390a25050505050611be7565b600060208701525b5050508080611b65906121c4565b91505061183c565b508160200151611b7e576003611b81565b60025b60038201805460ff19166001836004811115611b9f57611b9f611f50565b021790555042600582015560208201516040808401519051859260008051602061269983398151915292611bdd929115158252602082015260400190565b60405180910390a2505b611bf060018055565b919050565b611bfd611c5a565b6001600160a01b038116611c2757604051631e4fbdf760e01b815260006004820152602401610412565b6115c481611c87565b600260015403611c5357604051633ee5aeb560e01b815260040160405180910390fd5b6002600155565b6000546001600160a01b031633146109e35760405163118cdaa760e01b8152336004820152602401610412565b600080546001600160a01b038381166001600160a01b0319831681178455604051919092169283917f8be0079c531659141344cd1fd0a4f28419497f9722a3daafe3b4186f6b6457e09190a35050565b60008083601f840112611ce957600080fd5b50813567ffffffffffffffff811115611d0157600080fd5b602083019150836020828501011115611d1957600080fd5b9250929050565b80358015158114611bf057600080fd5b600080600080600060608688031215611d4857600080fd5b853567ffffffffffffffff80821115611d6057600080fd5b818801915088601f830112611d7457600080fd5b813581811115611d8357600080fd5b8960208260051b8501011115611d9857600080fd5b602092830197509550908701359080821115611db357600080fd5b50611dc088828901611cd7565b9094509250611dd3905060408701611d20565b90509295509295909350565b60005b83811015611dfa578181015183820152602001611de2565b50506000910152565b60008151808452611e1b816020860160208601611ddf565b601f01601f19169290920160200192915050565b6000602080835260a08301845182850152818501511515604085015260408501516060850152606085015160808086015281815180845260c08701915060c08160051b8801019350848301925060005b81811015611ead5760bf19888603018352611e9b858551611e03565b94509285019291850191600101611e7f565b5092979650505050505050565b6001600160a01b03811681146115c457600080fd5b600060208284031215611ee157600080fd5b8135611eec81611eba565b9392505050565b6020808252825182820181905260009190848201906040850190845b81811015611f2b57835183529284019291840191600101611f0f565b50909695505050505050565b600060208284031215611f4957600080fd5b5035919050565b634e487b7160e01b600052602160045260246000fd5b60058110611f7657611f76611f50565b9052565b8781526001600160a01b0387166020820152611f996040820187611f66565b84606082015283608082015260e060a08201526000611fbb60e0830185611e03565b905082151560c083015298975050505050505050565b60008060008060008060808789031215611fea57600080fd5b8635611ff581611eba565b9550602087013567ffffffffffffffff8082111561201257600080fd5b61201e8a838b01611cd7565b90975095506040890135915061203382611eba565b9093506060880135908082111561204957600080fd5b5061205689828a01611cd7565b979a9699509497509295939492505050565b6000806040838503121561207b57600080fd5b823561208681611eba565b946020939093013593505050565b6000806000604084860312156120a957600080fd5b833567ffffffffffffffff8111156120c057600080fd5b6120cc86828701611cd7565b90945092505060208401356120e081611eba565b809150509250925092565b600080604083850312156120fe57600080fd5b50508035926020909101359150565b60208152600082516006811061212557612125611f50565b8060208401525060018060a01b036020840151166040830152604083015160a0606084015261215760c0840182611e03565b9050606084015160808401526080840151601f198483030160a08501526109c88282611e03565b8581526001600160a01b038516602082015261219d6040820185611f66565b82606082015260a0608082015260006121b960a0830184611e03565b979650505050505050565b6000600182016121e457634e487b7160e01b600052601160045260246000fd5b5060010190565b634e487b7160e01b600052604160045260246000fd5b600181811c9082168061221557607f821691505b60208210810361223557634e487b7160e01b600052602260045260246000fd5b50919050565b601f82111561228557600081815260208120601f850160051c810160208610156122625750805b601f850160051c820191505b818110156122815782815560010161226e565b5050505b505050565b600019600383901b1c191660019190911b1790565b67ffffffffffffffff8311156122b7576122b76121eb565b6122cb836122c58354612201565b8361223b565b6000601f8411600181146122f957600085156122e75750838201355b6122f1868261228a565b845550612353565b600083815260209020601f19861690835b8281101561232a578685013582556020948501946001909201910161230a565b50868210156123475760001960f88860031b161c19848701351681555b505060018560011b0183555b5050505050565b634e487b7160e01b600052603260045260246000fd5b60008235609e1983360301811261238657600080fd5b9190910192915050565b6000808335601e198436030181126123a757600080fd5b83018035915067ffffffffffffffff8211156123c257600080fd5b602001915036819003821315611d1957600080fd5b8135600681106123e657600080fd5b815460ff821691508160ff19821617835560208085013561240681611eba565b6001600160a81b03199290921690921760089190911b610100600160a81b03161782556001908282019061243d6040860186612390565b67ffffffffffffffff811115612455576124556121eb565b612469816124638654612201565b8661223b565b6000601f82116001811461249757600083156124855750838201355b61248f848261228a565b8755506124ec565b600086815260209020601f19841690835b828110156124c557868501358255938701939089019087016124a8565b50848210156124e25760001960f88660031b161c19848701351681555b50508683881b0186555b505050505050506060820135600282015561250a6080830183612390565b61251881836003860161229f565b50505050565b60208152816020820152818360408301376000818301604090810191909152601f909201601f19160101919050565b60008251612386818460208701611ddf565b815167ffffffffffffffff811115612579576125796121eb565b61258d816125878454612201565b8461223b565b602080601f8311600181146125bc57600084156125aa5750858301515b6125b4858261228a565b865550612281565b600085815260208120601f198616915b828110156125eb578886015182559484019460019091019084016125cc565b50858210156126095787850151600019600388901b60f8161c191681555b5050505050600190811b01905550565b60008261263657634e487b7160e01b600052601260045260246000fd5b500490565b8284823760609190911b6bffffffffffffffffffffffff19169101908152601401919050565b60208082526017908201527f576f726b666c6f7720646f6573206e6f7420657869737400000000000000000060408201526060019056fe60c00701c5b398fc012e8725f6911679a40c725553ab321656b68c622284f4752abcaabda6b6086dffe7c6dba92c8208fba28f2ad62bb562e3ea785849be5e7fa2646970667358221220fad57d8787c14e39e3e7c0cb30637aa4472f651bbc4a4473d69f2f5a6bf644ee64736f6c63430008140033",
  "linkReferences": {},
  "deployedLinkReferences": {}
}