{
  "_format": "hh-sol-artifact-1",
  "contractName": "AddressBook",
  "sourceName": "contracts/AddressBook.sol",
  "abi": [
    {
      "anonymous": false,
      "inputs": [
        {
          "indexed": true,
          "internalType": "address",
          "name": "user",
          "type": "address"
        },
        {
          "indexed": false,
          "internalType": "string",
          "name": "name",
          "type": "string"
        },
        {
          "indexed": false,
          "internalType": "address",
          "name": "wallet",
          "type": "address"
        }
      ],
      "name": "ContactAdded",
      "type": "event"
    },
    {
      "anonymous": false,
      "inputs": [
        {
          "indexed": true,
          "internalType": "address",
          "name": "user",
          "type": "address"
        },
        {
          "indexed": false,
          "internalType": "string",
          "name": "name",
          "type": "string"
        }
      ],
      "name": "ContactRemoved",
      "type": "event"
    },
    {
      "anonymous": false,
      "inputs": [
        {
          "indexed": true,
          "internalType": "address",
          "name": "user",
          "type": "address"
        },
        {
          "indexed": false,
          "internalType": "string",
          "name": "name",
          "type": "string"
        },
        {
          "indexed": false,
          "internalType": "address",
          "name": "newWallet",
          "type": "address"
        }
      ],
      "name": "ContactUpdated",
      "type": "event"
    },
    {
      "inputs": [
        {
          "internalType": "string",
          "name": "name",
          "type": "string"
        },
        {
          "internalType": "address",
          "name": "wallet",
          "type": "address"
        },
        {
          "internalType": "string",
          "name": "notes",
          "type": "string"
        }
      ],
      "name": "addContact",
      "outputs": [],
      "stateMutability": "nonpayable",
      "type": "function"
    },
    {
      "inputs": [
        {
          "internalType": "string",
          "name": "name",
          "type": "string"
        }
      ],
      "name": "contactExists",
      "outputs": [
        {
          "internalType": "bool",
          "name": "",
          "type": "bool"
        }
      ],
      "stateMutability": "view",
      "type": "function"
    },
    {
      "inputs": [],
      "name": "getAllContacts",
      "outputs": [
        {
          "components": [
            {
              "internalType": "string",
              "name": "name",
              "type": "string"
            },
            {
              "internalType": "address",
              "name": "wallet",
              "type": "address"
            },
            {
              "internalType": "string",
              "name": "notes",
              "type": "string"
            },
            {
              "internalType": "uint256",
              "name": "addedAt",
              "type": "uint256"
            },
            {
              "internalType": "bool",
              "name": "active",
              "type": "bool"
            }
          ],
          "internalType": "struct AddressBook.Contact[]",
          "name": "",
          "type": "tuple[]"
        }
      ],
      "stateMutability": "view",
      "type": "function"
    },
    {
      "inputs": [
        {
          "internalType": "string",
          "name": "name",
          "type": "string"
        }
      ],
      "name": "getContact",
      "outputs": [
        {
          "components": [
            {
              "internalType": "string",
              "name": "name",
              "type": "string"
            },
            {
              "internalType": "address",
              "name": "wallet",
              "type": "address"
            },
            {
              "internalType": "string",
              "name": "notes",
              "type": "string"
            },
            {
              "internalType": "uint256",
              "name": "addedAt",
              "type": "uint256"
            },
            {
              "internalType": "bool",
              "name": "active",
              "type": "bool"
            }
          ],
          "internalType": "struct AddressBook.Contact",
          "name": "",
          "type": "tuple"
        }
      ],
      "stateMutability": "view",
      "type": "function"
    },
    {
      "inputs": [],
      "name": "getContactCount",
      "outputs": [
        {
          "internalType": "uint256",
          "name": "",
          "type": "uint256"
        }
      ],
      "stateMutability": "view",
      "type": "function"
    },
    {
      "inputs": [
        {
          "internalType": "string",
          "name": "name",
          "type": "string"
        }
      ],
      "name": "removeContact",
      "outputs": [],
      "stateMutability": "nonpayable",
      "type": "function"
    },
    {
      "inputs": [
        {
          "internalType": "string",
          "name": "name",
          "type": "string"
        }
      ],
      "name": "resolveContact",
      "outputs": [
        {
          "internalType": "address",
          "name": "",
          "type": "address"
        }
      ],
      "stateMutability": "view",
      "type": "function"
    },
    {
      "inputs": [
        {
          "internalType": "string",
          "name": "query",
          "type": "string"
        }
      ],
      "name": "searchContacts",
      "outputs": [
        {
          "components": [
            {
              "internalType": "string",
              "name": "name",
              "type": "string"
            },
            {
              "internalType": "address",
              "name": "wallet",
              "type": "address"
            },
            {
              "internalType": "string",
              "name": "notes",
              "type": "string"
            },
            {
              "internalType": "uint256",
              "name": "addedAt",
              "type": "uint256"
            },
            {
              "internalType": "bool",
              "name": "active",
              "type": "bool"
            }
          ],
          "internalType": "struct AddressBook.Contact[]",
          "name": "",
          "type": "tuple[]"
        }
      ],
      "stateMutability": "view",
      "type": "function"
    },
    {
      "inputs": [
        {
          "internalType": "string",
          "name": "name",
          "type": "string"
        },
        {
          "internalType": "address",
          "name": "newWallet",
          "type": "address"
        },
        {
          "internalType": "string",
          "name": "notes",
          "type": "string"
        }
      ],
      "name": "updateContact",
      "outputs": [],
      "stateMutability": "nonpayable",
      "type": "function"
    }
  ],
  "bytecode": "0x608060405234801561001057600080fd5b50611952806100206000396000f3fe608060405234801561001057600080fd5b50600436106100935760003560e01c80637a7377e2116100665780637a7377e214610107578063c7224bba1461011a578063ef1d6ddd1461013d578063efa902f014610145578063f24e0c661461016557600080fd5b806315aeb95d1461009857806336d52ed7146100c157806356fb0c62146100df5780636e6b5733146100f4575b600080fd5b6100ab6100a6366004611397565b610190565b6040516100b8919061148c565b60405180910390f35b336000908152600260205260409020546040519081526020016100b8565b6100f26100ed3660046114ee565b610629565b005b6100f2610102366004611397565b6107a2565b6100f26101153660046114ee565b61089d565b61012d610128366004611397565b610b60565b60405190151581526020016100b8565b6100ab610b9d565b610158610153366004611397565b610f3e565b6040516100b8919061157f565b610178610173366004611397565b61112d565b6040516001600160a01b0390911681526020016100b8565b6060816101dc5760405162461bcd60e51b815260206004820152601560248201527451756572792063616e6e6f7420626520656d70747960581b60448201526064015b60405180910390fd5b33600090815260016020908152604080832080548251818502810185019093528083529192909190849084015b828210156102b557838290600052602060002001805461022890611599565b80601f016020809104026020016040519081016040528092919081815260200182805461025490611599565b80156102a15780601f10610276576101008083540402835291602001916102a1565b820191906000526020600020905b81548152906001019060200180831161028457829003601f168201915b505050505081526020019060010190610209565b505033600090815260026020526040812054939450915082905067ffffffffffffffff8111156102e7576102e76115d3565b60405190808252806020026020018201604052801561032057816020015b61030d611314565b8152602001906001900390816103055790505b5090506000805b845181101561056e573360009081526020819052604081208651879084908110610353576103536115e9565b602002602001015160405161036891906115ff565b90815260200160405180910390206040518060a001604052908160008201805461039190611599565b80601f01602080910402602001604051908101604052809291908181526020018280546103bd90611599565b801561040a5780601f106103df5761010080835404028352916020019161040a565b820191906000526020600020905b8154815290600101906020018083116103ed57829003601f168201915b505050918352505060018201546001600160a01b0316602082015260028201805460409092019161043a90611599565b80601f016020809104026020016040519081016040528092919081815260200182805461046690611599565b80156104b35780601f10610488576101008083540402835291602001916104b3565b820191906000526020600020905b81548152906001019060200180831161049657829003601f168201915b50505091835250506003820154602082015260049091015460ff16151560409091015260808101519091508015610529575061052981600001518a8a8080601f0160208091040260200160405190810160405280939291908181526020018383808284376000920191909152506111c292505050565b1561055b5780848481518110610541576105416115e9565b6020026020010181905250828061055790611631565b9350505b508061056681611631565b915050610327565b5060008167ffffffffffffffff81111561058a5761058a6115d3565b6040519080825280602002602001820160405280156105c357816020015b6105b0611314565b8152602001906001900390816105a85790505b50905060005b8281101561061b578381815181106105e3576105e36115e9565b60200260200101518282815181106105fd576105fd6115e9565b6020026020010181905250808061061390611631565b9150506105c9565b509450505050505b92915050565b33600090815260208190526040908190209051610649908790879061164a565b9081526040519081900360200190206004015460ff1661067b5760405162461bcd60e51b81526004016101d39061165a565b6001600160a01b0383166106c35760405162461bcd60e51b815260206004820152600f60248201526e496e76616c6964206164647265737360881b60448201526064016101d3565b336000908152602081905260409081902090518491906106e6908890889061164a565b908152604080516020928190038301812060010180546001600160a01b0319166001600160a01b0395909516949094179093553360009081529182905290208391839190610737908990899061164a565b908152602001604051809103902060020191826107559291906116d4565b50336001600160a01b03167fb8b53b045de2112ccb086476f2363701baaeb8ad0761c11fce31acb97e70075c868686604051610793939291906117be565b60405180910390a25050505050565b336000908152602081905260409081902090516107c2908490849061164a565b9081526040519081900360200190206004015460ff166107f45760405162461bcd60e51b81526004016101d39061165a565b336000908152602081905260408082209051610813908590859061164a565b9081526040805160209281900383019020600401805460ff1916931515939093179092553360009081526002909152908120805491610851836117ea565b9190505550336001600160a01b03167ff7318b9baff531ccb2db40128064f019ac27200ead589e6a024858ca576347ef8383604051610891929190611801565b60405180910390a25050565b836108e15760405162461bcd60e51b81526020600482015260146024820152734e616d652063616e6e6f7420626520656d70747960601b60448201526064016101d3565b6001600160a01b0383166109295760405162461bcd60e51b815260206004820152600f60248201526e496e76616c6964206164647265737360881b60448201526064016101d3565b33600090815260208190526040908190209051610949908790879061164a565b9081526040519081900360200190206004015460ff16156109a55760405162461bcd60e51b8152602060048201526016602482015275436f6e7461637420616c72656164792065786973747360501b60448201526064016101d3565b6040518060a0016040528086868080601f0160208091040260200160405190810160405280939291908181526020018383808284376000920191909152505050908252506001600160a01b03851660208083019190915260408051601f8601839004830281018301825285815292019190859085908190840183828082843760009201829052509385525050426020808501919091526001604094850152338352829052508190209051610a5c908890889061164a565b90815260405190819003602001902081518190610a79908261181d565b5060208201516001820180546001600160a01b0319166001600160a01b0390921691909117905560408201516002820190610ab4908261181d565b50606082015160038201556080909101516004909101805460ff1916911515919091179055336000908152600160208181526040832080549283018155835290912001610b028587836116d4565b50336000908152600260205260408120805491610b1e83611631565b9190505550336001600160a01b03167f13249615368f18ce0d80d61e78973709e6e329c3e6ec093f14562e6be64419f1868686604051610793939291906117be565b336000908152602081905260408082209051610b7f908590859061164a565b9081526040519081900360200190206004015460ff16905092915050565b336000908152600160209081526040808320805482518185028101850190935280835260609493849084015b82821015610c75578382906000526020600020018054610be890611599565b80601f0160208091040260200160405190810160405280929190818152602001828054610c1490611599565b8015610c615780601f10610c3657610100808354040283529160200191610c61565b820191906000526020600020905b815481529060010190602001808311610c4457829003601f168201915b505050505081526020019060010190610bc9565b505033600090815260026020526040812054939450915082905067ffffffffffffffff811115610ca757610ca76115d3565b604051908082528060200260200182016040528015610ce057816020015b610ccd611314565b815260200190600190039081610cc55790505b5090506000805b845181108015610cf657508382105b15610f34573360009081526020819052604090208551869083908110610d1e57610d1e6115e9565b6020026020010151604051610d3391906115ff565b9081526040519081900360200190206004015460ff1615610f22573360009081526020819052604090208551869083908110610d7157610d716115e9565b6020026020010151604051610d8691906115ff565b90815260200160405180910390206040518060a0016040529081600082018054610daf90611599565b80601f0160208091040260200160405190810160405280929190818152602001828054610ddb90611599565b8015610e285780601f10610dfd57610100808354040283529160200191610e28565b820191906000526020600020905b815481529060010190602001808311610e0b57829003601f168201915b505050918352505060018201546001600160a01b03166020820152600282018054604090920191610e5890611599565b80601f0160208091040260200160405190810160405280929190818152602001828054610e8490611599565b8015610ed15780601f10610ea657610100808354040283529160200191610ed1565b820191906000526020600020905b815481529060010190602001808311610eb457829003601f168201915b50505091835250506003820154602082015260049091015460ff1615156040909101528351849084908110610f0857610f086115e9565b60200260200101819052508180610f1e90611631565b9250505b80610f2c81611631565b915050610ce7565b5090949350505050565b610f46611314565b33600090815260208190526040908190209051610f66908590859061164a565b9081526040519081900360200190206004015460ff16610f985760405162461bcd60e51b81526004016101d39061165a565b33600090815260208190526040908190209051610fb8908590859061164a565b90815260200160405180910390206040518060a0016040529081600082018054610fe190611599565b80601f016020809104026020016040519081016040528092919081815260200182805461100d90611599565b801561105a5780601f1061102f5761010080835404028352916020019161105a565b820191906000526020600020905b81548152906001019060200180831161103d57829003601f168201915b505050918352505060018201546001600160a01b0316602082015260028201805460409092019161108a90611599565b80601f01602080910402602001604051908101604052809291908181526020018280546110b690611599565b80156111035780601f106110d857610100808354040283529160200191611103565b820191906000526020600020905b8154815290600101906020018083116110e657829003601f168201915b50505091835250506003820154602082015260049091015460ff1615156040909101529392505050565b33600090815260208190526040808220905161114c908590859061164a565b9081526040519081900360200190206004015460ff1661117e5760405162461bcd60e51b81526004016101d39061165a565b3360009081526020819052604090819020905161119e908590859061164a565b908152604051908190036020019020600101546001600160a01b0316905092915050565b815181516000918491849110156111de57600092505050610623565b80516000036111f257600192505050610623565b60005b8151835161120391906118dd565b81116112b957600160005b83518110156112925761124084828151811061122c5761122c6115e9565b01602001516001600160f81b0319166112c5565b6001600160f81b0319166112688661125884876118f0565b8151811061122c5761122c6115e9565b6001600160f81b031916146112805760009150611292565b8061128a81611631565b91505061120e565b5080156112a6576001945050505050610623565b50806112b181611631565b9150506111f5565b50600095945050505050565b6000604160f81b6001600160f81b03198316108015906112f35750602d60f91b6001600160f81b0319831611155b156113105761130760f883901c6020611903565b60f81b92915050565b5090565b6040518060a001604052806060815260200160006001600160a01b0316815260200160608152602001600081526020016000151581525090565b60008083601f84011261136057600080fd5b50813567ffffffffffffffff81111561137857600080fd5b60208301915083602082850101111561139057600080fd5b9250929050565b600080602083850312156113aa57600080fd5b823567ffffffffffffffff8111156113c157600080fd5b6113cd8582860161134e565b90969095509350505050565b60005b838110156113f45781810151838201526020016113dc565b50506000910152565b600081518084526114158160208601602086016113d9565b601f01601f19169290920160200192915050565b6000815160a0845261143e60a08501826113fd565b905060018060a01b0360208401511660208501526040830151848203604086015261146982826113fd565b915050606083015160608501526080830151151560808501528091505092915050565b6000602080830181845280855180835260408601915060408160051b870101925083870160005b828110156114e157603f198886030184526114cf858351611429565b945092850192908501906001016114b3565b5092979650505050505050565b60008060008060006060868803121561150657600080fd5b853567ffffffffffffffff8082111561151e57600080fd5b61152a89838a0161134e565b9097509550602088013591506001600160a01b038216821461154b57600080fd5b9093506040870135908082111561156157600080fd5b5061156e8882890161134e565b969995985093965092949392505050565b6020815260006115926020830184611429565b9392505050565b600181811c908216806115ad57607f821691505b6020821081036115cd57634e487b7160e01b600052602260045260246000fd5b50919050565b634e487b7160e01b600052604160045260246000fd5b634e487b7160e01b600052603260045260246000fd5b600082516116118184602087016113d9565b9190910192915050565b634e487b7160e01b600052601160045260246000fd5b6000600182016116435761164361161b565b5060010190565b8183823760009101908152919050565b60208082526011908201527010dbdb9d1858dd081b9bdd08199bdd5b99607a1b604082015260600190565b601f8211156116cf57600081815260208120601f850160051c810160208610156116ac5750805b601f850160051c820191505b818110156116cb578281556001016116b8565b5050505b505050565b67ffffffffffffffff8311156116ec576116ec6115d3565b611700836116fa8354611599565b83611685565b6000601f841160018114611734576000851561171c5750838201355b600019600387901b1c1916600186901b17835561178e565b600083815260209020601f19861690835b828110156117655786850135825560209485019460019092019101611745565b50868210156117825760001960f88860031b161c19848701351681555b505060018560011b0183555b5050505050565b81835281816020850137506000828201602090810191909152601f909101601f19169091010190565b6040815260006117d2604083018587611795565b905060018060a01b0383166020830152949350505050565b6000816117f9576117f961161b565b506000190190565b602081526000611815602083018486611795565b949350505050565b815167ffffffffffffffff811115611837576118376115d3565b61184b816118458454611599565b84611685565b602080601f83116001811461188057600084156118685750858301515b600019600386901b1c1916600185901b1785556116cb565b600085815260208120601f198616915b828110156118af57888601518255948401946001909101908401611890565b50858210156118cd5787850151600019600388901b60f8161c191681555b5050505050600190811b01905550565b818103818111156106235761062361161b565b808201808211156106235761062361161b565b60ff81811683821601908111156106235761062361161b56fea2646970667358221220cbc3c6ec0efc9c3a76e361d92f97270e504e575a59e7cb41e289b2a037e5a50a64736f6c63430008140033",
  "linkReferences": {},
  "deployedLinkReferences": {}
}